:0200000460009A
:100000004643464200000156000000000103030081
:1000100000000000000000000000000000000000E0
:1000200000000000000000000000000000000000D0
:1000300000000000000000000000000000000000C0
:1000400000000000010408000000000000000000A3
:100050000000800000000000000000000000000020
:100060000000000000000000000000000000000090
:100070000000000000000000000000000000000080
:10008000EB04180A063204260000000000000000FD
:10009000050404240000000000000000000000002F
:1000A0000000000000000000000000000000000050
:1000B0000604000000000000000000000000000036
:1000C0000000000000000000000000000000000030
:1000D00020041808000000000000000000000000DC
:1000E0000000000000000000000000000000000010
:1000F0000000000000000000000000000000000000
:10010000D8041808000000000000000000000000F3
:100110000204180804200000000000000000000095
:1001200000000000000000000000000000000000CF
:10013000600400000000000000000000000000005B
:1001400000000000000000000000000000000000AF
:10015000000000000000000000000000000000009F
:10016000000000000000000000000000000000008F
:10017000000000000000000000000000000000007F
:10018000000000000000000000000000000000006F
:10019000000000000000000000000000000000005F
:1001A000000000000000000000000000000000004F
:1001B000000000000000000000000000000000003F
:1001C000000100000010000001000000000000001D
:1001D000000001000000000000000000000000001E
:1001E000000000000000000000000000000000000F
:1001F00000000000000000000000000000000000FF
:10020000FFFFFFFFFFFFFFFFFFFFFFFFFFFFFFFFFE
:10021000FFFFFFFFFFFFFFFFFFFFFFFFFFFFFFFFEE
:10100000D10020434D1600600000000000000000E9
:101010002010006000100060000C0660000000005E
:10102000000000600018060000000000FFFFFFFF46
:10103000FFFFFFFFFFFFFFFFFFFFFFFFFFFFFFFFC0
:10104000FFFFFFFFFFFFFFFFFFFFFFFFFFFFFFFFB0
:10105000FFFFFFFFFFFFFFFFFFFFFFFFFFFFFFFFA0
:10106000FFFFFFFFFFFFFFFFFFFFFFFFFFFFFFFF90
:10140000814205D051F8043B40F8043B8242F9D8B0
:10141000704700BF044A05494FF0000342F8043BFF
:101420009142FBD8704700BFC00601204027012031
:101430002DE98848BFF34F8F00BF00BF00BF00BF3A
:1014400000F0D6F9684B0822C3F8542100BF00BF52
:1014500000BF00BF00BF00BF00BF00BF00BF00BF94
:1014600000BF00BF00BF00BF00BF00BF5F4A6049B0
:101470006048FFF7C5FF604A60496148FFF7C0FF59
:10148000604CFFF7C7FF4FF470004FF0E0210023DE
:101490005D4AC1F8880D44F823200133B02BFAD1FE
:1014A0005A4B80215A4A03F8011B9342FBD14FF05B
:1014B000E0254D4E4FF08039DFF884B1DFF884A18C
:1014C0004FF0FF31C5F8084D0027C6F80491C6F863
:1014D00000B1C6F8F490C6F8F0A0D5F8243DDFF8C6
:1014E000688143F4E0234B4AC5F8243DD8F81C300A
:1014F00023F07F0343F04003C8F81C30D8F82430B1
:1015000023F07F0343F04003C8F824309166D1668E
:101510001167516700F074F93F4B4049A363404B9A
:10152000E36363236B610323AF612B613D4BC5F81C
:10153000203DD5F8FC3D43F08073C5F8FC3D3A4BA7
:101540001A6842F001021A605B680B6000F0A2FBAF
:10155000C6F804913548C6F800B1C6F8F490C6F84C
:10156000F0A000F039FDD8F86C10314B314A41F44D
:101570004051C8F86C101F60C3F80871C3F81871A7
:10158000C3F82871C3F83871936BDB0708D442F6AF
:101590001563294951651365936B43F00103936308
:1015A000244A264C936843F00113936000F0B0F98D
:1015B00000F0D4FC00F018FD00F09AFB00F01AF9DE
:1015C0002368132BFCD900F02BFC2368B3F5967F1E
:1015D000FBD300F013F900F00FF900F0F1FC00F07C
:1015E000F3FC30BFFDE700BF00800D40D8E10400F0
:1015F0002022006000000000C0060120FC030560FE
:101600000000002000040120552C000000E400E050
:10161000A0E400E000C00A4031410000D8260120CB
:101620003541000000002020001000E00046C323E8
:101630000040084000400D400000C056DC2601205C
:101640001B1018200C0D111300C00F40054B4FF458
:101650002A01054A05485A641864054A9963954663
:10166000FFF7E6FE00C00A40FFFFAFAA0700200018
:101670000000032043690A4A03EB011010B4037A07
:10168000084C02EB0313D3E901321460C2681A60FC
:1016900003690BB142691A605DF8044B704700BFE3
:1016A00010DF002061F801004369027E03EB0212A3
:1016B00092F808C08C451CD01A7AFF2A19D09142A2
:1016C00010B5044616D01A7EFF2A06D00121D3E9B0
:1016D000002312681A4201D1217610BD064B052263
:1016E000204603EB0C135B681A60FFF7C3FF2176FB
:1016F000F3E770470021EAE710DF002043690A4A58
:1017000003EB011010B490F82830084C02EB0313DF
:10171000D3E901321460C26A1A60036B0BB1426BE9
:101720001A605DF8044B704710DF002061F801007B
:101730004369427E03EB021292F828C08C451ED00A
:1017400093F82820FF2A1AD0914210B5044617D0EA
:1017500093F83820FF2A06D00121D3E9002312682C
:101760001A4201D1617610BD064B0522204603EBDB
:101770000C135B681A60FFF7C1FF6176F3E77047EF
:101780000021EAE710DF0020164942698B6B23F441
:101790007C0343F4802370B58B630446124DD2E979
:1017A00000130A681A4303690A60022200211A61C1
:1017B0000E4A19619A6401225A629D624FF43035D3
:1017C000DD624FF001159E6C1E6519629D651A6100
:1017D000017EFFF74FFF617E2046BDE87040FFF7B6
:1017E0008DBF00BF00C00F40B80B05053B3728195F
:1017F000704700BF704700BF704700BF00BF704711
:1018000010B44FF0E023002110243148C3F8941D98
:10181000C3F89C4D1124C3F8A00D2E48C3F89C4D6D
:101820001224C3F8A00D2C48C3F89C4D2B4AC3F8D2
:10183000A00D2B4C42F015022A48C3F89C4DC3F86A
:10184000A00D294C2948C3F89C4DC3F8A00D284C85
:10185000C3F89C2D2748284AC3F8A04DC3F89C0D17
:10186000C3F8A02D02F5A022244C0C322448C3F862
:101870009C4DC3F8A02D234AC3F89C0D224CC3F8FD
:10188000A02D02F14062C3F89C4D2048C3F8A02D62
:101890000C32C3F89C0DC3F8A02D00BF00BF00BFE1
:1018A00000BF00BF0122C3F8942DBFF34F8FBFF3D9
:1018B0006F8FC3F8501FBFF34F8FBFF36F8FD3F8F5
:1018C000142D5DF8044B42F44032C3F8142D7047D8
:1018D0003F000010250008070900100040270120E4
:1018E0001300200021000207140000202500081327
:1018F000090000101600202027000B1317000040DD
:10190000180000602F000B07190000701A000080FB
:10191000F0B5B84B1822B84E0120B84F83B0C3F8C9
:101920005C62B749C3F86072B64DC3F86462A6F54D
:101930003046B54CC3F86862C3F86C52C3F87052B5
:10194000C3F87452C3F8785248F20C75DA661A6715
:101950005A679A67DA67C3F88020C3F88420C3F80F
:101960008820C1F82C03A94AC1F83003C1F8340318
:10197000C1F83803C1F83C03C1F85003A169A44B76
:101980000A40A448A4491343A44AA361D4F884306C
:1019900043F00C03C4F884304FF0FF34036843F085
:1019A0000203036003682B404FF400551A439C4B1D
:1019B000026044608A689B4C13409B4A43F000538A
:1019C0008360C36823F07803C360036A1340234332
:1019D0000362036A1340954A2343954C4362826233
:1019E000C2620022D1F8B83023F03F0343F0010374
:1019F000C0F8B830D1F8BC308E4923F03F0343F033
:101A00000103C0F8BC3040F205630261056604675B
:101A1000C0F88030456644670224C0F8843003680B
:101A200023F0020303608161834B8449C46143F85E
:101A3000042B8B42FBD1774A136843F001031360F8
:101A4000136813F00103FBD17A48022140F2F564D8
:101A5000906140F29940D16140F26641C2F8004283
:101A600042F20144C2F810127549C2F82002C2F8CD
:101A7000301240F235417348C2F83442C2F8401285
:101A8000714CC2F8500242F201207049C2F854125F
:101A90000121C2F86042C2F864025E48C2F8A03078
:101AA000C2F8A430C2F8B0104369DA07FCD50123AC
:101AB00000244FF4803257494361C0F8A040C0F879
:101AC000A420C0F8B0304B69DB07FCD5012300240B
:101AD0004FF400304F4A4B61C1F8A040C1F8A40058
:101AE000C1F8B0305369DF07FCD501230024584802
:101AF00048495361C2F8A040C2F8A400C2F8B0300F
:101B00004B69DE07FCD5D1F8003145F60D52212096
:101B10009BB24861934265D100244FF48022012397
:101B20003C48C1F8A040C1F8A420C1F8B0304369D6
:101B3000DD07FCD501234FF400040021354A436141
:101B4000C0F8A040C0F8A410C0F8B0305369DC075A
:101B5000FCD501234FF400044FF480302D4953612C
:101B6000C2F8A040C2F8A400C2F8B0304B69D80750
:101B7000FCD501234FF400044FF40030254A4B619B
:101B8000C1F8A040C1F8A400C1F8B0305369D9072A
:101B9000FCD501234FF400042D481E495361C2F8BF
:101BA000A040C2F8A400C2F8B0304B69DA07FCD5F7
:101BB000D1F8003145F60D5221209BB24861934285
:101BC00050D008254FF4000422490020224B234A1C
:101BD000009015705A1A01232148224400F008FA97
:101BE00003B0F0BD1E4B0022C3E90022C3E902226C
:101BF00003B0F0BD00801F40F9B00100F9100100F2
:101C000000841F40F970010000C00F40FFFCFF1F5F
:101C1000000300A000402A4000802A401200FFFF7D
:101C2000FF37F7004000008000FFF07CFF000F83CB
:101C300063000200F05AF05A00422A4000432A4052
:101C40009F041830EB06180A3806180A06320126D7
:101C50000400030000000070000000700327012052
:101C6000B42301204FF400044FF4802201230848DC
:101C7000C1F8A040C1F8A420C1F8B0304369DB0727
:101C8000FCD5012310254FF0807443619CE700BF11
:101C900000402A40F0B4154A40274FF480314FF4F9
:101CA00080564FF400554FF4404443F2420013690C
:101CB00013F0020F0ED113F4005F0FD013F4805F06
:101CC0000ED0002BF3DA13F4803F0BD15B060BD55B
:101CD000F0BC7047946151619061E8E75561E6E7B7
:101CE0005661E4E79161E2E75761E0E700800D406B
:101CF0003F4A03203F49F3EE095AD2F880304FF0B3
:101D0000000C9FED3D6A23F001039FED3C5A30B477
:101D1000C2F88030C2F89000D1F8E010384DCBB254
:101D2000384C39482B6007EE903A0B0DC1F30B216C
:101D3000F8EEE77A06EE903A07EE101A334BB8EE5B
:101D4000C77A2160F8EEE66A314937EEC66A37EEA7
:101D5000C55A76EEC76A77EEE57A26EE266AC3EDB7
:101D6000006A25EE265AD2F8803067EEA64AC0ED0A
:101D7000007AC6EE275A274885EE276AC4EEA76A7E
:101D800075EE875AFCEEE55A36EE076A15EE904A74
:101D9000BCEEC66A43EA045376EE877AC2F8803016
:101DA00016EE103AD2F89041FCEEE77A01EA0341D0
:101DB000214317EE903AC2F89011C3F30B03D2F807
:101DC00090110B431449C2F89031D2F8803043F09F
:101DD0000203C2F88030114B80F840C0C1F8403196
:101DE0004FF0E023012230BCC3F80821704700BF48
:101DF00000810D4000441F400000AA420000B44290
:101E0000E8250120E4250120EC250120F025012012
:101E10000000FF0F00E400E000040120552E000048
:101E2000314B40F6617210B5C3F8202140F20444F2
:101E300000F0D6F82D4A2E49D2F880302D4843F0D4
:101E40000303C2F880302C4BC1F8604102681A428B
:101E500003D1D1F8A8319A071BD0254A4FF0004191
:101E6000244B5963D2F8403143F00203C2F84031A9
:101E7000D2F840319B07FBD44FF400304FF0E02103
:101E80001C4B4FF00042C1F88C0219209A6300F0FD
:101E9000B3F8184A4FF08040154C002190630A2097
:101EA000164B11604FF42072C4F8A801184600F0D8
:101EB0008FF84FF4800203464FF4810040F2431143
:101EC0001860C4F858311A640D4B0E4AC4F8481112
:101ED000C3F804224FF0E0224FF400310123C2F88E
:101EE0000C11C4F8403110BD00800D4000C00F40FF
:101EF00000002E4000900D40001C1E00000000203D
:101F0000000401203D30000008B50E4B1B6E9B07FE
:101F100000D4FBBE72B60C4B00200C4AC3F8400143
:101F200003F160430A49A3F55F2311649D46BFF3A3
:101F30004F8F4FF400130748074ADB6902609B6824
:101F4000984700BF00441F4000002E4000C00A40D8
:101F50000300200000802020000012EB104BA02086
:101F6000104AD96E41F4403110B4D96640F237645A
:101F7000D96E41F44071D96654649064936C1B0629
:101F8000FCD4094A40F23761A02351649364936CF6
:101F900013F08003FBD1054A13705DF8044B7047C2
:101FA00000C00F4000400C4000800C400227012080
:101FB000F8B500BFF8BC08BC9E46704700000000A2
:101FC0005FF800F0D9D603005FF800F0992A00000E
:101FD0005FF800F061A203005FF800F0AD2600009A
:101FE0005FF800F0AD3700005FF800F0D14100006D
:101FF0005FF800F0354300005FF800F09D29000015
:1020000045000000B10600001911000091FA00001F
:10201000256401009105020081AE0200F1B70200C3
:082020004DE102000DE4020095
:1020280080C00F40000000031900000010000000ED
:10203800E8841F4001000000FF000000FF000000CE
:102048000000000000000000180000001000000060
:10205800E4841F4001000000FF000000FF000000B2
:1020680000000000000000001F0000005D160000D6
:1020780070C00F40000C00001100000011000000AB
:10208800E0841F40020000002C0000001200000045
:10209800E0841F4001000000100000001100000053
:1020A800DC841F40020000002D0000001200000028
:1020B800DC841F40010000001E00000051160000D3
:1020C80070C00F40C00000001200000013000000A4
:1020D800D0841F4001000000FF000000FF00000046
:1020E80000000000000000001300000013000000C2
:1020F800CC841F4001000000FF000000FF0000002A
:1021080000000000000000001C0000004516000050
:10211800160355005300420020005300650072006A
:10212800690061006C000000180354006500650038
:102138006E00730079006400750069006E006F001E
:102148000403090409026200030100C032080B00FD
:102158000202020100090400000102020100052434
:1021680000100105240101010424020605240600CB
:10217800010705820310001009040100020A00008B
:10218800000705030240000007058402400000091B
:1021980004020002FF6AFF000705810240000107F0
:1021A800050102400001000009026200030100C0AD
:1021B80032080B00020202010009040000010202B9
:1021C8000100052400100105240101010424020670
:1021D8000524060001070582031000050904010013
:1021E800020A000000070503020002000705840236
:1021F8000002000904020002FF6AC7000705810205
:102208000002010705010200020100000A0600029F
:08221800EF020140010000008B
:1022200000000000000000000000000000000000AE
:10223000000000000000000000000000000000009E
:102240000548064B1B1AD90F01EBA301491002D018
:10225000034B03B118477047C0060120C006012098
:102260000000000008B5054B1BB105490548AFF358
:102270000080BDE80840FFF7E3BF00BF000000009A
:102280009025012000180660704700BF814239D0B8
:102290002DE9F041044600680D46A368D1E90067C6
:1022A0001B1AA7EB060898450ED863681A1A9045C2
:1022B00029D8B74204D0424631463AF065F8206842
:1022C00040446060BDE8F081B8F1000F31D01D4B93
:1022D000984530D8404602F091FD0546B74204D0FB
:1022E00042463146284602F0EFFC206818B1A1684A
:1022F000091A02F08BFD05EB08002560A060606004
:10230000BDE8F08170473AB131463AF03DF8D4E982
:102310000003D5E900671A1AB118B942D0D018469F
:102320007A1A3AF031F8236803EB08006060BDE8E0
:10233000F0814546D2E7B8F1000F01DA16F098FBBC
:1023400016F086FBF8FFFF7F30B52DED088BC5B08A
:1023500000234A4A044601A9494801930293039382
:10236000049305930693156801F00CFF03A94548F3
:1023700001F008FF05A9444801F004FF07A9142251
:1023800042489DED018A9DED03BA9DED05AAB7EE89
:10239000C88A9DED029A01F013FC10A914223C4852
:1023A000B7EECBBA01F00CFC19A91422394801F0A0
:1023B00007FC9DED0D0A9DED0E1A0021B7EEC00A37
:1023C0009DED152A9DED163AB7EEC11A9DED174AFF
:1023D000B7EEC22A9DED1E5AB7EEC33A9DED1F6AB5
:1023E000B7EEC44A9DED207AB7EEC55AB7EEC66A7D
:1023F0000023B7EEC77A0022B7EECAAAA160B7EEF3
:10240000C99A88208DED248B8DED340B9DED0C8ABF
:1024100000EE905AB7EEC88AB8EE600BC4E900111E
:10242000CDE92C23CDE92E23CDE930238DED220BF0
:102430008DED361B8DED382B8DED3A3B8DED3C4B04
:102440008DED3E5B8DED406B8DED427B8DED26BBC2
:102450008DED28AB8DED2A9B8DED328B02F0CEFCFD
:102460008822206085180DEB0201A56002F02CFC8B
:102470002046656045B0BDEC088B30BDDC260120F0
:10248000BC220120F82201203423012070230120E6
:1024900080230120902301202DE9F043A04DA1B01D
:1024A000A04C40F2EE28A04FDFF8E8922E6803F02F
:1024B00073FE2378002B00F024813B78DB0740F18A
:1024C00020812B68D9F800209B1A0E2B40F219812D
:1024D0000F21964803F0E2FD954802F029F995484E
:1024E0004AF0E6FA94484AF0E3FA9448944D954C41
:1024F0008F4E4AF0DDFA07E003F0D0FD304602F0DF
:1025000017F9642002F05AFB0C21284601F0F2F979
:1025100003463E212046002BEED00E218A4803F0D0
:10252000BDFD8348894D8A4C064602F001F907E05B
:1025300003F0B4FD304602F0FBF8642002F03EFBED
:102540000C21284601F0D6F903463E212046002BF7
:10255000EED00E217F4803F0A1FD75487E4D7F4CE3
:10256000064602F0E5F807E003F098FD304602F079
:10257000DFF8642002F022FB0C21284601F0BAF9B2
:1025800003463E212046002BEED00E21744803F076
:1025900085FD6748674E734D734C02F0C9F807E03C
:1025A00003F07CFD624802F0C3F8642002F006FBF1
:1025B00047213246284601F0A9FD03463C2120462A
:1025C000002BEDD10E21694803F068FD5848594EA3
:1025D000674D684C02F0ACF807E003F05FFD54482B
:1025E00002F0A6F8642002F0E9FA472132462846B4
:1025F00001F08CFD03463C212046002BEDD10E213D
:102600005D4803F04BFD4A484A4E5C4D5C4C02F07D
:102610008FF807E003F042FD454802F089F8642096
:1026200002F0CCFA47213246284601F06FFD0346FE
:102630003C212046002BEDD10E21524803F02EFD07
:102640003B4802F075F801A8FFF77EFE01A904A837
:102650004D4C00F019FA08A904F11000DDE904233B
:10266000C4E90023DDE90623C4E90223FFF70EFED7
:1026700010A904F13000DDE90C23C4E90823DDE9E9
:102680000E23C4E90A23FFF701FE13A904F13C005D
:10269000FFF7FCFD16A904F14800FFF7F7FD19A9A3
:1026A00004F15400FFF7F2FD1CA904F16000FFF7EC
:1026B000EDFD04A800F03AFA019818B10399091A3F
:1026C00002F0A4FB304904A800F058FA04212F4876
:1026D00003F0E4FC049B0221154893ED000B02F08B
:1026E00043F80E212A4803F0D9FC114802F020F8E3
:1026F000049818B10699091A02F088FB21B0BDE8C8
:10270000F0832B6822789B1B32B1B3F5FA6F3FF64A
:10271000DFAE03F041FDCAE64345FAD9D8E600BF73
:10272000DC2601200B2701200A27012044E300209A
:1027300060F1002070F10020B0F20020F0F30020E2
:102740007023012054E3002094E300208023012023
:10275000A4E30020E4E3002090230120F4E3002020
:1027600034E40020BC22012044E4002084E4002062
:10277000F822012094E40020D4E400203423012036
:10278000E4E4002024E500208808012034E500204E
:102790003CE50020EC26012070B50121B8B00D20E9
:1027A00002F060FA4FF4FA7002F008FA00210D20EE
:1027B00016AC02F057FA4FF4FA7002F0FFF913A8C2
:1027C000FFF7C2FD88220021204639F059FE139BF5
:1027D000159AD21A872A13D8882002F00FFB2146B7
:1027E0008822044602F070FA139818B11599091A54
:1027F00002F00CFB04F18803CDE9134315930EE0BE
:10280000149DEA1A872A3BD988221846214602F0ED
:102810005BFA0346149A8833934200D014932648F7
:102820009FED237BB0EE476BB0EE475BB0EE474BBE
:10283000B0EE473BB0EE472BB0EE471BB0EE470B78
:102840008DED107B8DED0E7B8DED0C7B8DED0A7B80
:102850008DED087B8DED067B8DED047B8DED027B90
:102860008DED007B00F0F4FA0421144803F016FC0F
:10287000139818B11599091A02F0C8FA38B070BD4A
:10288000A618A64208D1882422463146284602F0DE
:102890001BFA25441495C2E72146184602F014FAA3
:1028A00038AB149D9E42A3EB0604EDD10024F0E763
:1028B00000000000000000008808012034E500202E
:1028C00010B50446102102F0A1FA204610BD00BF49
:1028D000F8B52F4D2F4C304E284604F05DF82246B7
:1028E0002E4928462E4D03F077FE2E4F28222E4BE0
:1028F0004FF0FF31304600F0E5FF224629463046D2
:1029000003F06AFE294E284B28224FF0FF3138464B
:1029100000F0D8FF22462946384603F05DFE224BE0
:1029200028224FF0FF31304600F0CCFF22462946E6
:10293000304603F051FE1E4801F0E6FB1D4801F051
:10294000E3FB1D4801F0E0FB1C48002322461C4924
:10295000836183660CA7D7E90067C0E90433C0E947
:102960000267C0E90C33C0E90E33C0E91033C0E997
:102970001233C0E91433C0E91633C0E91833BDE897
:10298000F84003F029BE00BF00000000D0BCF840B2
:102990007C1F0120E8F50020702301209D470000E6
:1029A000690000008023012070F1002090230120A5
:1029B000BC220120F82201203423012088080120B4
:1029C0000D09000008467047814239D02DE9F041D9
:1029D000044600680D46A368D1E900671B1AA7EBFF
:1029E000060898450ED863681A1A904529D8B74248
:1029F00004D04246314639F0C7FC2068404460604C
:102A0000BDE8F081B8F1000F31D01D4B984530D8AA
:102A1000404602F0F3F90546B74204D0424631463B
:102A2000284602F051F9206818B1A168091A02F08D
:102A3000EDF905EB08002560A0606060BDE8F0815D
:102A400070473AB1314639F09FFCD4E90003D5E92B
:102A500000671A1AB118B942D0D018467A1A39F05C
:102A600093FC236803EB08006060BDE8F0814546F5
:102A7000D2E7B8F1000F01DA15F0FAFF15F0E8FF20
:102A8000F8FFFF7F0000000038B500230446C0E9CE
:102A90000433C0E90C33C0E90F33C0E91233C0E995
:102AA0001533C0E91833D1E900129FED1B7B521A90
:102AB00083618363882A43640365C365836680ED0D
:102AC000027B01D1204638BD154D262215492846E6
:102AD00020F056F82B6853F80C0C2844C56FBDB194
:102AE0002B7F43B195F827100D481FF0DBFF1FF037
:102AF00059FF204638BD28460AF0A0F92B680A4A3B
:102B00000A219B699342EFD0284698470146EBE79C
:102B100015F0BEFFAFF3008000000000D0BCF8400D
:102B2000941B0120DC1E0020A507000010B5044600
:102B3000006E18B1A16E091A02F068F9606D18B143
:102B4000E16D091A02F062F9A06C18B1216D091A41
:102B500002F05CF9E06B18B1616C091A02F056F9E9
:102B6000206B18B1A16B091A02F050F9206918B155
:102B7000A169091A02F04AF9204610BD0A6BCB6B15
:102B800092ED007B30B59FB00446886C8DED007BE4
:102B900092ED027B8DED027B92ED047B8DED047B4B
:102BA00093ED007B8DED067B93ED027BD3E904234F
:102BB000CDE90A23D0E900238DED087BCDE90C2374
:102BC000D0E90223CDE90E234B6D0A6ED0E9040152
:102BD000CDE91001D3E90001CDE91201D3E90201E9
:102BE000CDE91401D3E904010023CDE91601D2E9AE
:102BF0000001CDE91801D2E9020192ED047BCDE993
:102C00001A01C4E90033A36078208DED1C7B02F02B
:102C1000F5F87822694620608518A56002F054F81E
:102C2000204665601FB030BDD2E9003130B5C91A09
:102C300087B00546C9103FD000229FED237BB0EE40
:102C4000476BB0EE475B0332183313ED062B13EDE1
:102C5000043B13ED024B8A4235EE025B36EE036B0A
:102C600037EE047BEFD3B0EE084B85EE043B86EEE7
:102C7000045B87EE046B00231820AB60C5E90033CA
:102C80008DED003B8DED025B8DED046B02F0B6F82F
:102C9000EC4600F1180304462860C5E90133BCE89E
:102CA0000F0020606160A260E360BCE80300206167
:102CB0002846616107B030BD9FED036BB0EE465B07
:102CC000B0EE463BD7E700BF000000000000000068
:102CD000F0B517681C4605460E4697ED007B9FED44
:102CE000466B9FED474B9FED485B27EE066B27EE4B
:102CF000057B86EE045B2DED088B9FED45BBB0EEAA
:102D0000408B87B087EE0B9B85EE0B0B34F05CF9A4
:102D100097ED027B9FED405B9FED416BD4E9002373
:102D200027EE057BA3EB020C5FEADC0327EE000B2A
:102D300080EE067B87EE0BAB59D01346002462442D
:102D40009FED396BB3EC027BB5EEC07BF1EE10FA70
:102D500002DD36EE076B01349A42F3D1002C46D0E7
:102D600007EE904AB8EEE77B96ED005B86EE074BE8
:102D70009FED2F7B9FED306B96ED020B25EE077BD1
:102D80009FED2F1BA4EE067B86ED007B87EE000BEC
:102D900033F05AFE00231820AB60B7EE006B9FEDB6
:102DA0002A5B36EE400B88EE057BC5E900338DEDDE
:102DB000009B8DED02AB27EE007B8DED047B02F0D6
:102DC0001DF8EC4600F1180304462860C5E90133FC
:102DD000BCE80F0020606160A260E360BCE8030013
:102DE00020612846616107B0BDEC088BF0BD96ED0F
:102DF000004BB0EE445BBBE7182D4454FB21094067
:102E0000000000000080664000000000802DFB40B4
:102E100000000000D0126341000000C0F71B834196
:102E2000000000000080764000000000000000006C
:102E3000AE47E17A14AEEF3F7B14AE47E17A843FB0
:102E4000D5A45DDE875AC83F39B4C876BE9F7A3FA5
:102E50002DE9F0430025044618202DED0E8BA9B076
:102E6000B0EE408BB0EE45EBB0EE46DB0395B0EE36
:102E700044ABB0EE479B8DED161B8DED182B8DED01
:102E80001A3BCDE9015501F0B9FF0DF1580C00F1E5
:102E90001803064601900695CDE90233BCE80F0001
:102EA00030607160B260F360BCE80300CDE90455A6
:102EB0003061182071618DED1A9B8DED16EB8DED53
:102EC00018DB01F09BFF0DF1580C00F118030646CA
:102ED000049094ED0A7BCDE90533BCE80F0038EE91
:102EE000477B30607160B260F360BCE803009FED27
:102EF000CCCB9FEDCDBB71613061182087EE0C9B70
:102F000084ED0A8B01F07AFF00F1180307908046E8
:102F10000993089380ED00BB80ED02BB80ED04BBFC
:102F2000182001F06BFF00F118030A90074680EDAE
:102F300000BB80ED02BB80ED04BB1820CDE90B3354
:102F400001F05CFFB7EE006B00F1180306460D9030
:102F500094ED087B80ED00BB80ED02BB38EE477B33
:102F600080ED04BB87EE0C5BCDE90E33B4EEC65B9F
:102F7000F1EE10FAC0F26C81B0EE4A0B01AB04AA7C
:102F8000214616A8FFF7A4FE179B4046DDF858809F
:102F900008931821189B1695CDF81C801795189545
:102FA000099301F033FF169818B11899091A01F026
:102FB0002DFF256998ED006B95ED005B98ED027B88
:102FC000DDE9013236EE456BD21A88ED006B95EDE6
:102FD000026BD10837EE467B88ED027B00F0A281C0
:102FE0001A4400219FED906BB3EC027BB5EEC07BE1
:102FF000F1EE10FA02DD36EE076B01319A42F3D1A1
:10300000002900F08F8107EE901AB8EEE77B94ED6F
:10301000005B86EE074B9FED867B9FED876B94ED03
:10302000020B25EE077B9FED861BA4EE067B87EE49
:10303000000B84ED007B33F007FDB7EE007B226BC5
:10304000E36B37EE400B9FED804B95ED046B9FEDEE
:10305000743B8AEE045B98ED007B95EE006B88ED87
:10306000046B94ED084B92ED005B38EE444B37EE69
:10307000457B84EE036B87EE063B87ED003B92EDCC
:10308000025B98ED027B37EE457B87EE064B87EDC2
:10309000024B92ED047B98ED045B35EE475B85EEC9
:1030A000097B87ED047B93ED005B33EE453B83EEBC
:1030B000065B86ED005B93ED025B34EE454B84EEE0
:1030C000065B86ED025B93ED046B84ED088B37EEB7
:1030D000467B87EE096B86ED046B07A904F130008F
:1030E000FFF772FC0AA904F13C000026FFF76CFC14
:1030F0000DA904F14800FFF767FC482012969DEDEA
:103100003E7BCDE910668DED167B9DED407B8DED10
:10311000187B9DED427B8DED1A7B9DED447B8DED03
:103120001C7B9DED467B8DED1E7B9DED487B8DEDE3
:10313000207B9DED4A7B8DED227B9DED4C7B8DEDC3
:10314000247B9DED4E7B8DED267B01F057FE0546E1
:1031500016A9482248351090129501F0B5FD10AA25
:10316000214613A81195FFF75FFD159B206E15965C
:10317000DDE91312CDE91366C4E91812A16EA36646
:1031800040B1091A01F042FE13981599091A08B1C5
:1031900001F03CFE109818B11299091A01F036FEA0
:1031A000226E636D0D9892ED004B93ED005B93EDF5
:1031B000026B93ED047BA4EE095B83ED005B92ED63
:1031C000025BA5EE096B83ED026B92ED046BA6EE3C
:1031D000097B83ED047B18B10F99091A01F016FEE3
:1031E0000A9818B10C99091A01F010FE079818B145
:1031F0000999091A01F00AFE049818B10699091AEA
:1032000001F004FE019818B10399091A01F0FEFDBE
:1032100029B0BDEC0E8BBDE8F08300BFAFF300809A
:103220000000000000408F4000000000000000008F
:10323000AE47E17A14AEEF3F7B14AE47E17A843FAC
:10324000D5A45DDE875AC83F39B4C876BE9F7A3FA1
:10325000D4F83090DDE90132D9E90001D21AC8E989
:103260000001D9E90201C8E90201D1085FD01A447E
:10327000B3EC027BB5EEC07BF1EE10FA02DD3BEE63
:1032800007BB01359A42F3D1002D50D007EE905A7A
:10329000B8EEE77B94ED006B8BEE075B1FED1C7BBC
:1032A0001FED1B4B94ED020B26EE077B1FED1C1B45
:1032B000A5EE047B87EE000B84ED007B33F0C4FBAE
:1032C000B7EE007B2369A26C37EE400B1FED225B4B
:1032D00093ED047BE36B8AEE056B96EE007B88ED45
:1032E000047BD3E90001C7E90001D3E90201C7E982
:1032F0000201D2E90001C6E90001D2E90201C6E9F2
:10330000020199ED046B37EE467B87EE096B87ED82
:10331000046B93ED047B36EE476B86EE097B86EDFE
:10332000047BDAE694ED004BB0EE445B73E694ED7B
:10333000005BB0EE456BB1E710B5054C204603F0DD
:103340002BFB2046034A0449BDE8104003F044B972
:10335000801F0120E8F500209D47000000207047F5
:1033600090F8A32090F8A200101A704790F8A230AD
:1033700090F8A3209A4205D95A1C034480F8A22051
:10338000987E70474FF0FF30704700BF90F8A23032
:1033900090F8A3209A4202D91844807E70474FF0DB
:1033A000FF307047704700BF0346B0F8300178B176
:1033B00093F82F21882A03D9012200205A607047F0
:1033C00002F1010C01201A4483F82FC182F8A510E4
:1033D000704700BF38B5B0F830410CB9204638BD51
:1033E00090F82F310546C3F18904A2420DD8144646
:1033F00005F1A5002246184401F066FC95F82F312E
:103400002046234485F82F3138BD01224260EFE782
:103410002DE9F04FD0F814A01524017E8146437E9B
:1034200083B00AEB0111384A0AEB0313374F097ACC
:1034300093F8283002EB01150901E86852F8018081
:1034400002EB0311D5F804B01B01CE68D558CBF8B8
:103450000040C8F88400D8F804304A6803432C4977
:103460000192C8F804301460C5F884606B68334377
:103470006B60284B4C683A68A3FB0232920C02EB5B
:10348000820252004B681B1B9A42FBD84FF0090C7A
:103490001F4ADFF880E0D8F80830034202D0AB685A
:1034A00033422FD1C5F8886054683968AEFB0131CA
:1034B000890C01EB810153681B1B9942FBD8C5F8AD
:1034C000846054683968AEFB0131890C01EB8101DD
:1034D00053681B1B9942FBD8BCF1010CDBD1604641
:1034E00099F81830019A0AEB0313DB68CBF8003027
:1034F00099F819300AEB031ADAF82C30136003B08C
:10350000BDE8F08F0120EBE710DF00200CF1002078
:10351000001000E083DE1B430E4A10B511680469F9
:1035200005E0DB0107D413685B1A102B08D8636928
:1035300013F0007FF5D14FF4FE430120636110BD0D
:10354000FFF766FF0028FAD04FF4FE4301206361C5
:10355000F5E700BFDC2601202DE9F04790F82FA108
:103560000569BAF1000F4FD081468846FFF7D4FFB6
:10357000002849D0374E0024376818E06B691905D8
:1035800051D4DA0455D4580559D4990441D4326839
:10359000D21B322A3DD8544507D9EA6D520704D1CF
:1035A0009B0555D4B8F1000F52D002F0F5FD5445FB
:1035B000E4D8EA6D500702F00703DFD413E099F86E
:1035C000A5200133022442F48062042B2A661ED017
:1035D0008A4503F1010309EB01020ED992F8A520F7
:1035E000042B2A66CAD00121002CE8D021460133E1
:1035F00001348A4509EB0102F0D8B8F1000FBDD0C3
:103600004FF400732B66B9E70420BDE8F08701246E
:10361000B4E72B694FF40072042043F440732B612C
:103620002A66BDE8F0872B69042043F440732B61C0
:10363000EBE72B69052043F440732B61E5E72B6929
:103640004FF40072022043F440732B612A66DCE7DA
:103650000020DAE7DC2601202DE9F84F83460C46EE
:1036600015461F46D0F810A0FFF756FF002800F0BF
:103670009E806100012DDFF83C8140F20146CBB213
:103680004FF0000138BF0125D8F800900C461E43CA
:10369000ABF8A21020E09BF8A330872B3FD9DAF8D3
:1036A000142010055AD412F4105F70D1D8F80030ED
:1036B000A3EB0903322B6AD89BF8A330AB4209D3A2
:1036C000022C07D9DAF85C30590703D193054BD4A3
:1036D000002F49D002F060FD022CDCD8DAF85C3013
:1036E00003F007025B07D6D4681E224440F48070C2
:1036F0004CB9CAF860600134131B032BCBD8022CE1
:10370000C9D8002CF5D0012C37D01FB14FF400736D
:10371000CAF860309BF8A3300324872BBFD8DAF8AF
:103720005C2012F4E02FC2F3024CB8D0591C9C4428
:103730001933C9B25FFA8CFC5BFA83F3DAF87000D4
:103740004A1C61458BF8A310D1B203F8010FA6D033
:103750008929F3D1DAF814201005A4D5DAF810304D
:1037600043F44073CAF81030DAF85C3013F4E02FF9
:1037700006D19BF8A300BDE8F88FCAF86000BAE74D
:10378000DAF8103043F40073CAF81030F1E7DAF8D1
:1037900010304FF4007243F44073CAF81030CAF886
:1037A0006020DAF85C3013F4E02FE2D0E8E7042080
:1037B000BDE8F88FDC260120F8B506690446D6F886
:1037C000145115F4706301D0C6F81431A8070BD555
:1037D000D6F8702111043DD50023012184F8A230D0
:1037E000234484F8A3109A76EA0710D594F8307130
:1037F000F7B194F82E7194F82F31BB4226D97B1C77
:10380000274484F82E3197F8A530C6F86031AB050F
:103810000DD594F8A30018B1D4F83C3103B1984702
:103820000023A4F8A230A4F82E3184F83031F8BD7A
:10383000D4F8383103B19847002384F82E3101239E
:1038400084F8303194F82F31BB42D8D80023C6F821
:103850006031DCE794F8A330872BC5D8591CC9B276
:10386000BEE700BF0148FFF7A7BF00BF70F100200F
:103870000148FFF7A1BF00BFB0F200200148FFF7E9
:103880009BBF00BFF0F30020704700BF38B50C4667
:1038900020220021054604F1080038F0F1FD0B223A
:1038A0000649204639F0E2F801230321044AE36087
:1038B000AB6861612262236138BD00BF041F002034
:1038C0000AD7233C70B504461546094E002282B043
:1038D0008160066010206260019301F08FFA294632
:1038E000019A054632F0F0FF2046656002B070BDD7
:1038F0002C4900202DE9F0410F46064684B00021F6
:103900004068552532F0EAFF04E001F057F9013D27
:1039100000F0A2800121706832F0E0FF04460A2026
:10392000002CF2D003AB4FF0000801251946CDF86A
:10393000048000952A4670688DF80C8033F056F8A4
:103940009DF80C30A02B12D04FF47A7001F036F9AC
:1039500003ABCDF804802A461946009570688DF8AF
:103960000C8033F043F89DF80C30A02B74D1002567
:103970003D23022203A935734FF00108ADF80C3046
:103980000123CDE90055706832F0C4FF1E2001F01C
:1039900015F942F23F03022203A9ADF80C300123CE
:1039A000CDE90055706832F0B5FF1E2001F006F930
:1039B00001E001F003F903AB706801228DF80C50AF
:1039C0001946CDE9008533F011F89DF80C300A2036
:1039D000A02BEED1322001F0F1F83E2303A9022200
:1039E000ADF80C300123CDE90055706832F092FF3C
:1039F0000A2001F0E3F8072303A90222ADF80C30F6
:103A00000123CDE90055706832F084FF3F2303A9FC
:103A10000222ADF80C300123CDE90055706832F078
:103A200079FF0A2001F0CAF83D2203A9012370683A
:103A300037738DF80C2002228DF80D70CDE90055FA
:103A400032F068FF1E2001F0B9F8142001F0B6F83A
:103A5000204604B0BDE8F0810024204604B0BDE853
:103A6000F08100BF0000000030B587B0154600238C
:103A700004468DF80C200622083D036043608360F5
:103A8000C360036143610493486803A90193ADF8DF
:103A9000143004AB0092012232F0A8FFBDF91000EF
:103AA000BDF91210BDF91420262D2FD8DFE805F03E
:103AB000142E2E2E2E2E312E2E2E2E2E312E2E2E3A
:103AC0002E2E312E2E2E2E2E2E2E2E2E2E2E2E2E13
:103AD000142E2E2E2E2E140007EE900AB8EEE75B61
:103AE00007EE901AB8EEE76B07EE902A9FED184BA1
:103AF000B8EEE77B85EE043B86EE045B87EE046B55
:103B000084ED003B84ED025B84ED046B204607B03E
:103B100030BD07EE900A2046B8EEE75B07EE901A3C
:103B2000B8EEE76B07EE902A9FED0B4BB8EEE77B04
:103B300025EE045B26EE046B27EE047B84ED005B30
:103B400084ED026B84ED047B07B030BDAFF30080E1
:103B50000000000000005940000000000000B03FDD
:103B600070B50C4686B0054620220021201D38F095
:103B700087FC2422104B032622606846AA68294647
:103B80001B6862601A22A6602361FFF76DFF0120A7
:103B90009DED005B9DED026B9DED047BB7EEC55B7B
:103BA000B7EEC66BB7EEC77B84ED055A84ED066AA7
:103BB00084ED077A06B070BDDC260120000000000D
:103BC00070B50C468CB01546064620220021201DFB
:103BD00038F056FC24224A4B282D22601B68B2681C
:103BE00023614FF000036260CDE90033CDE9023379
:103BF000CDE9043318D0083D262D36D8DFE805F08E
:103C00003D3535353535423535353535573535352D
:103C10003535753535353535353535353535353514
:103C200035353535353538000A232A463146A36007
:103C300006AD06A8FFF718FF6E460FCD0FC69DED27
:103C4000005B9DED026B95E8030086E803009DEDA7
:103C5000047BB7EEC55BB7EEC66BB7EEC77B84EDF2
:103C6000055A84ED066A84ED077A01200CB070BD18
:103C7000092331462E22A360DAE7012331460822C8
:103C8000A360D5E7022306AD31460E2206A8A36045
:103C9000FFF7EAFEEC460FCDACE80F0095E8030015
:103CA0009DED005B9DED026B8CE80300CFE70423E4
:103CB00006AD3146142206A8A360FFF7D5FE6E4676
:103CC0000FCD0FC695E803009FED0B4B9DED005BFC
:103CD0009DED026B86E803009DED047B25EE045B01
:103CE00026EE046B27EE047BB3E7032331461A224A
:103CF000A3609DE7AFF30080000000A046DF913F86
:103D0000DC260120084A094B51681B6810B4084C96
:103D1000A4FB03439B0C03FB00F053685B1A98421F
:103D2000FBD85DF8044B7047001000E00CF1002058
:103D300083DE1B4330B482B00C4602AB03E90600BD
:103D4000C37C002B30D072B6C37CDA0708D54FF0A5
:103D5000E0214569D1F880212A408262C1F88021A2
:103D60009D0708D54FF0E0218569D1F884212A40CC
:103D7000C262C1F88421590708D54FF0E021C56916
:103D8000D1F888212A400263C1F888211A0708D592
:103D90004FF0E021056AD1F88C212A404263C1F836
:103DA0008C21DB062FD462B683689C4235D0224B2F
:103DB00084609B69214AC3F30111C3F3826352F803
:103DC00021100133B1FBF3F2CCB1944227D8B2FBFE
:103DD000F4F3B2FBF3F294422CD3B3F5817F20D3FA
:103DE000174CC460036803220020019918615A62CD
:103DF00001221C6419661A6102B030BC70479942F6
:103E0000EFD3531CE9E74FF0E022416AD2F890313A
:103E10000B408363C2F89031C5E7C468E2E7002431
:103E2000DFE7022BFBD9023B5A08140244EA0244A2
:103E30001C43D6E71A46E4E700C00F40C45A0020EE
:103E4000FF7F7F00002A00F0BD802DE9F0431F783E
:103E500083B004468946012F1D4690460CD0022FA0
:103E600005D0002F55D0002003B0BDE8F0836FF0DF
:103E7000010003B0BDE8F0835A7801465B68520048
:103E800083F8307183F8A52083F82F716868036880
:103E90001B68984739466868FFF75EFB0028E6D143
:103EA0003B465FFA88F2697809F1FF396868FFF7E5
:103EB000D3FB6868454F09EB08060368DFF81481F7
:103EC0001B69BB4220D190F8A33090F8A220981A29
:103ED0000028C8D0686803685B69434516D190F82C
:103EE000A23090F8A3209A4203F10102034467D95B
:103EF00080F8A220987E09F8010F4E45B3D068687B
:103F000003681B69BB42DED09847E1E79847C0B21F
:103F1000F1E7DB682E4E009307233046019302AB96
:103F200013E90600FFF706FF287A394600F09AFEEB
:103F300044F0800034686066E06D10F4F81FFBD038
:103F400009F1FF33626F002703EB08026766E06D3B
:103F500010F4F81FFBD0616F03F8011F9A4201D0E3
:103F60003468F3E70121287A00F07CFEF37C002B13
:103F70003FF479AFDC0704D5B16A4FF0E022C2F814
:103F80000011980704D5F16A4FF0E022C2F804113D
:103F9000590704D5316B4FF0E022C2F808111A0717
:103FA00004D5716B4FF0E022C2F80C11DB067FF5EF
:103FB0005AAFB26B4FF0E0230020C3F8102153E753
:103FC000FF2098E76FF00100704700BF411100002B
:103FD00010F100204D110000002A00F090802DE922
:103FE000F04793F8008082B082460D46B8F1010F89
:103FF0001F46164609D0B8F1020F24D0B8F1000FC1
:1040000026D0002002B0BDE8F0875A784D1E5B68CC
:10401000014652002E4483F8308183F8A52083F8AE
:104020002F81786803681B689847786815F8011F26
:1040300003681B689847AE42F7D101217868FFF703
:104040008BFA0028DDD06FF0010002B0BDE8F087E8
:10405000DB68DFF8B090009307234846019302AB7A
:1040600013E90600FFF766FE4146387A00F0FAFDD4
:10407000D9F80040C4F864A0E36D13F4F81FFBD036
:10408000691E636F0E4411F8013F6366E06D10F422
:10409000F81FFBD08E42636FF5D10121387A00F012
:1040A000E1FD99F81330002BABD0DC0705D5D9F82A
:1040B00028104FF0E022C2F80011980705D5D9F872
:1040C0002C104FF0E022C2F80411590705D5D9F899
:1040D00030104FF0E022C2F808111A0705D5D9F8C0
:1040E00034104FF0E022C2F80C11DB0689D5D9F864
:1040F00038204FF0E0230020C3F8102182E76FF052
:104100000100704710F10020704700BFA1F1460385
:10411000012B2DD8184B70B5C2610026174A012516
:1041200041760446457505768663C0E90223144A44
:1041300000F11803C0E90A66C0E90C660261436039
:1041400000F0EEF800B170BD204600F03DF8002808
:10415000F9D1214604F1280084F82A5000F04EFAE3
:104160000028F0D121462846BDE8704000F0CAB9C9
:104170006FF00B00704700BFB91D0000251C000048
:10418000E51A00000246084602F1280100F0ECB8EA
:10419000BBB138B59D681C4685B1DB6873B1236936
:1041A00063B159B1637D0BB940F080006368A847E3
:1041B0000028207518BF6FF0010038BD4FF0FF30A8
:1041C00038BD4FF0FF307047002845D0836810B5E8
:1041D000044682B0002B3CD0C368002B39D0036961
:1041E000BBB3437D5BB3012223460DF105011046AD
:1041F000FFF7CEFF08BB9DF8053083B323460122AD
:104200000DF106012820FFF7C3FFB0B99DF8063075
:1042100003F00603022B25D1234601220DF10701ED
:104220002720FFF7B5FF40B99DF80730DB0619D509
:104230009DF80530502B18D1237002B010BD01221B
:10424000034601A91046FFF7A3FF0028CBD002B018
:1042500010BD4FF0FF30F0E74FF0FF3070476FF0C8
:104260000300EAE76FF00400E7E76FF00200E4E71D
:1042700083B32DE9F8431D469B6843B3EE6836B31C
:104280002B6923B30F4611B36C7D804691466CB108
:10429000013C012C17D995F91400002818BF6FF0C4
:1042A0000100BDE8F8834C45F7D2EE6804EB080046
:1042B000391901346B680122C0B2B0472875E4B2E5
:1042C0000028F0D0E9E76B68B0472875E5E74FF0C4
:1042D000FF30E6E74FF0FF30704700BF10B584B005
:1042E0000B46012204460DF10F0137200193FFF721
:1042F0004FFF019B08B104B010BD9DF80F1004F0F2
:104300000300012261F07F040DF10F0124F003048A
:1043100020438DF80F003720FFF7AAFF04B010BD2F
:1043200030B5B62383B0044601228DF807300DF175
:1043300007017E202346FFF79BFF054630B923691E
:104340004FF4FA6061689847637D13B1284603B063
:1043500030BD012223460DF106011046FFF718FF7C
:104360000546284603B030BD70B582B00024134620
:1043700005460E46062269461D200094ADF804400D
:10438000FFF706FFB0B99DF802209DF8003043EA20
:1043900002439DF8012043EA022307EE103ABAEEE9
:1043A000C87BB7EEC77B85ED017AB378012B03D0CC
:1043B00000232B6002B070BD9DF805109DF80330FE
:1043C0009DF8042043EA014343EA022307EE103A32
:1043D000BAEECD7BB7EEC77B85ED007A02B070BD3B
:1043E000D8B10B46022210B582B00446362001A98E
:1043F000FFF7CEFE78B99DF804309DF8052003F054
:104400000701C2F384022170C3F3C201C3F3801316
:10441000E2706170A37002B010BD4FF0FF307047C2
:10442000E8B10B46022210B582B00446302001A943
:10443000FFF7AEFE9DF804309DF80520C3F3C001E0
:10444000A170C3F34011C3F38003E17002F00701D0
:10445000C2F3C20223712170627002B010BD4FF02E
:10446000FF307047002845D00B46012230B585B09B
:1044700004460D4637200DF10201FFF789FE60B9B1
:104480009DF8023003F00302022A08D0032A06D066
:10449000012A04D0DB0905D0207005B030BD2270A0
:1044A00005B030BD2B468DF80C0001220DF1030143
:1044B000CDE901001820FFF76BFE9DF8033003F0F3
:1044C00003038DF803300028E7D1294601A8FFF740
:1044D00087FF90B19DF80730182BDED99DF8033087
:1044E0009DF808109DF809200B431343D5D10423F0
:1044F0002370D2E74FF0FF307047294602A8FFF73C
:104500008FFFE7E770B582B006460D460DF1060055
:10451000FFF7A8FF044638B99DF80630002B57D1A5
:10452000032E04D8002E60D1204602B070BD042EA8
:1045300058D12B4601220DF107013720FFF728FE45
:1045400004460028F0D19DF807102B4601223720A1
:1045500001F0030141F070018DF807100DF1070122
:10456000FFF786FE04460028DED12B4601220DF11E
:1045700007013120FFF70CFE04460028D4D19DF836
:1045800007102B460122312021F03F018DF8071042
:104590000DF10701FFF76CFE04460028C4D12B463D
:1045A00001220DF107011820FFF7F2FD0446002853
:1045B000BAD19DF807402B4601220DF1070124F0E6
:1045C000030418208DF80740FFF752FE0446ABE7BE
:1045D0002946FFF783FE78B92B6940F6C410696855
:1045E00098479DE76FF006049EE72946304602B0E3
:1045F000BDE87040FFF772BE044695E730B5002372
:1046000083B0ADF8043000284BD0C3780D46044683
:10461000172B09D80DF10300FFF724FF024658B904
:104620009DF80330042B35D002222B46362001A9F9
:10463000FFF7AEFD024610B1104603B030BD9DF845
:1046400004202B46207801A902F0C00200F00700E8
:1046500002436078C00000F038000243A078E4789C
:10466000800122F04002A40000F0400004F07C042D
:1046700002439DF8050020F07C008DF80420022202
:10468000044336208DF80540FFF7F2FD0246104640
:1046900003B030BD2946FFF735FF02460028C3D0DE
:1046A000CAE74FF0FF32C7E7084601F0E1BC00BFA0
:1046B000012A70B508BF0A228AB091B34FF0210ECB
:1046C00001E05FFA86FE0EF1FF36B1FBF2F502FB68
:1046D00015145FFA84FC092C0CF137040CF1300C32
:1046E00098BF5FFA8CF40EF1280C88BFE4B29142B7
:1046F000EC4429460CF8244CE3D24BB10EF1FF3EBA
:104700002D225FFA8EFE0EF128036B4403F8242C51
:10471000036801A9CEF122025B68714498470AB090
:1047200070BD30224FF0210E8DF82520E5E700BF47
:1047300000B5036883B040F60D2C022201A95B6826
:10474000ADF804C0984703B05DF804FB054B0228A0
:1047500088BF034610B41C68184663685DF8044BB4
:10476000184700BF60F10020B4EE400B70B5F1EEC9
:1047700010FA05462DED028B86B07CD6B0EEC07BDC
:104780009FED476BB4EE467BF1EE10FA6BDC9FEDCC
:10479000467BB4EEC70BF1EE10FA5ADC9FED447B7A
:1047A000B4EEC70BF1EE10FA53D4B5EEC00B0C46C5
:1047B000F1EE10FA5BD40023B6EE007B002C5ED045
:1047C0004FF0000C9FED3C6B0CF1010C27EE067BCB
:1047D0005FFA8CF2A242F7D330EE070B0A2228468A
:1047E000FCEEC07BB8EE678B17EE901A30EE488B6C
:1047F000FFF75EFF0F2C4FF02E03B2EE046B064660
:1048000028BF0F248DF808300DF1090302AA611E9C
:1048100053FA81F128EE060BFCEEC07BCDED017A58
:104820009DF8043007EE903A3033B8EEE78B02F88B
:10483000013F914230EE488BECD12B68013402A944
:1048400028465B68E2B29847304606B0BDEC028B62
:1048500070BD2B6803221A495B6806B0BDEC028B61
:10486000BDE870401847036803221649F4E7B1EE2B
:10487000400B0123A0E7036803221349ECE730EE65
:10488000070B0A222846FCEEC07B17EE901A06B0F2
:10489000BDEC028BBDE87040FFF70ABFAFF30080AC
:1048A000FFFFFFFFFFFFEF7F000000E0FFFFEF4192
:1048B000000000E0FFFFEFC19A9999999999B93FDB
:1048C000141F0020101F00200C1F0020A249A34B22
:1048D00088422DE9F047A24C5E699A69D4F80C80B1
:1048E0001BD9A04B984240F20281C31A9E491B0A71
:1048F000A1FB031340F22761DB0903EB830303EB06
:10490000830303F2E2438B4228BF0B46A3F54877AB
:10491000964BA3FB0737FF0804E0954FB8428CBFC6
:104920000E2706278D4908F01F09D1F88030B945B8
:1049300043F0C003C1F880300CD228F01F08A1F565
:10494000F82148EA0708C1F80C800B68002BFCDA54
:1049500008F01F0916F0007324D186490C698649B6
:10496000A14300F0EA8082F4805134464FF4805530
:1049700014F0605F04D026F060561E43774B5E61F2
:1049800011F4405F07D022F4405274492A438A61EF
:104990008B6C1A07FCD446F00076704A5661936C13
:1049A0009B06FCD4754CA04200F2CE804FF0010C67
:1049B0000146634603FB011203F1010E0CF10105F0
:1049C000A24218D8BEF1080F4FF0010340F08D80CD
:1049D000BCF1040F00F291800A18A24200F2A480F8
:1049E00005FB00F1AC4603F1010E03FB01120CF1D3
:1049F0000105A242E6D90CF1FF318C0286EA812141
:104A00005F4810445F4A90427FD9DFF8A4A16C222E
:104A10005D48584DB0FBFEF0D5F800E0B0FBFCF06F
:104A2000DFF890C10EEA0C0CD44509D042F40052D4
:104A30004FF4805CC5F800C02A602A68002AFCDABE
:104A4000464A156905F007059D4203D01361936C32
:104A5000DD03FCD411F4E05F09D026F4E05604F441
:104A6000E0543E4A26435661936C9907FCD447496B
:104A7000474A014491423CD8464BC909A3FB013146
:104A8000090B4B1E1B0286EA030212F4407F06D07C
:104A900026F4407603F44073304A334353612F4A7F
:104AA000536923F000735361936C9B06FCD43A4B1B
:104AB0004F45A3FB00234FF0FF324FEA9343B0FB77
:104AC000F1F1B2FBF3F3354A1060354A1160354A13
:104AD000136008D228F01F08214A48EA0707D76068
:104AE0001368002BFCDABDE8F087734662E71227F3
:104AF00018E74FF440730421C5E70CF1FF3120485B
:104B000007238C02104486EA8121274ADFF8A8A0F7
:104B1000A2FB0020020D2548362A38BF362202FBB0
:104B200000F042EA0A0A74E74FEA8C24002386EA7E
:104B30008C214FF0010EAC4662E71D4686F0C05452
:104B400011464FF0C05313E700244FF0010C02460A
:104B500031462346E64653E700A4781F00C00F40C5
:104B6000000008400046C32323B24C001F85EB51D0
:104B700000366E0100800D4040300080FFB19F265E
:104B8000808D5B00FF7EF64D00643F4D7FD1F008C5
:104B90007F17B42C9F10E50083DE1B430CF100202F
:104BA00008F10020D4260120819F5E16001BB7006B
:104BB0006C2000807F3001800020008000B97047A9
:104BC0002DE9F84F01218146214C224D224E54E817
:104BD000003F2A68306844E80013002BF7D11F49D2
:104BE0004B684FF47A7BDFF878A01B1A01270BFB88
:104BF00002F8DAF80020A3FB02325A4594BF904431
:104C0000D84454E8003F2A68306844E80073002B19
:104C1000F7D14B68DAF800C01B1A0BFB02F2A3FBBA
:104C20000C3CBCF57A7F94BF624402F57A72A2EB29
:104C30000802B2F57A7F06D3B9F1010908F57A784E
:104C4000DFD1BDE8F88F01F0A7FA0449D9E700BF2A
:104C5000E0260120DC260120D8260120001000E0FB
:104C6000D4260120362816D80201104B03EB001081
:104C70009B5810B4C2685C68144205D061B95DF8F5
:104C8000044BC3F888207047836851B1084A5DF827
:104C9000044B1A60704770475DF8044BC3F88420DA
:104CA0007047044A5DF8044B1A60704710DF00201B
:104CB00038F001003830010008B5FDF7EDFBFDF7D5
:104CC0006BFD01F069FAFAE7844641EA000313F04C
:104CD00003036DD1403A41D351F8043B40F8043B03
:104CE00051F8043B40F8043B51F8043B40F8043BC6
:104CF00051F8043B40F8043B51F8043B40F8043BB6
:104D000051F8043B40F8043B51F8043B40F8043BA5
:104D100051F8043B40F8043B51F8043B40F8043B95
:104D200051F8043B40F8043B51F8043B40F8043B85
:104D300051F8043B40F8043B51F8043B40F8043B75
:104D400051F8043B40F8043B51F8043B40F8043B65
:104D500051F8043B40F8043B403ABDD2303211D305
:104D600051F8043B40F8043B51F8043B40F8043B45
:104D700051F8043B40F8043B51F8043B40F8043B35
:104D8000103AEDD20C3205D351F8043B40F8043B05
:104D9000043AF9D2043208D0D2071CBF11F8013B03
:104DA00000F8013B01D30B8803806046704700BFC9
:104DB000082A13D38B078DD010F003038AD0C3F1D8
:104DC0000403D21ADB071CBF11F8013B00F8013BBA
:104DD00080D331F8023B20F8023B7BE7043AD9D379
:104DE000013A11F8013B00F8013BF9D20B7803704E
:104DF0004B7843708B7883706046704734F00EBAFE
:104E000034F00CBA34F012BA34F010BA34F00EBAEE
:104E100001F1FF3C70B56646002400E00134B0FBB0
:104E2000F2F502FB1503092B03F1370E03F13003F2
:104E30005FFA8EFE98BF5FFA83FE9042284606F81E
:104E400001EFEBD2631C0022C818CA547CB1624641
:104E50001CF8015F10F8016DA1EB0C0302328CF815
:104E60000060013B521A057023449A42EFDB08466A
:104E700070BD00BF72B6EFF30583524CC4F88430A6
:104E80001EF0040F0CBFEFF30882EFF309824FF01E
:104E9000E0234D4E4D4DD3F8280DD3F82C1DC4E919
:104EA0002201D3F8341DD3F8383DC4E924139369A3
:104EB000C4F89830D369C4F89C3000F0DDF884ED74
:104EC000280A01F00FFB0B214FF0FF32C4F8A400B9
:104ED0000B46C4F880103E49301D5A40202402F091
:104EE0000103013C01FB03F383EA5202F7D1A8421C
:104EF00002D073680646EFE7324BC3F8A820BFF331
:104F00004F8F4FF0E0233049324AC3F8701FC3F887
:104F1000702FBFF34F8FBFF36F8F2F4A02252F489B
:104F2000D36E2F4943F44053D3660560D3692D48AF
:104F300023F07F0343F04003D3610B6883423DD8E5
:104F4000264D00214FF0E0234FF0FF32296001266B
:104F5000C5F808112449C5F80011C5F80861C3F85F
:104F60008021C3F88421C3F88821C3F88C21C3F8B9
:104F7000902101E000F072F9D5F80C31002BF9D046
:104F80000134C5F80C614F2CF4D9184B0220184994
:104F90004FF00042C1F840015A63D5F80C313BB9DB
:104FA000144815490D4A0163D2F80C31002BFAD090
:104FB0004FF0E023114AC3F80C2DFEE7FFF786FC03
:104FC000BEE700BF00FF272080FF2720A8FF272083
:104FD0002083B8EDA0FF272000C00F40004008400C
:104FE0000CF10020803DCD0B009F240000900D406F
:104FF00000002E4000800F40F100AD0B0400FA05C8
:105000000A490A6838B108B513180948834204D818
:1050100010460B6008BD104670473AF097FA0C2313
:105020004FF0FF320360104608BD00BFC4F50020FA
:1050300000002820002070474FF0FF30704700BF6D
:105040004FF4005300204B60704700BF01207047B1
:105050004FF0FF30704700BF30BFFDE70078B0FA77
:1050600080F04009704700BF01230370704700BF04
:1050700030BFFDE7FFF7FEBE124AD2F880305B0773
:10508000FBD5D2F880301048C3F30B230F4990EDC5
:10509000007A07EE903A91ED006AB8EE477A0C4A32
:1050A000F8EEE77A0B4BD2ED006A77EEC77A93ED14
:1050B000007AB8EE477A67EE867A87EEA60A37EE70
:1050C000400A704700810D40E4250120EC250120B5
:1050D000F0250120E8250120836BF0B41BB1536853
:1050E00043F40043536072B6446B3CB31A4B2260E6
:1050F000D3F8B0410C421DD1184E776804E07468B3
:10510000E41BB4F5166F0BD2D3F8404144F480444D
:10511000C3F84041D3F8B851D3F840416404EED508
:105120000D4007D10C4CC0E90225D4F8B0310B4337
:10513000C4F8B031426362B6F0BC7047064DC0E9B6
:105140000224D5F8B0310B43C5F8B0310263426395
:1051500062B6F0BC704700BF00002E40001000E0B7
:1051600070B5056B9DB106462A46002403E012681F
:105170000134012A0CD0536813F08003F7D0326356
:105180002CB12846B36B2D689847013CF9D170BD0E
:10519000C6E90C33F4E700BF30B4D9B91F4C204B3B
:1051A0000021204A01254FF0011099601D60C4E9DB
:1051B000023180245C60C2F8BC01D2F8B0311A48D8
:1051C0002B43C2F8B0310160D2F8B031002BFBD1D3
:1051D00030BC70470904154B104C012541F080018B
:1051E0009860104A596000F580511D60D96000F543
:1051F0000051A364196100F5405100F580405961E8
:1052000000219861E164D2F8B03143F48033C2F8F0
:10521000B031D2F8B031002BFBD1C0E70000002044
:10522000C006012000002E40A8230120E006012036
:10523000084901220B7802FA00F023EA0000087006
:1052400030B9054AD2F8483123F08003C2F848311A
:10525000704700BF0627012000002E402DE9F04FC7
:10526000974C83B0D4F84471FB07C4F8447153D50C
:10527000D4F8AC21002A4AD0924EDFF860A2DFF8C1
:105280007492DFF874B2DFF87482C4F8AC21D6E906
:105290000A20D4F8403143F40053C4F84031D4F824
:1052A00040319D04F5D5D4F8403123F40053C4F8BF
:1052B00040314FF00113C4F8B431D4F8B45115F0B3
:1052C0000115FAD193B28446CAF80050B3F5086FBD
:1052D00000F0CF8100F2DB8040F202318B4200F01F
:1052E000E78100F29A80822B00F0CB81B3F5817FB9
:1052F00040F08A8010F0780F83B200F003824FF004
:105300000113C4F8C031D4F8AC21002ABDD16C4AD5
:10531000D2F8BC31002B42D17E0616D5684BD3F8AB
:10532000AC21C3F8AC21D3F8BC21C3F8BC21D3F81D
:10533000B041002CFBD14FF0FF32C3F8B421D3F8B9
:10534000843100F02DFD604B1C60FC0103D55F4BE8
:105350001B6803B19847B80103D55D4B1B6803B1C7
:105360009847790708D5564BD3F8843113F4007366
:1053700047D0584B01221A70514BD3F848311A06C6
:105380000AD53B0608D5544A13782BB1013BDBB252
:105390001370002B00F0728203B0BDE8F08F4F490C
:1053A000C2F8BC310868034240F0D181464A146813
:1053B0001C40B1D05FEA144810D0424E4FF00109B2
:1053C00098FAA8F5B5FA85F506EBC51009FA05F5C2
:1053D0004030FFF7C5FE38EA0508F1D1A4B2002C31
:1053E0009AD0384E4FF0010894FAA4F5B5FA85F535
:1053F00006EBC51008FA05F5FFF7B2FEAC43F3D192
:105400008AE7344A1370B7E7802B7FF478AF3448CB
:1054100002210580FFF7C0FE75E7B3F5A06F00F02D
:105420000B81A3F5D063012B3FF669AF2D4B5D686F
:10543000002D3FF464AF1FFA8CFC4FEA124E04E0DB
:105440001D690C33002D3FF45AAF1A887245F7D10D
:105450005A886245F4D14FEA1E22032A00F0A58142
:105460001A89000C824228BF0246BEF5007F40F038
:10547000A181184B1C4918781C4B0192002818BFB9
:1054800019461B48FFF720FC194D019AE1E142F251
:1054900021218B427CD033D942F221318B4200F062
:1054A00081804FF6C0018B427FF429AF10F47F4F0B
:1054B00083B27FF424AF43F46E4363F30F0CB5E77C
:1054C00000002E4000000020AC230120F026012027
:1054D000F42601200C2701200D270120A8230120FC
:1054E000AC25012010EE00204C210060B0210060AE
:1054F00000002020A02301205DCFC6B8C0012E40AF
:10550000B3F5106F66D042F221018B427FF4F7AE03
:10551000030C072B7FF4F3AEB24BB349F560D960AF
:10552000B249B360C3F80890C1E9002001221A60B3
:10553000AF4A5A60AF4A1A61D4F8B01141F0010184
:10554000C4F8B01102F5805102F5005259619A6118
:10555000D4F8B031002BFBD1A74AF3649360012348
:10556000B264136048F2800353604FF00113C4F833
:10557000BC31D4F8B03143F48033C4F8B0314FF4C7
:105580008033CAF80030D4F8B031002BFBD1BAE632
:1055900080B238B9994BC2F307421968984B196029
:1055A000984B1A70944B00229A60F2640122B36403
:1055B0001A6080225A604FF00113C4F8BC31D4F84D
:1055C000B03143F48033C4F8B031D4F8B031002B9B
:1055D000FBD198E6C2F307428B4B1A708B4BC4F891
:1055E000C8318B4BC4F8CC318A4BC4F8D03100F0B1
:1055F000D9FB80222946884836F042FF874B80221B
:10560000C6F8A0B0C6F8E0307B4BF5645A600122C2
:10561000B3649D601A604FF00113C4F8BC31D4F834
:10562000B03143F48033C4F8B031CAF80050D4F834
:10563000B031002BFBD166E66F4B0121F564196098
:1056400080219D60B36459604FF00113C4F8BC31F0
:10565000D4F8B03143F48033C4F8B031D4F8B03169
:10566000002BFBD1130C5B0643F08073C4F854315C
:1056700049E6654B01216A481B780370FFF78CFDF2
:1056800041E683B210F078007FF439AE03F07F0278
:1056900058F82210624A1080180600F19E80CB074D
:1056A00001D50123137002215D48FFF775FD2AE63D
:1056B00010F0780F83B27FF422AE03F07F0213F074
:1056C000800F58F8223014BF43F4803343F00103B5
:1056D00048F822300022484BF2649A600122B364F9
:1056E0001A6080225A604FF00113C4F8BC31D4F81C
:1056F000B03143F48033C4F8B031D4F8B031002B6A
:10570000FBD100E603F07F0213F0800F58F822303F
:1057100014BF23F4803323F0010348F82230002221
:10572000354BF2649A600122B3641A6080225A6099
:105730004FF00113C4F8BC31D4F8B03143F48033D6
:10574000C4F8B031D4F8B031002BFBD1DBE5002038
:10575000086026490C88486842F221018C427FF497
:1057600025AE80B200287FF421AE2E492E4C03C90D
:10577000A18086284FEA11412060A1717FF416AE06
:1057800072B62A48017841F008010170D2F8481138
:105790000D0605D480200143C2F84401C2F8481127
:1057A00062B6234A5021117000E6000C2A7882422A
:1057B00028BF0246BEF5E06F44D11E4B1E4D18783F
:1057C0001E491F4B0192002818BF19462846FFF7B3
:1057D0007BFA07236B70019A3BE0C9033FF561AF89
:1057E00061E700BFE0060120A0330120800801200E
:1057F00080000700A0430120C0060120DC26012014
:10580000EC2601200A2701200B2701200200CC00F2
:10581000C80002000200C800800000201993D5745F
:10582000AC250120A0230120E42601200627012029
:105830000D2701200C27012000002020B02100604E
:105840004C2100602946104D01922846FFF73CFA92
:10585000019A25F01F031544BFF34F8F4FF0E0214D
:10586000C1F8703F20339D42FAD8BFF34F8FBFF38A
:105870006F8F05481146FFF78FFC44E50320FFF7C3
:10588000D7FC47F011F900BF000020202DE9F047B8
:105890001F46831E022B01D9BDE8F087DFF84C902C
:1058A00015460C463C2209EBC01806464FEAC01AC2
:1058B000002108F10400240436F0E2FDB5FA85F277
:1058C0000123520944EA427449F80A40C8F8387082
:1058D000C8F80830002FDFD0034AB34011680B43EB
:1058E0001360BDE8F08700BFAC230120000000205A
:1058F0002DE9F0470D46811E022901D9BDE8F08748
:10590000C701DFF84C909246044640373C22002104
:105910001E4609EB07082D0408F1040036F0B0FD1F
:10592000BAFA8AF2520945EA427249F8072001227E
:10593000C8F83860C8F80820002EDFD0034B1034B8
:105940001968A2400A431A60BDE8F087AC23012021
:105950000000002012048160C36101F5405342F051
:10596000800210B40124426001F50052046001F588
:10597000805401F58041C46081615DF8044BC0E949
:1059800004237047831E0A46022B00D97047064B3A
:1059900000F110014FF0010C03EBC0100CFA01F103
:1059A0004030FFF799BB00BF00000020831E0A466D
:1059B000022B00D970470121024B814003EBC0103C
:1059C000FFF78ABB0000002040687047124A134B63
:1059D000D2F8200220F07F40984210B584B002D265
:1059E00000EB800040000E4C01A90A22FFF710FADC
:1059F00001A90023204611F8012B01333AB10A2BEB
:105A000020F8022FF7D11623237004B010BD5B00DD
:105A1000DBB2237004B010BD00441F408096980094
:105A20008403012000F0DCBA00F0ACBA00F010BB37
:105A300000F0CABA00F066BB00F03CBB0846114655
:105A400000F02CBBF8B5144C4FF0E025134E4FF48A
:105A5000003204EB4024124F06EB40160346C5F813
:105A60008C2121463A883046FFF774FF3B88234457
:105A7000BFF34F8FC5F85C4F2034A342FAD8BFF371
:105A80004F8FBFF36F8F03203146FFF78FFF4FF427
:105A90000033C5F80C31F8BD80002020000701203C
:105AA000F8260120244B2DE9F0411C884368C56984
:105AB000C3F30E43E41A002C24DD204920480A7861
:105AC0000078D3B21F4E82421F4807D010F80380DF
:105AD00036F81870C7F50072944218D901330022C5
:105AE00026F81540082B194E88BF134626F81520B6
:105AF00098BFDAB2C554164B0A701A6814441C6079
:105B0000BDE8F0812846BDE8F041FFF79BBF07EBF9
:105B10004820104922462744084401EB4521FFF75D
:105B2000D3F80B4A284626F8187013682344BDE8BA
:105B3000F0411360FFF786BFF826012004270120FB
:105B400005270120B8250120D8250120C8250120DE
:105B5000B4250120800020201D4B1A78002A36D160
:105B600002F0FF031B4A12788AB32DE9F0411A4D67
:105B70002A8852B3194EC2F50068194F3278194C71
:105B800007EB421704EBC224424638462146FFF792
:105B9000E1FE04EB0802BFF34F8F4FF0E023C3F8A0
:105BA000704F2034A242FAD8BFF34F8FBFF36F8FEC
:105BB00004203946FFF7E6FE33780133DBB2032BCE
:105BC00088BF0023337000232B80BDE8F08170472D
:105BD000092701200B270120FA2601200827012090
:105BE00000080120801020202DE9F04F85B0CDE97C
:105BF0000110002900F0BF800023604CDFF898817D
:105C0000DFF898A15E4F009301235E4A23705E4B3C
:105C10001978B8F8003002EB4119002B40F0A7804A
:105C20001E461D469B464846FFF7CEFE10F08000FC
:105C300000F08C80BFF34F8F9AF8003084F800B0EA
:105C400005B93E68002B7DD13B689B1B782B00F289
:105C500087804E4B1B78002B74D000F09DFA0122F8
:105C6000B8F8003015462270002BDCD0464AC3F548
:105C7000006011781A4600EBC120454DC902284446
:105C8000019D954217D20393DDE901512A46FFF7A2
:105C90001BF8039B4FF040425B1BA8F800303D4BC4
:105CA000C3F88420BFF34F8F00980023284423704B
:105CB00005B0BDE8F08F364BCD180299FFF704F818
:105CC00000234FF4006229464846FFF743FEBFF326
:105CD0004F8F05F1200205F50063934234BF012385
:105CE00040234FF0E02205EB4313C2F8705F2035EC
:105CF000AB42FAD1BFF34F8FBFF36F8F04204946F9
:105D0000FFF740FE204A13780133DBB2032B84BF38
:105D100000231D4A1370B8F80030019AD11A009A76
:105D20001A4401910092029A1A4400230292194ADD
:105D3000A8F80030C2F88430BFF34F8F23700029D9
:105D40007FF462AF009805B0BDE8F08F4FF40062B9
:105D50000D4B8AF8000019781346A8F800208AE74E
:105D6000012300988AF8003005B0BDE8F08F1A468C
:105D7000C3F500607FE70198E5E700BF0927012030
:105D8000DC26012000080120082701200B27012024
:105D90008010202000002E40FA2601200727012035
:105DA000704700BF2D4B002180222D4870B51B7815
:105DB00000242C4D8B422C4E0CBF40234FF400731B
:105DC0002B80338036F05CFB284A2146284B147028
:105DD0004FF4807227481C8036F052FB264A10216F
:105DE000264B0220C2E90044C2E90244244AC3E926
:105DF00000441470234AC3E90244234B1C70234619
:105E000014602246FFF774FD2246318803201F4BA1
:105E1000FFF73CFD2346012229880420FFF768FD97
:105E200020460134FFF70EFE082CF9D1184B002153
:105E30004A221848184C0460C3F88410C3F8802024
:105E4000D3F84821154942F08072C3F8482121B1A6
:105E5000134A137843F00103137070BD0C2701201F
:105E600000080120FC260120F82601200827012037
:105E7000FA26012000070120B8250120C8250120AD
:105E800004270120B42501200527012085380000C2
:105E900000002E40F02601203939000000000000EB
:105EA0000E2701202DE9F04F4FF0E0234FF4003290
:105EB000DFF8C8A083B0C3F88C218B469AF8004065
:105EC00000294FD08046E4B20027DFF8B490264B7B
:105ED000ABEB070225491B78A34204F101043FD034
:105EE000092C234B404628BF00241E5D39F816C0FC
:105EF0000CEB462319441F4B33F81650A5EB0C0549
:105F0000AA421CD20CEB462C18491B4C614401924E
:105F1000FEF7DAFE216839F816505846019AA1EBCF
:105F20000B012A44394429F8162021604FF0E02360
:105F30004FF40032C3F80C2103B0BDE8F08F2A46BD
:105F40002F44FEF7C1FE0C49E3B230460A68A8446C
:105F5000521B0A608AF80030FFF774FDBB45B6D8C3
:105F60003846E3E70846E1E70427012080002020C7
:105F7000D8250120B8250120B425012005270120BE
:105F8000C82501200B4B0C4A12781978D3B28A42EB
:105F90000DD0013309480A4A092B0A4928BF0023BA
:105FA000C35C31F8131002EB4323585C70474FF089
:105FB000FF3070470427012005270120D825012044
:105FC00080002020C8250120044B10B51C680CB1AE
:105FD000204610BD00F0E0F8204610BDB425012099
:105FE0002DE9F84F144E154D33782A78934221D07D
:105FF000DCB2DFF85090DFF850B0DFF85080104F7F
:106000000134082C5FFA84FA01D90024A24619F859
:106010000400DBF8003038F8102037F81010521A5E
:106020009B1ACBF80030FFF70DFD86F800A02B7807
:10603000A342E5D1BDE8F88F052701200427012000
:10604000C8250120D8250120B4250120B82501202C
:1060500000B583B001210DF10700FFF723FF20B148
:106060009DF8070003B05DF804FB4FF0FF30F9E73F
:10607000094B00B583B01B788DF807003BB10121B7
:106080000DF10700FFF7B0FD03B05DF804FB03F06E
:10609000FF0003B05DF804FB0B270120044B1B78C5
:1060A00003F0FF020BB1FFF79FBD1046704700BF22
:1060B0000B2701202DE9F0410024DFF84480012363
:1060C0000D4D27460D4E88F8003033782846203590
:1060D000A34204F1010405D0FFF776FC030658BF84
:1060E00007F50067042CF0D1BFF34F8F002338462B
:1060F00088F80030BDE8F081000801200827012061
:10610000092701202DE9F8431D4B1B7813B11D4DC4
:106110002A880AB9BDE8F8831B4EC2F500691B49FD
:1061200033784A461A4C01EB43181A4F04EBC32448
:10613000012340463B7021460023FFF70BFC04EB94
:106140000902BFF34F8F4FF0E023C3F8704F2034A4
:10615000A242FAD8BFF34F8FBFF36F8F042041469E
:10616000FFF710FC33780133DBB2032B88BF002329
:10617000337000232B80BFF34F8F3B70BDE8F88353
:106180000B270120FA260120082701200008012002
:1061900080102020092701202DE9F8432D4B1E787F
:1061A00066B12D4F3B784BB90123F1073B7043D4C7
:1061B000B20726D400233B70730701D4BDE8F883EF
:1061C000264B1A68002AF9D0EFF30582002AF5D190
:1061D000EFF3108572B61868002834D0204C21786F
:1061E000002930D10122227042691A60002A2ED083
:1061F000916105B962B60025836845779847257097
:10620000DCE7DFF8648098F80030002BD2D000255E
:10621000DFF858902B4659F8234001352368204673
:106220001B69984710B163699B68984798F80020EC
:10623000EBB29A42EFD8BDE7FFF7C6FE0028B7D011
:10624000AFF30080B4E7002DB8D162B6B6E7054BD6
:106250001A60CEE70E2701200027012040180120F8
:10626000FE2601204C180120FF26012040190120A4
:10627000EFF3108272B6437F5BB9017F012930B41E
:106280000BD0032913D00123437702B962B630BC87
:1062900070470AB962B670477047124C2168B1B1B5
:1062A000114943610B68086083615861EBE70F4D4A
:1062B0000F492C688CB143610B68836158614FF0C2
:1062C000E0234FF080540860C3F8044DDBE7064B31
:1062D00020601860C0E90511D5E7C0E905442860D1
:1062E000EDE700BF401801204C180120481801209C
:1062F0004418012090F81CC04160BCF1020FC2603C
:1063000001D183681847FFF7B3BF00BF70B5EFF343
:10631000108272B60C4C206880B10C4E0025436987
:10632000236073B19D6102B962B68368457798476F
:10633000EFF3108272B620680028F0D102B962B67D
:1063400070BD3360EFE700BF4818012044180120FA
:10635000FFF7DCBF0449054A4968054B196013681B
:1063600001331360704700BF001000E0DC260120FD
:10637000D826012000230F2248F2B82C194610B568
:106380004FF470444FF4806EA0F88C414FF4604499
:10639000A0F88E210A46A0F89031B0F888319BB25F
:1063A00043F0F003A0F8883101EB4103013100EB29
:1063B000431304299C80A3F806E05A841A865A8065
:1063C0005A81A3F80EC05A82DA825A83DA83EBD15B
:1063D000B0F888319BB243F00F03A0F88831B0F8D1
:1063E00088319BB243F47063A0F8883110BD00BFC0
:1063F000374B384A996F384841F47F0170B5996737
:1064000041F20106D3F8801045F6C05543F2260448
:106410000A43C3F88020FFF7ADFF00F58040FFF787
:10642000A9FF00F58040FFF7A5FF00F58040FFF7CA
:10643000A1FF0022A0F503104FF00F0E114600EB54
:1064400042134FEA421C01329981042A5981A3F870
:106450000EE09E82DD8020F80C1019829C81EED126
:1064600000221E484FF00F0E41F20106114645F67C
:10647000C05543F2260400EB42134FEA421C01329E
:106480009981042A5981A3F80EE09E82DD8020F8CC
:106490000C1019829C81EED1002211480F2641F286
:1064A0000105114645F6C05443F2260E00EB421397
:1064B0004FEA421C01329981042A5981DE819D8272
:1064C000DC8020F80C101982A3F80CE0EED170BD2E
:1064D00000C00F40000003FC00C03D4000001E4013
:1064E00000401E40074A506A936A19468446506A23
:1064F000936A9942F9D18445F7D1DB0B43EA4040D6
:10650000704700BF00400D4008B5D0E900325BB1D4
:10651000BAB10F4BA3FB0213DB0803EB4303B2EB4F
:1065200083030AD1012008BD094BA3FB0213DB083A
:1065300003EB4303B2EB830301D0D21A4260F02A8B
:10654000F0D839F003F81C22034600201A6008BD79
:10655000ABAAAAAA70B5044638B319B1B2FA82F64A
:106560007609A2B9206800B36268F2B1184B1949E4
:1065700002FB03F3B1EBB30F17D3A368E3B9002217
:10658000012322606260A260E260184670BD1D4671
:10659000049BC0E90012C360FFF7B6FF0346002862
:1065A000F3D06DB90123184670BD38F0CFFF162225
:1065B00000230260184670BD002135F061FFDEE760
:1065C000626831462068A56035F05AFF0123DCE798
:1065D000ABAAAAAA5555551503460846194638F0E0
:1065E00071BF00BF2DE9F04FD04FD14D3968DFF8B2
:1065F0009093D04B8E68DFF84C83DFF888B300248B
:1066000083B00122C5E90094C5E90244C5E9044408
:10661000AC6105F11C001A7001F094F83B682E6221
:106620004FF0FF3A5B68C8F80090C8E90144C8E938
:106630000344C8E90544C5F824A008F11C00C5F8C6
:1066400000B0019301F07EF8019BBB4EC8F82030EA
:106650003B68C6F80090C6E90144DB68C8F824A08E
:10666000C6E90344C6E9054406F11C00C8F800B0B9
:10667000DFF8FC92019301F065F8019BDFF80883D5
:10668000C6F800B0C6E9083AA9F10406484608F180
:10669000140A12F053FBC6E91F44C6E921442946F7
:1066A0007467A6F8784049F8048C4846C6F804A0F8
:1066B00012F0DEFAA14C204612F040FBA04B44F849
:1066C000083C143323600023C4E91E33C4E920339B
:1066D0002367A4F8743044F8043C20469949083CE8
:1066E00012F0C6FA984DA5F10409284612F026FBCF
:1066F0000023C9E91F33C9E921338F4945F8048CC8
:106700002846C9F804A0C9F87430A9F8783012F006
:10671000AFFADFF868B2ABF10405584612F00EFB91
:106720000023C5E91F33C5E9213383494BF8048CA5
:10673000C5F804A058466B67A5F8783012F098FAAF
:10674000D9F81030814DDFF844B2A66743F4005306
:10675000C9F810303B68C9F8746000249E68AC61C9
:10676000C5E900B4C5E90244C5E9044405F11C00CB
:1067700000F0E8FFDFF8E8813B682E624FF0FF3958
:10678000DFF80CA25B68C5F800A0C5F82490C8F833
:1067900000B0C8E90144C8E90344C8E9054408F168
:1067A0001C00019300F0CEFF019B694EC8F8203019
:1067B0003B68C6F800B0674FD3F80CB0C8F8249017
:1067C000C8F800A0C6E90144C6E90344C6E9054487
:1067D00006F11C0000F0B6FFDFF8B881C6F800A093
:1067E000C6E908B9384612F0A9FA294608F1140991
:1067F0003D1FC5E91D44C5E92044C5E9224447F8C9
:10680000048C384685F87C40C5F8049012F080FA74
:10681000514C204612F092FA504B44F8083CA4F137
:1068200008061433B3600023C6E91E33C6E92133DA
:10683000C6E923334A4986F880302046736012F057
:1068400067FA484F3C1F384612F078FA0023C4E933
:106850001D33C4E92033C4E922333D4947F8048C91
:106860003846C4F8049084F87C3012F051FADFF80E
:1068700008A1AAF10407504612F060FA0023C7E904
:106880001D33C7E92033C7E9223331494AF8048C64
:10689000C7F80490504687F87C3012F039FA324934
:1068A00022690B68B56742F40052013322616567C3
:1068B0000B6003B0BDE8F08F2C4B73602C4812F0D6
:1068C00079FA27F0B9F82B4B7B602B4812F072FA5B
:1068D00027F0B2F8274B6360224812F06BFA27F0DA
:1068E000ABF8244BB3601C4812F064FA27F0A4F80C
:1068F000204B6B60174812F05DFA27F09DF81B4B98
:106900006B601E4812F056FA27F096F8174BC9F83C
:1069100004300D4812F04EFA27F08EF8134BA360A6
:10692000064812F047FA27F087F800BF74FB0020F2
:10693000A01801209A030120781801200C1B0120C7
:10694000F451002050180120981B01201819012033
:10695000F0180120F01E0120401D0120AC53002042
:10696000C8180120D01D0120D01A01204C5A002047
:10697000B01C01205C5A0020601E0120241C012054
:106980000C540020904A00201C5200204C5400203F
:10699000D04A0020D4530020074A1368591C1160C4
:1069A00003B1704700B583B00190FFF71BFE01985B
:1069B00003B05DF804FB00BFD01A0120114A136830
:1069C000591E022B10B50446116001D0204610BD9F
:1069D0000D481BF0E7FF0D481BF0E4FF0C481BF0CF
:1069E000E1FF0C481CF002FA0B481CF0FFF90B48C1
:1069F0001CF0FCF9204610BD27F0A6F927F0E2F9BB
:106A0000E4E700BFD01A0120AC1C0120941B012038
:106A1000201C0120EC1E0120CC1D01205C1E012049
:106A2000704700BF10B50446FEF7ECF9204610BDD4
:106A3000044A0B6812680360934202D01A6801325C
:106A40001A607047501A01200160704710B5054C5C
:106A5000206800B110BD02460349204628F02CFBF7
:106A6000206810BD581A0120A42800200048704753
:106A7000A428002070B505464068E8B1AB68CBB1EA
:106A8000304E002403E0AB680134A34211D950F822
:106A90002420002AF8D05368591E012B5160F2D1EE
:106AA00013685B68B342104637D1FEF7ABF96868EC
:106AB000E9E708B1FEF7A8F9E868E8B1AB68CBB13F
:106AC000204E002403E0AB680134A34211D950F8F2
:106AD0002420002AF8D05368591E012B5160F2D1AE
:106AE00013685B68B342104619D1FEF78BF9E8686A
:106AF000E9E708B1FEF788F92B6963B1002418595A
:106B000010B1FEF781F92B690434182CF7D113B1B9
:106B10001846FEF779F9284670BD9847C7E79847A9
:106B2000E5E727F011F927F04DF9C0E727F00CF958
:106B300027F048F9DBE7013102D127F093F8FAE7B3
:106B400026F07AFF0548000038B50A4B05681B6837
:106B50009D42044604D02B685A1E012B2A6001D0A6
:106B6000204638BD2846FFF785FF2846FEF74AF93C
:106B7000204638BD501A01200F4B1A680B6893420B
:106B800070B50E46044602D01868013018602568BA
:106B9000AA4204D02A68501E012A286002D023602D
:106BA000204670BD2846FFF765FF2846FEF72AF904
:106BB00033682360204670BD501A0120002A00F07F
:106BC000E5802DE9F04F0C6883B00546164624B9E0
:106BD000A94B1C6801341C600C60AB68671E013B4C
:106BE000BB425CD204F103086FF06043984534BFA8
:106BF0004FEA880A4FF0FF3A5046D5F804B0FEF746
:106C0000FFF88146A86868B16B6803EB800CA9F1B6
:106C10000402043BACF1040C53F8041F42F8041FB7
:106C20009C45F9D1804507D9A8EB0002920009EBF9
:106C30008000002135F024FC5046D5F80CA0FEF76A
