:0200000460009A
:100000004643464200000156000000000103030081
:1000100000000000000000000000000000000000E0
:1000200000000000000000000000000000000000D0
:1000300000000000000000000000000000000000C0
:1000400000000000010408000000000000000000A3
:100050000000800000000000000000000000000020
:100060000000000000000000000000000000000090
:100070000000000000000000000000000000000080
:10008000EB04180A063204260000000000000000FD
:10009000050404240000000000000000000000002F
:1000A0000000000000000000000000000000000050
:1000B0000604000000000000000000000000000036
:1000C0000000000000000000000000000000000030
:1000D00020041808000000000000000000000000DC
:1000E0000000000000000000000000000000000010
:1000F0000000000000000000000000000000000000
:10010000D8041808000000000000000000000000F3
:100110000204180804200000000000000000000095
:1001200000000000000000000000000000000000CF
:10013000600400000000000000000000000000005B
:1001400000000000000000000000000000000000AF
:10015000000000000000000000000000000000009F
:10016000000000000000000000000000000000008F
:10017000000000000000000000000000000000007F
:10018000000000000000000000000000000000006F
:10019000000000000000000000000000000000005F
:1001A000000000000000000000000000000000004F
:1001B000000000000000000000000000000000003F
:1001C000000100000010000001000000000000001D
:1001D000000001000000000000000000000000001E
:1001E000000000000000000000000000000000000F
:1001F00000000000000000000000000000000000FF
:10020000FFFFFFFFFFFFFFFFFFFFFFFFFFFFFFFFFE
:10021000FFFFFFFFFFFFFFFFFFFFFFFFFFFFFFFFEE
:10100000D10020434D1600600000000000000000E9
:101010002010006000100060001806600000000052
:10102000000000600024060000000000FFFFFFFF3A
:10103000FFFFFFFFFFFFFFFFFFFFFFFFFFFFFFFFC0
:10104000FFFFFFFFFFFFFFFFFFFFFFFFFFFFFFFFB0
:10105000FFFFFFFFFFFFFFFFFFFFFFFFFFFFFFFFA0
:10106000FFFFFFFFFFFFFFFFFFFFFFFFFFFFFFFF90
:10140000814205D051F8043B40F8043B8242F9D8B0
:10141000704700BF044A05494FF0000342F8043BFF
:101420009142FBD8704700BFC00A0120402B012029
:101430002DE98848BFF34F8F00BF00BF00BF00BF3A
:1014400000F0D6F9684B0822C3F8542100BF00BF52
:1014500000BF00BF00BF00BF00BF00BF00BF00BF94
:1014600000BF00BF00BF00BF00BF00BF5F4A6049B0
:101470006048FFF7C5FF604A60496148FFF7C0FF59
:10148000604CFFF7C7FF4FF470004FF0E0210023DE
:101490005D4AC1F8880D44F823200133B02BFAD1FE
:1014A0005A4B80215A4A03F8011B9342FBD14FF05B
:1014B000E0254D4E4FF08039DFF884B1DFF884A18C
:1014C0004FF0FF31C5F8084D0027C6F80491C6F863
:1014D00000B1C6F8F490C6F8F0A0D5F8243DDFF8C6
:1014E000688143F4E0234B4AC5F8243DD8F81C300A
:1014F00023F07F0343F04003C8F81C30D8F82430B1
:1015000023F07F0343F04003C8F824309166D1668E
:101510001167516700F074F93F4B4049A363404B9A
:10152000E36363236B610323AF612B613D4BC5F81C
:10153000203DD5F8FC3D43F08073C5F8FC3D3A4BA7
:101540001A6842F001021A605B680B6000F0A2FBAF
:10155000C6F804913548C6F800B1C6F8F490C6F84C
:10156000F0A000F031FDD8F86C10314B314A41F455
:101570004051C8F86C101F60C3F80871C3F81871A7
:10158000C3F82871C3F83871936BDB0708D442F6AF
:101590001563294951651365936B43F00103936308
:1015A000244A264C936843F00113936000F0B0F98D
:1015B00000F0D4FC00F010FD00F09AFB00F01AF9E6
:1015C0002368132BFCD900F02BFC2368B3F5967F1E
:1015D000FBD300F013F900F00FF900F009FD00F063
:1015E000F7FC30BFFDE700BF00800D4070E704004E
:1015F0002022006000000000C00A0120940905605C
:1016000000000020000801203D30000000E400E060
:10161000A0E400E000C00A4019450000D82A0120DB
:101620001D45000000002020001000E00046C323FC
:101630000040084000400D400000C056DC2A012058
:101640001B1018200C0D111300C00F40054B4FF458
:101650002A01054A05485A641864054A9963954663
:10166000FFF7E6FE00C00A40FFFFAFAA0700200018
:101670000000032043690A4A03EB011010B4037A07
:10168000084C02EB0313D3E901321460C2681A60FC
:1016900003690BB142691A605DF8044B704700BFE3
:1016A000CCDF002061F801004369027E03EB0212E7
:1016B00092F808C08C451CD01A7AFF2A19D09142A2
:1016C00010B5044616D01A7EFF2A06D00121D3E9B0
:1016D000002312681A4201D1217610BD064B052263
:1016E000204603EB0C135B681A60FFF7C3FF2176FB
:1016F000F3E770470021EAE7CCDF002043690A4A9C
:1017000003EB011010B490F82830084C02EB0313DF
:10171000D3E901321460C26A1A60036B0BB1426BE9
:101720001A605DF8044B7047CCDF002061F80100BF
:101730004369427E03EB021292F828C08C451ED00A
:1017400093F82820FF2A1AD0914210B5044617D0EA
:1017500093F83820FF2A06D00121D3E9002312682C
:101760001A4201D1617610BD064B0522204603EBDB
:101770000C135B681A60FFF7C1FF6176F3E77047EF
:101780000021EAE7CCDF0020164942698B6B23F485
:101790007C0343F4802370B58B630446124DD2E979
:1017A00000130A681A4303690A60022200211A61C1
:1017B0000E4A19619A6401225A629D624FF43035D3
:1017C000DD624FF001159E6C1E6519629D651A6100
:1017D000017EFFF74FFF617E2046BDE87040FFF7B6
:1017E0008DBF00BF00C00F40B80B05053B3728195F
:1017F000704700BF704700BF704700BF00BF704711
:1018000010B44FF0E023002110243148C3F8941D98
:10181000C3F89C4D1124C3F8A00D2E48C3F89C4D6D
:101820001224C3F8A00D2C48C3F89C4D2B4AC3F8D2
:10183000A00D2B4C42F015022A48C3F89C4DC3F86A
:10184000A00D294C2948C3F89C4DC3F8A00D284C85
:10185000C3F89C2D2748284AC3F8A04DC3F89C0D17
:10186000C3F8A02D02F5A022244C0C322448C3F862
:101870009C4DC3F8A02D234AC3F89C0D224CC3F8FD
:10188000A02D02F14062C3F89C4D2048C3F8A02D62
:101890000C32C3F89C0DC3F8A02D00BF00BF00BFE1
:1018A00000BF00BF0122C3F8942DBFF34F8FBFF3D9
:1018B0006F8FC3F8501FBFF34F8FBFF36F8FD3F8F5
:1018C000142D5DF8044B42F44032C3F8142D7047D8
:1018D0003F0000102500080709001000402B0120E0
:1018E0001300200021000207140000202500081327
:1018F000090000101600202027000B1317000040DD
:10190000180000602F000B07190000701A000080FB
:10191000F0B5B84B1822B84E0120B84F83B0C3F8C9
:101920005C62B749C3F86072B64DC3F86462A6F54D
:101930003046B54CC3F86862C3F86C52C3F87052B5
:10194000C3F87452C3F8785248F20C75DA661A6715
:101950005A679A67DA67C3F88020C3F88420C3F80F
:101960008820C1F82C03A94AC1F83003C1F8340318
:10197000C1F83803C1F83C03C1F85003A169A44B76
:101980000A40A448A4491343A44AA361D4F884306C
:1019900043F00C03C4F884304FF0FF34036843F085
:1019A0000203036003682B404FF400551A439C4B1D
:1019B000026044608A689B4C13409B4A43F000538A
:1019C0008360C36823F07803C360036A1340234332
:1019D0000362036A1340954A2343954C4362826233
:1019E000C2620022D1F8B83023F03F0343F0010374
:1019F000C0F8B830D1F8BC308E4923F03F0343F033
:101A00000103C0F8BC3040F205630261056604675B
:101A1000C0F88030456644670224C0F8843003680B
:101A200023F0020303608161834B8449C46143F85E
:101A3000042B8B42FBD1774A136843F001031360F8
:101A4000136813F00103FBD17A48022140F2F564D8
:101A5000906140F29940D16140F26641C2F8004283
:101A600042F20144C2F810127549C2F82002C2F8CD
:101A7000301240F235417348C2F83442C2F8401285
:101A8000714CC2F8500242F201207049C2F854125F
:101A90000121C2F86042C2F864025E48C2F8A03078
:101AA000C2F8A430C2F8B0104369DA07FCD50123AC
:101AB00000244FF4803257494361C0F8A040C0F879
:101AC000A420C0F8B0304B69DB07FCD5012300240B
:101AD0004FF400304F4A4B61C1F8A040C1F8A40058
:101AE000C1F8B0305369DF07FCD501230024584802
:101AF00048495361C2F8A040C2F8A400C2F8B0300F
:101B00004B69DE07FCD5D1F8003145F60D52212096
:101B10009BB24861934265D100244FF48022012397
:101B20003C48C1F8A040C1F8A420C1F8B0304369D6
:101B3000DD07FCD501234FF400040021354A436141
:101B4000C0F8A040C0F8A410C0F8B0305369DC075A
:101B5000FCD501234FF400044FF480302D4953612C
:101B6000C2F8A040C2F8A400C2F8B0304B69D80750
:101B7000FCD501234FF400044FF40030254A4B619B
:101B8000C1F8A040C1F8A400C1F8B0305369D9072A
:101B9000FCD501234FF400042D481E495361C2F8BF
:101BA000A040C2F8A400C2F8B0304B69DA07FCD5F7
:101BB000D1F8003145F60D5221209BB24861934285
:101BC00050D008254FF4000422490020224B234A1C
:101BD000009015705A1A01232148224400F004FA9B
:101BE00003B0F0BD1E4B0022C3E90022C3E902226C
:101BF00003B0F0BD00801F40F9B00100F9100100F2
:101C000000841F40F970010000C00F40FFFCFF1F5F
:101C1000000300A000402A4000802A401200FFFF7D
:101C2000FF37F7004000008000FFF07CFF000F83CB
:101C300063000200F05AF05A00422A4000432A4052
:101C40009F041830EB06180A3806180A06320126D7
:101C5000040003000000007000000070032B01204E
:101C6000B42701204FF400044FF4802201230848D8
:101C7000C1F8A040C1F8A420C1F8B0304369DB0727
:101C8000FCD5012310254FF0807443619CE700BF11
:101C900000402A40F0B4154A40274FF480314FF4F9
:101CA00080564FF400554FF4404443F2420013690C
:101CB00013F0020F0ED113F4005F0FD013F4805F06
:101CC0000ED0002BF3DA13F4803F0BD15B060BD55B
:101CD000F0BC7047946151619061E8E75561E6E7B7
:101CE0005661E4E79161E2E75761E0E700800D406B
:101CF0003F4A03203F49F3EE095AD2F880304FF0B3
:101D0000000C9FED3D6A23F001039FED3C5A30B477
:101D1000C2F88030C2F89000D1F8E010384DCBB254
:101D2000384C39482B6007EE903A0B0DC1F30B216C
:101D3000F8EEE77A06EE903A07EE101A334BB8EE5B
:101D4000C77A2160F8EEE66A314937EEC66A37EEA7
:101D5000C55A76EEC76A77EEE57A26EE266AC3EDB7
:101D6000006A25EE265AD2F8803067EEA64AC0ED0A
:101D7000007AC6EE275A274885EE276AC4EEA76A7E
:101D800075EE875AFCEEE55A36EE076A15EE904A74
:101D9000BCEEC66A43EA045376EE877AC2F8803016
:101DA00016EE103AD2F89041FCEEE77A01EA0341D0
:101DB000214317EE903AC2F89011C3F30B03D2F807
:101DC00090110B431449C2F89031D2F8803043F09F
:101DD0000203C2F88030114B80F840C0C1F8403196
:101DE0004FF0E023012230BCC3F80821704700BF48
:101DF00000810D4000441F400000AA420000B44290
:101E0000E8290120E4290120EC290120F029012002
:101E10000000FF0F00E400E0000801203D32000058
:101E2000314B40F6617210B5C3F8202140F20444F2
:101E300000F0E2F82D4A2E49D2F880302D4843F0C8
:101E40000303C2F880302C4BC1F8604102681A428B
:101E500003D1D1F8A8319A071BD0254A4FF0004191
:101E6000244B5963D2F8403143F00203C2F84031A9
:101E7000D2F840319B07FBD44FF400304FF0E02103
:101E80001C4B4FF00042C1F88C0219209A6300F0FD
:101E9000A7F8184A4FF08040154C002190630A20A3
:101EA000164B11604FF42072C4F8A801184600F0D8
:101EB00087F84FF4800203464FF4810040F243114B
:101EC0001860C4F858311A640D4B0E4AC4F8481112
:101ED000C3F804224FF0E0224FF400310123C2F88E
:101EE0000C11C4F8403110BD00800D4000C00F40FF
:101EF00000002E4000900D40001C1E00000000203D
:101F0000000801202534000008B50E4B1B6E9B070E
:101F100000D4FBBE72B60C4B00200C4AC3F8400143
:101F200003F160430A49A3F55F2311649D46BFF3A3
:101F30004F8F4FF400130748074ADB6902609B6824
:101F4000984700BF00441F4000002E4000C00A40D8
:101F50000300200000802020000012EB104BA02086
:101F6000104AD96E41F4403110B4D96640F237645A
:101F7000D96E41F44071D96654649064936C1B0629
:101F8000FCD4094A40F23761A02351649364936CF6
:101F900013F08003FBD1054A13705DF8044B7047C2
:101FA00000C00F4000400C4000800C40022B01207C
:101FB000F8B500BFF8BC08BC9E46704700000000A2
:101FC0005FF800F0A1A703005FF800F0952A000079
:101FD0005FF800F0812E00005FF800F0B9450000C6
:101FE0005FF800F0852D00005FF800F01D4700004D
:101FF0005FF800F019DC03005FF800F0953B00008B
:1020000045000000310900000115000079FE0000C4
:102010000D68010079090200C1B3020031BD020060
:082020008DE602004DE902000B
:1020280080C00F40000000031900000010000000ED
:10203800E8841F4001000000FF000000FF000000CE
:102048000000000000000000180000001000000060
:10205800E4841F4001000000FF000000FF000000B2
:1020680000000000000000001F000000451A0000EA
:1020780070C00F40000C00001100000011000000AB
:10208800E0841F40020000002C0000001200000045
:10209800E0841F4001000000100000001100000053
:1020A800DC841F40020000002D0000001200000028
:1020B800DC841F40010000001E000000391A0000E7
:1020C80070C00F40C00000001200000013000000A4
:1020D800D0841F4001000000FF000000FF00000046
:1020E80000000000000000001300000013000000C2
:1020F800CC841F4001000000FF000000FF0000002A
:1021080000000000000000001C0000002D1A000064
:10211800160355005300420020005300650072006A
:10212800690061006C000000180354006500650038
:102138006E00730079006400750069006E006F001E
:102148000403090409026200030100C032080B00FD
:102158000202020100090400000102020100052434
:1021680000100105240101010424020605240600CB
:10217800010705820310001009040100020A00008B
:10218800000705030240000007058402400000091B
:1021980004020002FF6AFF000705810240000107F0
:1021A800050102400001000009026200030100C0AD
:1021B80032080B00020202010009040000010202B9
:1021C8000100052400100105240101010424020670
:1021D8000524060001070582031000050904010013
:1021E800020A000000070503020002000705840236
:1021F8000002000904020002FF6AC7000705810205
:102208000002010705010200020100000A0600029F
:08221800EF020140010000008B
:1022200000000000000000000000000000000000AE
:10223000000000000000000000000000000000009E
:102240000548064B1B1AD90F01EBA301491002D018
:10225000034B03B118477047C00A0120C00A012090
:102260000000000008B5054B1BB105490548AFF358
:102270000080BDE80840FFF7E3BF00BF000000009A
:102280009029012000240660704700BF0000000074
:1022900030B52DED108BD1B00023C14A04460D4658
:1022A000C0480DA90D930E930F93109311931293A1
:1022B00092ED00BA02F05AF90FA9BB4802F056F9A4
:1022C00011A9BA48B8EE4BBB02F050F9DDED0E7A19
:1022D000142213A9B648B7EEE7CA9DED0DAA9DEDED
:1022E0000F9A9DED118A01F05FFE14221CA9B148DE
:1022F000B7EECAAA01F058FE142225A9AE4801F093
:1023000053FE9DED1A5ADDED215AB7EEC99AB7EE8C
:10231000C5FA9DED226AB7EEE55ADDED236ADDEDE3
:10232000187AB7EEC88A9DED2A7AB7EEE7DADDEDC6
:102330002B7A9DED2C4ADDED194A8DED005BB7EE51
:10234000C65AB7EEE66AB7EEE4EA8DED046BB7EE77
:10235000C76AB7EEE77A8DED025B8DED087BB7EECD
:10236000C47A8DED066B8DED0A7B002D74D10721AB
:10237000924804F087F8B0EE4A0B0221904802F030
:10238000E7FB05218F4804F07DF807218E4804F013
:1023900079F8B0EE490B0221894802F0D9FB0521FA
:1023A000884804F06FF80721884804F06BF8B0EE15
:1023B000480B0221824802F0CBFB0521814804F042
:1023C00061F87F4802F0A8FB002100230022A160F1
:1023D00088209DED007BC4E90011CDE938238DED07
:1023E000447B9DED027BCDE93A23CDE93C238DED85
:1023F000467B9DED047B8DED2EBB8DED30AB8DEDE1
:10240000487B9DED067B8DED329B8DED348B8DED04
:102410004A7B9DED087B8DED3EDB8DED40EB8DED38
:102420004C7B9DED0A7B8DED42FB8DED4E7B9FED50
:10243000587B3CEE077B8DED367B02F0D3FE882285
:102440002EA920608518A56002F032FE2046656046
:1024500051B0BDEC108B30BD06215D4804F012F880
:10246000B0EE4B0B0221564802F072FB0521594891
:1024700004F008F80721514804F004F8B0EE4A0BC4
:1024800002214F4802F064FB05214E4803F0FAFF99
:1024900007214D4803F0F6FFB0EE490B02214848F2
:1024A00002F056FB0521474803F0ECFF072147489F
:1024B00003F0E8FFB0EE480B0221414802F048FB70
:1024C0000521404803F0DEFF0D21434803F0DAFF09
:1024D000B0EE4C0B02213A4802F03AFB04213F488F
:1024E00003F0D0FF0E213E4803F0CCFF0221344818
:1024F0009FED290B02F02CFB02213A4803F0C2FFAA
:102500000F21394803F0BEFF02212D489FED220B19
:1025100002F01EFB0221334803F0B4FF0E213348C2
:1025200003F0B0FF022126489FED1B0B02F010FBC9
:1025300002212C4803F0A6FF08212D4803F0A2FF3A
:10254000B0EE4D0B02211E4802F002FB022125488D
:1025500003F098FF0821274803F094FFB0EE4E0BDC
:102560000221174802F0F4FA02211E4803F08AFF04
:102570000821214803F086FFB0EE4F0B02211048DE
:1025800002F0E6FA0E4802F0C7FAF0E6AFF3008078
:10259000666666666612714000000000000000007A
:1025A000DC2A0120BC260120F82601203427012046
:1025B000702701208027012090270120EC1E002099
:1025C00088F20020F41E0020FC1E0020041F0020C2
:1025D000DC1E0020E41E00200C1F00201C1F002019
:1025E000241F0020341F0020381F0020481F002017
:1025F000581F0020641F0020701F00202DE9F043A9
:10260000994D97B0994C40F2EE28994FDFF8C89257
:102610002E6803F0B5FF2378002B00F016813B787D
:10262000DB0740F112812B68D9F800209B1A0E2B92
:1026300040F20B810F218F4803F024FF8E4802F0F7
:102640006BFA8E484AF0D0FC8D484AF0CDFC8D489C
:102650008D4D8E4C884E4AF0C7FC07E003F012FF08
:10266000304602F059FA642002F09CFC0C21284606
:1026700001F034FB03463E212046002BEED00E2114
:10268000834803F0FFFE7C48824D834C064602F0EF
:1026900043FA07E003F0F6FE304602F03DFA64200C
:1026A00002F080FC0C21284601F018FB03463E2175
:1026B0002046002BEED00E21784803F0E3FE6E4852
:1026C000774D784C064602F027FA07E003F0DAFE71
:1026D000304602F021FA642002F064FC0C21284606
:1026E00001F0FCFA03463E212046002BEED00E21DD
:1026F0006D4803F0C7FE6048604E6C4D6C4C02F0B4
:102700000BFA07E003F0BEFE5B4802F005FA642016
:1027100002F048FC47213246284601F0EBFE034612
:102720003C212046002BEDD10E21624803F0AAFE89
:102730005148524E604D614C02F0EEF907E003F053
:10274000A1FE4D4802F0E8F9642002F02BFC47217D
:102750003246284601F0CEFE03463C212046002B9F
:10276000EDD10E21564803F08DFE4348434F554EA0
:10277000554D02F0D1F907E003F084FE3E4802F027
:10278000CBF9642002F00EFC47213A46304601F0B6
:10279000B1FE04463C212846002CEDD10E214B48C9
:1027A00003F070FE344802F0B7F94FF47A7002F08B
:1027B000F9FB214613A8FFF76BFD139B4448D3E9AF
:1027C000204593ED0E7B93ED0C6B93ED0A5B93ED3F
:1027D000084B93ED063B93ED042B93ED021B93ED19
:1027E000000BCDE91045D3E91E45CDE90E45D3E9EF
:1027F0001C45CDE90C45D3E91A45CDE90A45D3E995
:102800001845CDE90845D3E91645CDE90645D3E994
:102810001445CDE90445D3E91245CDE90245D3E994
:102820001023CDE9002300F027FE139818B1159965
:10283000091A02F0DFFC0E21264803F023FE0E48A1
:1028400017B0BDE8F04302F067B92B6822789B1BF4
:1028500032B1B3F5FA6F3FF6EDAE03F091FED8E674
:102860004345FAD9E6E600BFDC2A01200B2B012004
:102870000A2B012078E4002088F2002098F2002042
:10288000D8F3002018F500207027012088E40020EC
:10289000C8E4002080270120D8E4002018E50020AB
:1028A0009027012028E5002068E50020BC260120B3
:1028B00078E50020B8E50020F8260120C8E50020D2
:1028C00008E600203427012018E6002058E6002002
:1028D000880C012068E60020EC2A012000B50121C7
:1028E0000D202DED028B99B002F0B0FB4FF4FA7081
:1028F00002F058FB00210D2002F0A8FB4FF4FA7003
:1029000002F050FB002112A8FFF7C2FC129B7A488C
:1029100093ED208B93ED0E7B93ED0C6B93ED0A5BA7
:1029200093ED084B93ED063B93ED042B93ED021BC7
:1029300093ED000B8DED108B93ED1E8B8DED0E8BBB
:1029400093ED1C8B8DED0C8B93ED1A8B8DED0A8B1B
:1029500093ED188B8DED088B93ED168B8DED068B1B
:1029600093ED148B8DED048B93ED128B8DED028B1B
:10297000D3E91023CDE9002300F01EFB5E4915A822
:1029800000F06EFA04215D4803F07CFD159B0221E6
:102990005B4893ED000B02F0DBF80521594803F08A
:1029A00071FD159B0221564893ED020B02F0D0F801
:1029B0000521554803F066FD159B0221504893ED13
:1029C000040B02F0C5F80621504803F05BFD159B8F
:1029D00002214B4893ED060B02F0BAF806214C4851
:1029E00003F050FD159B0221454893ED080B02F0C2
:1029F000AFF80621474803F045FD159B02214048EA
:102A000093ED0A0B02F0A4F80621434803F03AFDC7
:102A1000159B02213A4893ED0C0B02F099F8062120
:102A20003E4803F02FFD159B0221354893ED0E0B18
:102A300002F08EF806213A4803F024FD159B02218E
:102A40002F4893ED100B02F083F80621354803F070
:102A500019FD159B02212A4893ED120B02F078F81C
:102A60000621314803F00EFD159B0221244893ED09
:102A7000140B02F06DF806212C4803F003FD159BA2
:102A800002211F4893ED160B02F062F80621284838
:102A900003F0F8FC159B0221194893ED180B02F086
:102AA00057F80621234803F0EDFC159B022114483A
:102AB00093ED1A0B02F04CF806211F4803F0E2FCDC
:102AC000159B02210E4893ED1C0B02F041F80C48B7
:102AD00002F022F8159818B11799091A02F08AFB2A
:102AE000129818B11499091A02F084FB19B0BDECC0
:102AF000028B5DF804FB00BF880C012074E300200A
:102B000088F200207CE3002084E300208CE3002096
:102B100094E300209CE30020A4E30020ACE3002029
:102B2000B4E30020BCE30020C4E30020CCE3002099
:102B3000D4E30020DCE30020E4E3002010B50446E9
:102B4000102102F057FB204610BD00BF000000001E
:102B5000F0B5454C93B0454D454E204604F010F974
:102B60002A4644492046444C03F02AFF434F28227A
:102B7000434B4FF0FF31304601F098F82A4621468A
:102B8000304603F01DFF3F4E3D4B28224FF0FF31F2
:102B9000384601F08BF82A462146384603F010FFEC
:102BA000374B28224FF0FF31304601F07FF82A469C
:102BB0002146304603F004FF334801F099FC3348C6
:102BC00001F096FC324801F093FC324C00239FED5B
:102BD000227B23A1D1E900018DED067B8DED047BE5
:102BE0008DED027B8DED007BB0EE476BA361A3669C
:102BF000B0EE475BB0EE474BB0EE473BB0EE472B35
:102C0000B0EE471BB0EE470BC4E90201C4E9043340
:102C1000C4E90C33C4E90E33C4E91033C4E91233F8
:102C2000C4E91433C4E91633C4E9183320468DEDE2
:102C3000107B8DED0E7B8DED0C7B8DED0A7B8DED8C
:102C4000087B00F019FC2A461349204613B0BDE862
:102C5000F04003F0B5BE00BF00000000000000001F
:102C600000000000D0BCF8407C23012010F70020B9
:102C700070270120854B000069000000802701209B
:102C800098F2002090270120BC260120F826012080
:102C900034270120880C0120F10B00000846704702
:102CA000814239D02DE9F041044600680D46A36801
:102CB000D1E900671B1AA7EB060898450ED8636890
:102CC0001A1A904529D8B74204D04246314639F005
:102CD000FBFD206840446060BDE8F081B8F1000F62
:102CE00031D01D4B984530D8404602F07BFA05465E
:102CF000B74204D042463146284602F0D9F920684E
:102D000018B1A168091A02F075FA05EB08002560F0
:102D1000A0606060BDE8F08170473AB1314639F09B
:102D2000D3FDD4E90003D5E900671A1AB118B942F6
:102D3000D0D018467A1A39F0C7FD236803EB080093
:102D40006060BDE8F0814546D2E7B8F1000F01DAD6
:102D500016F082F816F070F8F8FFFF7F2DE9F041C9
:102D60008368551AD0F8008004460E461746A3EB38
:102D700008039D421AD9244B9D4242D845B32846A8
:102D800002F030FA8046B74204D02A463146404627
:102D900002F08EF9206818B1A168091A02F02AFA27
:102DA0004544C4E90085A560BDE8F0814368A3EB14
:102DB000080295420ED88F4204D02A46404639F088
:102DC00083FD636845449D42EED06560BDE8F081B7
:102DD000A846D8E78D18A94203D0404639F074FDC3
:102DE0006368AF42A7EB050609D01846294632466C
:102DF00039F06AFD034633446360BDE8F081002684
:102E0000F9E7024816F060F8F8FFFF7F3429002048
:102E100010B50446006E18B1A16E091A02F0EAF965
:102E2000606D18B1E16D091A02F0E4F9A06C18B1F7
:102E3000216D091A02F0DEF9E06B18B1616C091A14
:102E400002F0D8F9206B18B1A16B091A02F0D2F97F
:102E5000206918B1A169091A02F0CCF9204610BD09
:102E60000A6BCB6B92ED007B30B59FB00446886C4B
:102E70008DED007B92ED027B8DED027B92ED047B6C
:102E80008DED047B93ED007B8DED067B93ED027B56
:102E9000D3E90423CDE90A23D0E900238DED087B93
:102EA000CDE90C23D0E90223CDE90E234B6D0A6E48
:102EB000D0E90401CDE91001D3E90001CDE9120107
:102EC000D3E90201CDE91401D3E904010023CDE9DE
:102ED0001601D2E90001CDE91801D2E9020192ED13
:102EE000047BCDE91A01C4E90033A36078208DED9D
:102EF0001C7B02F077F97822694620608518A5606E
:102F000002F0D6F8204665601FB030BD000000001A
:102F1000D2E9003130B5C91A87B00546C9103FD093
:102F200000229FED237BB0EE476BB0EE475B033290
:102F3000183313ED062B13ED043B13ED024B8A42BD
:102F400035EE025B36EE036B37EE047BEFD3B0EE6B
:102F5000084B85EE043B86EE045B87EE046B002392
:102F60001820AB60C5E900338DED003B8DED025BB1
:102F70008DED046B02F036F9EC4600F118030446BF
:102F80002860C5E90133BCE80F0020606160A260E1
:102F9000E360BCE8030020612846616107B030BDF2
:102FA0009FED036BB0EE465BB0EE463BD7E700BF4C
:102FB00000000000000000002DE9F04F2DED108B07
:102FC000AFB0B0EE47BB054618201CAEB0EE45FBD7
:102FD000B0EE46EB0024B0EE408BB0EE44CB9DED5E
:102FE0004E7B8DED203B8DED1C1B8DED007B9DED13
:102FF000507B8DED1E2B9DED48AB8DED027B9DED45
:10300000527B9DED4A9B9DED4CDB8DED047B9DED50
:10301000547B8DED067B9DED567B8DED087B9DED04
:10302000587B8DED0A7B02F0DDF881460FCEC9F8A2
:103030000000C9F80410C9F80820C9F80C3003CE04
:103040001CAEC9F810001820C9F814108DED20BB73
:103050008DED1CFB8DED1EEB02F0C4F882460FCE09
:10306000CAF80000CAF80410CAF80820CAF80C30E0
:1030700003CE95ED0ABBCAF810001820CAF8141048
:1030800085ED0A8B02F0AEF800F1180306460D90AC
:10309000046044608460C460046144611820CDE928
:1030A0000E3302F09FF800F1180310908046046080
:1030B00044608460C460046144611820CDE9113328
:1030C00002F090F8D5F830B000F1180304604460C5
:1030D00007468460B7EE003BC46009F11802046142
:1030E000446113909FED806BDBE900019FED804B05
:1030F000B0EE465BCDE91433C6E900014B46DBE98F
:103100000201C6E90201B3EC027BB4EEC47BF1EE2E
:1031100010FA03DD35EE075B36EE036B9342F2D116
:10312000B5EE406BF1EE10FA00F0D98085EE060B9B
:10313000002438EE4B8B95ED027B9FED6D6B9FED80
:103140006E1B85ED000B80EE070B88EE06BB33F09F
:103150001BFF2B690DA9AA6C05F13000B7EE006BBF
:103160009FED677B36EE400B8CEE076B93ED047B97
:10317000EB6B96EE007B86ED047B93ED006B88EDA8
:10318000006B93ED026B88ED026B92ED006B87EDA7
:10319000006B92ED026B87ED026B9BED046B37EEDB
:1031A000467B87EE0B6B88ED046B93ED047B36EE6C
:1031B000477B87EE0B6B87ED046BFFF771FD10A962
:1031C00005F13C00FFF76CFD13A905F14800FFF77E
:1031D00067FD482018949DED007B8DED1CAB8DEDB7
:1031E0001E9B8DED227B9DED027B8DED20DBCDE9DD
:1031F00016448DED247B9DED047B8DED267B9DEDAE
:10320000067B8DED287B9DED087B8DED2A7B9DED6A
:103210000A7B8DED2C7B01F0E5FF06461CA94822B8
:1032200048361690189601F043FF294619A816AAA9
:103230001796FFF76DFE199B286E2B661A9BA96ED9
:103240006B661B9B19941A941B94AB6640B1091AC8
:1032500001F0D0FF19981B99091A08B101F0CAFFB3
:10326000169818B11899091A01F0C4FF2A6E6B6DEF
:10327000139892ED004B93ED005B93ED026B93ED91
:10328000047BABEE045B83ED005B92ED025BABEE87
:10329000056B83ED026B92ED046BABEE067B83ED69
:1032A000047B18B11599091A01F0A4FF109818B100
:1032B0001299091A01F09EFF0D9818B10F99091A79
:1032C00001F098FF5046182101F094FF182148465C
:1032D0002FB0BDEC108BBDE8F04F01F08BBF95ED2A
:1032E000000B25E7AFF300800000000000000000A5
:1032F0000000000000408F40D5A45DDE875AC83F23
:1033000039B4C876BE9F7A3FF0B517681E460546A9
:103310000C4697ED007B9FED446B9FED454B9FED79
:10332000465B27EE066B27EE057B86EE045B2DEDF4
:10333000088B9FED43BBB0EE408B87B087EE0B9BB5
:1033400085EE0B0B34F0E0F897ED027B9FED3E5BD2
:103350009FED3F6BD6E9002327EE057BA3EB020C24
:103360005FEADC0327EE000B80EE067B87EE0BABFB
:1033700054D013466244B7EE003B9FED376B9FED90
:10338000384BB0EE465BB3EC027BB4EEC47BF1EE9F
:1033900010FA03DD35EE075B36EE036B9A42F2D18D
:1033A000B5EE406BF1EE10FA38D085EE067B94ED69
:1033B000020B9FED2D1B84ED007B87EE000B33F09D
:1033C000E3FD00231820AB60B7EE006B9FED285B98
:1033D00036EE400B88EE057BC5E900338DED009B92
:1033E0008DED02AB27EE007B8DED047B01F0FAFE44
:1033F000EC4600F1180304462860C5E90133BCE837
:103400000F0020606160A260E360BCE803002061FF
:103410002846616107B0BDEC088BF0BD94ED007BE0
:10342000C5E700BFAFF30080182D4454FB210940CD
:10343000000000000080664000000000802DFB407E
:1034400000000000D0126341000000C0F71B834160
:103450000000000000807640000000000000000036
:103460000000000000408F40D5A45DDE875AC83FB1
:1034700039B4C876BE9F7A3F70B5044618202DED4A
:103480000E8B96B0B0EE438BB0EE44BBB0EE45DB96
:1034900010ADB0EE46CBB0EE41ABB0EE429BB0EE1D
:1034A00047EB84ED0A0B84ED080B8DED143B8DED9D
:1034B000101B8DED122B01F095FE8646844600F11F
:1034C0001806B7EE003B9FED8E6B0FCD9FED8E4B38
:1034D000B0EE465BCEF80000CEF80410CEF808201F
:1034E000CEF80C3003CDCEF81000CEF81410BCECA2
:1034F000027BB4EEC47BF1EE10FA03DD35EE075B20
:1035000036EE036B6645F2D1B5EE406BF1EE10FA84
:1035100000F0E28085EE067B00267046182184EDDF
:10352000007B01F067FE182003968DED0ADB8DED20
:103530000CCB8DED0EEBCDE9016601F053FE0DF1E4
:10354000280C00F11803054601900696CDE90233D8
:10355000BCE80F0028606960AA60EB60BCE803006B
:103560008DED10AB2861182069618DED129B8DEDFA
:10357000148BCDE9046601F035FE0DF1400C00F12D
:10358000180305460490B0EE4B0BCDE90533BCE8BB
:103590000F0028606960AA6001AAEB6004ABBCE878
:1035A0000300286107A869612146FFF7ADFE079B6C
:1035B00020692361089BA1696361099B07960896AE
:1035C0000996A36140B1091A01F014FE0798099900
:1035D000091A08B101F00EFE049818B10699091AEB
:1035E00001F008FE019818B10399091A01F002FED2
:1035F00004F1300016AA10A99FED418B8DED108BC0
:103600008DED128B8DED148BFFF7A8FB04F13C00C0
:1036100016AA10A98DED108B8DED128B8DED148BEC
:10362000FFF79CFB04F1480016AA10A98DED108B42
:103630008DED128B8DED148BFFF790FB04F1540090
:1036400016AA10A98DED108B8DED128B8DED148BBC
:10365000FFF784FB04F1600016AA10A98DED108B12
:103660008DED128B8DED148BFFF778FB142228491A
:1036700028481FF079FC236B264893ED000B1FF0C0
:10368000A9FD0122244905461FF06EFC236B284644
:1036900093ED020B1FF09EFD01221F4905461FF00E
:1036A00063FC236B284693ED040B1FF093FD036826
:1036B000044653F80C3C0344DD6FEDB12B7F73B12E
:1036C00095F8271020461FF0E1FB16B0BDEC0E8BDD
:1036D000BDE870401FF05ABB94ED007B1CE7284604
:1036E00009F0A0FD2B680D4A0A219B699342E9D09D
:1036F000284698470146E5E715F0BEFBAFF300808A
:1037000000000000000000000000000000408F40AA
:103710007C1F0020AC200120F81E00207D0A000044
:1037200010B5054C204603F02BFB2046034A044904
:10373000BDE8104003F044B98023012010F70020B9
:10374000854B00000020704790F8A32090F8A2005D
:10375000101A704790F8A23090F8A3209A4205D929
:103760005A1C034480F8A220987E70474FF0FF3027
:10377000704700BF90F8A23090F8A3209A4202D977
:103780001844807E70474FF0FF307047704700BF8D
:103790000346B0F8300178B193F82F21882A03D975
:1037A000012200205A60704702F1010C01201A44E6
:1037B00083F82FC182F8A510704700BF38B5B0F864
:1037C00030410CB9204638BD90F82F310546C3F181
:1037D0008904A2420DD8144605F1A50022461844DA
:1037E00001F066FC95F82F312046234485F82F31EF
:1037F00038BD01224260EFE72DE9F04FD0F814A068
:103800001524017E8146437E83B00AEB0111384ABC
:103810000AEB0313374F097A93F8283002EB0115AE
:103820000901E86852F8018002EB0311D5F804B0F1
:103830001B01CE68D558CBF80040C8F88400D8F8F2
:1038400004304A6803432C490192C8F804301460DC
:10385000C5F884606B6833436B60284B4C683A68EA
:10386000A3FB0232920C02EB820252004B681B1B3C
:103870009A42FBD84FF0090C1F4ADFF880E0D8F8D5
:103880000830034202D0AB6833422FD1C5F88860BC
:1038900054683968AEFB0131890C01EB8101536832
:1038A0001B1B9942FBD8C5F8846054683968AEFB8D
:1038B0000131890C01EB810153681B1B9942FBD834
:1038C000BCF1010CDBD1604699F81830019A0AEB83
:1038D0000313DB68CBF8003099F819300AEB031AB0
:1038E000DAF82C30136003B0BDE8F08F0120EBE76D
:1038F000CCDF002034F20020001000E083DE1B4308
:103900000E4A10B51168046905E0DB0107D413689D
:103910005B1A102B08D8636913F0007FF5D14FF4C0
:10392000FE430120636110BDFFF766FF0028FAD057
:103930004FF4FE4301206361F5E700BFDC2A01205C
:103940002DE9F04790F82FA10569BAF1000F4FD08B
:1039500081468846FFF7D4FF002849D0374E00241F
:10396000376818E06B69190551D4DA0455D4580545
:1039700059D4990441D43268D21B322A3DD85445D7
:1039800007D9EA6D520704D19B0555D4B8F1000F51
:1039900052D002F0F5FD5445E4D8EA6D500702F02C
:1039A0000703DFD413E099F8A5200133022442F481
:1039B0008062042B2A661ED08A4503F1010309EBBD
:1039C00001020ED992F8A520042B2A66CAD0012143
:1039D000002CE8D02146013301348A4509EB01026D
:1039E000F0D8B8F1000FBDD04FF400732B66B9E7E3
:1039F0000420BDE8F0870124B4E72B694FF400727E
:103A0000042043F440732B612A66BDE8F0872B69DC
:103A1000042043F440732B61EBE72B69052043F44A
:103A200040732B61E5E72B694FF40072022043F4E9
:103A300040732B612A66DCE70020DAE7DC2A0120EC
:103A40002DE9F84F83460C4615461F46D0F810A0C6
:103A5000FFF756FF002800F09E806100012DDFF87F
:103A60003C8140F20146CBB24FF0000138BF012546
:103A7000D8F800900C461E43ABF8A21020E09BF84B
:103A8000A330872B3FD9DAF8142010055AD412F44A
:103A9000105F70D1D8F80030A3EB0903322B6AD83D
:103AA0009BF8A330AB4209D3022C07D9DAF85C307B
:103AB000590703D193054BD4002F49D002F060FD84
:103AC000022CDCD8DAF85C3003F007025B07D6D4AE
:103AD000681E224440F480704CB9CAF8606001341A
:103AE000131B032BCBD8022CC9D8002CF5D0012CEA
:103AF00037D01FB14FF40073CAF860309BF8A33081
:103B00000324872BBFD8DAF85C2012F4E02FC2F32D
:103B1000024CB8D0591C9C441933C9B25FFA8CFCD2
:103B20005BFA83F3DAF870004A1C61458BF8A31046
:103B3000D1B203F8010FA6D08929F3D1DAF8142005
:103B40001005A4D5DAF8103043F44073CAF81030E9
:103B5000DAF85C3013F4E02F06D19BF8A300BDE83F
:103B6000F88FCAF86000BAE7DAF8103043F400734F
:103B7000CAF81030F1E7DAF810304FF4007243F46D
:103B80004073CAF81030CAF86020DAF85C3013F4D9
:103B9000E02FE2D0E8E70420BDE8F88FDC2A01201E
:103BA000F8B506690446D6F8145115F4706301D0CF
:103BB000C6F81431A8070BD5D6F8702111043DD5ED
:103BC0000023012184F8A230234484F8A3109A76BC
:103BD000EA0710D594F83071F7B194F82E7194F883
:103BE0002F31BB4226D97B1C274484F82E3197F80D
:103BF000A530C6F86031AB050DD594F8A30018B117
:103C0000D4F83C3103B198470023A4F8A230A4F8BB
:103C10002E3184F83031F8BDD4F8383103B19847EB
:103C2000002384F82E31012384F8303194F82F31A9
:103C3000BB42D8D80023C6F86031DCE794F8A33043
:103C4000872BC5D8591CC9B2BEE700BF0148FFF792
:103C5000A7BF00BF98F200200148FFF7A1BF00BF37
:103C6000D8F300200148FFF79BBF00BF18F50020E4
:103C7000704700BF38B50C4620220021054604F1EC
:103C8000080038F09DFE0B220649204639F08EF9D7
:103C900001230321044AE360AB686161226223616E
:103CA00038BD00BF941F00200AD7233C70B50446DE
:103CB0001546094E002282B08160066010206260C5
:103CC000019301F08FFA2946019A054633F09CF8DA
:103CD0002046656002B070BDEC4900202DE9F0413E
:103CE0000F46064684B000214068552533F096F80B
:103CF00004E001F057F9013D00F0A2800121706855
:103D000033F08CF804460A20002CF2D003AB4FF0BD
:103D1000000801251946CDF8048000952A467068F0
:103D20008DF80C8033F002F99DF80C30A02B12D0E6
:103D30004FF47A7001F036F903ABCDF804802A46CF
:103D40001946009570688DF80C8033F0EFF89DF8F7
:103D50000C30A02B74D100253D23022203A935731A
:103D60004FF00108ADF80C300123CDE90055706823
:103D700033F070F81E2001F015F942F23F030222E1
:103D800003A9ADF80C300123CDE90055706833F07C
:103D900061F81E2001F006F901E001F003F903AB20
:103DA000706801228DF80C501946CDE9008533F07A
:103DB000BDF89DF80C300A20A02BEED1322001F086
:103DC000F1F83E2303A90222ADF80C300123CDE91E
:103DD0000055706833F03EF80A2001F0E3F807233D
:103DE00003A90222ADF80C300123CDE9005570681B
:103DF00033F030F83F2303A90222ADF80C30012341
:103E0000CDE90055706833F025F80A2001F0CAF8B2
:103E10003D2203A90123706837738DF80C2002221C
:103E20008DF80D70CDE9005533F014F81E2001F027
:103E3000B9F8142001F0B6F8204604B0BDE8F081CE
:103E40000024204604B0BDE8F08100BF000000005F
:103E500030B587B01546002304468DF80C200622A5
:103E6000083D036043608360C36003614361049362
:103E7000486803A90193ADF8143004AB0092012205
:103E800033F054F8BDF91000BDF91210BDF914203B
:103E9000262D2FD8DFE805F0142E2E2E2E2E312EB3
:103EA0002E2E2E2E312E2E2E2E2E312E2E2E2E2E2C
:103EB0002E2E2E2E2E2E2E2E142E2E2E2E2E140084
:103EC00007EE900AB8EEE75B07EE901AB8EEE76BE4
:103ED00007EE902A9FED184BB8EEE77B85EE043B8A
:103EE00086EE045B87EE046B84ED003B84ED025BA1
:103EF00084ED046B204607B030BD07EE900A2046E3
:103F0000B8EEE75B07EE901AB8EEE76B07EE902A83
:103F10009FED0B4BB8EEE77B25EE045B26EE046BC2
:103F200027EE047B84ED005B84ED026B84ED047B63
:103F300007B030BDAFF30080000000000000594022
:103F4000000000000000B03F70B50C4686B005468A
:103F500020220021201D38F033FD2422104B03269F
:103F600022606846AA6829461B6862601A22A66019
:103F70002361FFF76DFF01209DED005B9DED026B5E
:103F80009DED047BB7EEC55BB7EEC66BB7EEC77BA6
:103F900084ED055A84ED066A84ED077A06B070BD9B
:103FA000DC2A01200000000070B50C468CB01546DC
:103FB000064620220021201D38F002FD24224A4B13
:103FC000282D22601B68B26823614FF000036260F5
:103FD000CDE90033CDE90233CDE9043318D0083DF3
:103FE000262D36D8DFE805F03D35353535354235F7
:103FF000353535355735353535357535353535350F
:104000003535353535353535353535353535380092
:104010000A232A463146A36006AD06A8FFF718FF1B
:104020006E460FCD0FC69DED005B9DED026B95E8D2
:10403000030086E803009DED047BB7EEC55BB7EE99
:10404000C66BB7EEC77B84ED055A84ED066A84ED36
:10405000077A01200CB070BD092331462E22A360DF
:10406000DAE7012331460822A360D5E7022306AD33
:1040700031460E2206A8A360FFF7EAFEEC460FCDFC
:10408000ACE80F0095E803009DED005B9DED026B31
:104090008CE80300CFE7042306AD3146142206A8BE
:1040A000A360FFF7D5FE6E460FCD0FC695E803005F
:1040B0009FED0B4B9DED005B9DED026B86E80300D1
:1040C0009DED047B25EE045B26EE046B27EE047B5E
:1040D000B3E7032331461A22A3609DE7AFF30080C4
:1040E000000000A046DF913FDC2A0120084A094B6E
:1040F00051681B6810B4084CA4FB03439B0C03FBE2
:1041000000F053685B1A9842FBD85DF8044B704787
:10411000001000E034F2002083DE1B4330B482B094
:104120000C4602AB03E90600C37C002B30D072B60C
:10413000C37CDA0708D54FF0E0214569D1F880212A
:104140002A408262C1F880219D0708D54FF0E02106
:104150008569D1F884212A40C262C1F884215907B7
:1041600008D54FF0E021C569D1F888212A400263C3
:10417000C1F888211A0708D54FF0E021056AD1F867
:104180008C212A404263C1F88C21DB062FD462B611
:1041900083689C4235D0224B84609B69214AC3F3DB
:1041A0000111C3F3826352F821100133B1FBF3F222
:1041B000CCB1944227D8B2FBF4F3B2FBF3F29442B1
:1041C0002CD3B3F5817F20D3174CC460036803223E
:1041D0000020019918615A6201221C6419661A6153
:1041E00002B030BC70479942EFD3531CE9E74FF05F
:1041F000E022416AD2F890310B408363C2F89031DB
:10420000C5E7C468E2E70024DFE7022BFBD9023BE5
:104210005A08140244EA02441C43D6E71A46E4E76B
:1042200000C00F40845B0020FF7F7F00002A00F069
:10423000BD802DE9F0431F7883B004468946012FE5
:104240001D4690460CD0022F05D0002F55D00020DF
:1042500003B0BDE8F0836FF0010003B0BDE8F08368
:104260005A7801465B68520083F8307183F8A520C4
:1042700083F82F71686803681B6898473946686837
:10428000FFF75EFB0028E6D13B465FFA88F26978CB
:1042900009F1FF396868FFF7D3FB6868454F09EB00
:1042A00008060368DFF814811B69BB4220D190F82F
:1042B000A33090F8A220981A0028C8D06868036834
:1042C0005B69434516D190F8A23090F8A3209A423A
:1042D00003F10102034467D980F8A220987E09F80F
:1042E000010F4E45B3D0686803681B69BB42DED03E
:1042F0009847E1E79847C0B2F1E7DB682E4E00939C
:1043000007233046019302AB13E90600FFF706FFCF
:10431000287A394600F09AFE44F0800034686066DE
:10432000E06D10F4F81FFBD009F1FF33626F002736
:1043300003EB08026766E06D10F4F81FFBD0616FB5
:1043400003F8011F9A4201D03468F3E70121287A6B
:1043500000F07CFEF37C002B3FF479AFDC0704D542
:10436000B16A4FF0E022C2F80011980704D5F16A53
:104370004FF0E022C2F80411590704D5316B4FF019
:10438000E022C2F808111A0704D5716B4FF0E02241
:10439000C2F80C11DB067FF55AAFB26B4FF0E02389
:1043A0000020C3F8102153E7FF2098E76FF00100C9
:1043B000704700BF2915000038F2002035150000B5
:1043C000002A00F090802DE9F04793F8008082B039
:1043D00082460D46B8F1010F1F46164609D0B8F1C6
:1043E000020F24D0B8F1000F26D0002002B0BDE8A3
:1043F000F0875A784D1E5B68014652002E4483F8C0
:10440000308183F8A52083F82F81786803681B68C2
:104410009847786815F8011F03681B689847AE42F3
:10442000F7D101217868FFF78BFA0028DDD06FF013
:10443000010002B0BDE8F087DB68DFF8B0900093C0
:1044400007234846019302AB13E90600FFF766FE17
:104450004146387A00F0FAFDD9F80040C4F864A06B
:10446000E36D13F4F81FFBD0691E636F0E4411F85F
:10447000013F6366E06D10F4F81FFBD08E42636F5E
:10448000F5D10121387A00F0E1FD99F81330002BC5
:10449000ABD0DC0705D5D9F828104FF0E022C2F8E0
:1044A0000011980705D5D9F82C104FF0E022C2F87A
:1044B0000411590705D5D9F830104FF0E022C2F8A1
:1044C00008111A0705D5D9F834104FF0E022C2F8C8
:1044D0000C11DB0689D5D9F838204FF0E0230020F5
:1044E000C3F8102182E76FF00100704738F2002016
:1044F000704700BFA1F14603012B2DD8184B70B5B2
:10450000C2610026174A01254176044645750576A5
:104510008663C0E90223144A00F11803C0E90A6661
:10452000C0E90C660261436000F0EEF800B170BDB6
:10453000204600F03DF80028F9D1214604F128007A
:1045400084F82A5000F04EFA0028F0D1214628467F
:10455000BDE8704000F0CAB96FF00B00704700BFB3
:10456000A12100000D200000CD1E000002460846DB
:1045700002F1280100F0ECB8BBB138B59D681C46CB
:1045800085B1DB6873B1236963B159B1637D0BB940
:1045900040F080006368A8470028207518BF6FF0BE
:1045A000010038BD4FF0FF3038BD4FF0FF3070478D
:1045B000002845D0836810B5044682B0002B3CD05B
:1045C000C368002B39D00369BBB3437D5BB30122C1
:1045D00023460DF105011046FFF7CEFF08BB9DF8FD
:1045E000053083B3234601220DF106012820FFF791
:1045F000C3FFB0B99DF8063003F00603022B25D1A6
:10460000234601220DF107012720FFF7B5FF40B92E
:104610009DF80730DB0619D59DF80530502B18D1D1
:10462000237002B010BD0122034601A91046FFF716
:10463000A3FF0028CBD002B010BD4FF0FF30F0E751
:104640004FF0FF3070476FF00300EAE76FF00400AF
:10465000E7E76FF00200E4E783B32DE9F8431D4676
:104660009B6843B3EE6836B32B6923B30F4611B38F
:104670006C7D804691466CB1013C012C17D995F9AF
:104680001400002818BF6FF00100BDE8F8834C4506
:10469000F7D2EE6804EB0800391901346B68012287
:1046A000C0B2B0472875E4B20028F0D0E9E76B68E3
:1046B000B0472875E5E74FF0FF30E6E74FF0FF30F1
:1046C000704700BF10B584B00B46012204460DF1BF
:1046D0000F0137200193FFF74FFF019B08B104B092
:1046E00010BD9DF80F1004F00300012261F07F045B
:1046F0000DF10F0124F0030420438DF80F00372043
:10470000FFF7AAFF04B010BD30B5B62383B004464E
:1047100001228DF807300DF107017E202346FFF7B7
:104720009BFF054630B923694FF4FA6061689847EA
:10473000637D13B1284603B030BD012223460DF13D
:1047400006011046FFF718FF0546284603B030BDA6
:1047500070B582B00024134605460E46062269460F
:104760001D200094ADF80440FFF706FFB0B99DF896
:1047700002209DF8003043EA02439DF8012043EAFD
:10478000022307EE103ABAEEC87BB7EEC77B85ED81
:10479000017AB378012B03D000232B6002B070BDE7
:1047A0009DF805109DF803309DF8042043EA01436D
:1047B00043EA022307EE103ABAEECD7BB7EEC77B91
:1047C00085ED007A02B070BDD8B10B46022210B55B
:1047D00082B00446362001A9FFF7CEFE78B99DF8D5
:1047E00004309DF8052003F00701C2F38402217014
:1047F000C3F3C201C3F38013E2706170A37002B00F
:1048000010BD4FF0FF307047E8B10B46022210B5E3
:1048100082B00446302001A9FFF7AEFE9DF80430B7
:104820009DF80520C3F3C001A170C3F34011C3F389
:104830008003E17002F00701C2F3C202237121700C
:10484000627002B010BD4FF0FF307047002845D0B5
:104850000B46012230B585B004460D4637200DF1D8
:104860000201FFF789FE60B99DF8023003F00302F0
:10487000022A08D0032A06D0012A04D0DB0905D079
:10488000207005B030BD227005B030BD2B468DF8CC
:104890000C0001220DF10301CDE901001820FFF702
:1048A0006BFE9DF8033003F003038DF803300028FE
:1048B000E7D1294601A8FFF787FF90B19DF807309F
:1048C000182BDED99DF803309DF808109DF80920BB
:1048D0000B431343D5D104232370D2E74FF0FF30AD
:1048E0007047294602A8FFF78FFFE7E770B582B04F
:1048F00006460D460DF10600FFF7A8FF044638B93D
:104900009DF80630002B57D1032E04D8002E60D11D
:10491000204602B070BD042E58D12B4601220DF165
:1049200007013720FFF728FE04460028F0D19DF844
:1049300007102B460122372001F0030141F07001DE
:104940008DF807100DF10701FFF786FE04460028D9
:10495000DED12B4601220DF107013120FFF70CFEBD
:1049600004460028D4D19DF807102B46012231209F
:1049700021F03F018DF807100DF10701FFF76CFEE4
:1049800004460028C4D12B4601220DF1070118204E
:10499000FFF7F2FD04460028BAD19DF807402B46E8
:1049A00001220DF1070124F0030418208DF80740BF
:1049B000FFF752FE0446ABE72946FFF783FE78B9BE
:1049C0002B6940F6C410696898479DE76FF00604AC
:1049D0009EE72946304602B0BDE87040FFF772BE40
:1049E000044695E730B5002383B0ADF804300028C5
:1049F0004BD0C3780D460446172B09D80DF10300A0
:104A0000FFF724FF024658B99DF80330042B35D038
:104A100002222B46362001A9FFF7AEFD024610B157
:104A2000104603B030BD9DF804202B46207801A924
:104A300002F0C00200F0070002436078C00000F0FE
:104A400038000243A078E478800122F04002A400FC
:104A500000F0400004F07C0402439DF8050020F0C3
:104A60007C008DF804200222044336208DF8054096
:104A7000FFF7F2FD0246104603B030BD2946FFF7AE
:104A800035FF02460028C3D0CAE74FF0FF32C7E720
:104A9000084601F0E1BC00BF012A70B508BF0A2238
:104AA0008AB091B34FF0210E01E05FFA86FE0EF15D
:104AB000FF36B1FBF2F502FB15145FFA84FC092CFA
:104AC0000CF137040CF1300C98BF5FFA8CF40EF146
:104AD000280C88BFE4B29142EC4429460CF8244CDF
:104AE000E3D24BB10EF1FF3E2D225FFA8EFE0EF1A6
:104AF00028036B4403F8242C036801A9CEF1220299
:104B00005B68714498470AB070BD30224FF0210EA7
:104B10008DF82520E5E700BF00B5036883B040F6B7
:104B20000D2C022201A95B68ADF804C0984703B0C0
:104B30005DF804FB054B022888BF034610B41C68CF
:104B4000184663685DF8044B184700BF88F20020E0
:104B5000B4EE400B70B5F1EE10FA05462DED028B68
:104B600086B07CD6B0EEC07B9FED476BB4EE467B43
:104B7000F1EE10FA6BDC9FED467BB4EEC70BF1EE65
:104B800010FA5ADC9FED447BB4EEC70BF1EE10FA3D
:104B900053D4B5EEC00B0C46F1EE10FA5BD40023F3
:104BA000B6EE007B002C5ED04FF0000C9FED3C6B0E
:104BB0000CF1010C27EE067B5FFA8CF2A242F7D3D0
:104BC00030EE070B0A222846FCEEC07BB8EE678B5E
:104BD00017EE901A30EE488BFFF75EFF0F2C4FF068
:104BE0002E03B2EE046B064628BF0F248DF8083062
:104BF0000DF1090302AA611E53FA81F128EE060B9A
:104C0000FCEEC07BCDED017A9DF8043007EE903AC2
:104C10003033B8EEE78B02F8013F914230EE488B1B
:104C2000ECD12B68013402A928465B68E2B29847B0
:104C3000304606B0BDEC028B70BD2B6803221A49CA
:104C40005B6806B0BDEC028BBDE870401847036896
:104C500003221649F4E7B1EE400B0123A0E70368F5
:104C600003221349ECE730EE070B0A222846FCEE3C
:104C7000C07B17EE901A06B0BDEC028BBDE8704009
:104C8000FFF70ABFAFF30080FFFFFFFFFFFFEF7FDB
:104C9000000000E0FFFFEF41000000E0FFFFEFC178
:104CA0009A9999999999B93FA41F0020A01F0020B3
:104CB0009C1F0020A249A34B88422DE9F047A24C3B
:104CC0005E699A69D4F80C801BD9A04B984240F2D7
:104CD0000281C31A9E491B0AA1FB031340F22761FC
:104CE000DB0903EB830303EB830303F2E2438B4211
:104CF00028BF0B46A3F54877964BA3FB0737FF0861
:104D000004E0954FB8428CBF0E2706278D4908F066
:104D10001F09D1F88030B94543F0C003C1F8803095
:104D20000CD228F01F08A1F5F82148EA0708C1F8BD
:104D30000C800B68002BFCDA08F01F0916F00073DA
:104D400024D186490C698649A14300F0EA8082F4A7
:104D5000805134464FF4805514F0605F04D026F043
:104D600060561E43774B5E6111F4405F07D022F41A
:104D7000405274492A438A618B6C1A07FCD446F06E
:104D80000076704A5661936C9B06FCD4754CA04229
:104D900000F2CE804FF0010C0146634603FB011286
:104DA00003F1010E0CF10105A24218D8BEF1080F63
:104DB0004FF0010340F08D80BCF1040F00F29180B0
:104DC0000A18A24200F2A48005FB00F1AC4603F1F0
:104DD000010E03FB01120CF10105A242E6D90CF110
:104DE000FF318C0286EA81215F4810445F4A90427D
:104DF0007FD9DFF8A4A16C225D48584DB0FBFEF0CE
:104E0000D5F800E0B0FBFCF0DFF890C10EEA0C0C26
:104E1000D44509D042F400524FF4805CC5F800C07C
:104E20002A602A68002AFCDA464A156905F0070557
:104E30009D4203D01361936CDD03FCD411F4E05F59
:104E400009D026F4E05604F4E0543E4A2643566165
:104E5000936C9907FCD44749474A014491423CD896
:104E6000464BC909A3FB0131090B4B1E1B0286EA05
:104E7000030212F4407F06D026F4407603F4407318
:104E8000304A334353612F4A536923F0007353610F
:104E9000936C9B06FCD43A4B4F45A3FB00234FF089
:104EA000FF324FEA9343B0FBF1F1B2FBF3F3354A23
:104EB0001060354A1160354A136008D228F01F0887
:104EC000214A48EA0707D7601368002BFCDABDE8DF
:104ED000F087734662E7122718E74FF44073042106
:104EE000C5E70CF1FF31204807238C02104486EA05
:104EF0008121274ADFF8A8A0A2FB0020020D254847
:104F0000362A38BF362202FB00F042EA0A0A74E76A
:104F10004FEA8C24002386EA8C214FF0010EAC4628
:104F200062E71D4686F0C05411464FF0C05313E7A8
:104F300000244FF0010C024631462346E64653E773
:104F400000A4781F00C00F40000008400046C323A3
:104F500023B24C001F85EB5100366E0100800D40DE
:104F600040300080FFB19F26808D5B00FF7EF64DB4
:104F700000643F4D7FD1F0087F17B42C9F10E500EF
:104F800083DE1B4334F2002030F20020D42A0120BB
:104F9000819F5E16001BB7006C2000807F3001806F
:104FA0000020008000B970472DE9F84F01218146AB
:104FB000214C224D224E54E8003F2A68306844E8D4
:104FC0000013002BF7D11F494B684FF47A7BDFF8B1
:104FD00078A01B1A01270BFB02F8DAF80020A3FBCC
:104FE00002325A4594BF9044D84454E8003F2A689E
:104FF000306844E80073002BF7D14B68DAF800C042
:105000001B1A0BFB02F2A3FB0C3CBCF57A7F94BF8E
:10501000624402F57A72A2EB0802B2F57A7F06D3F7
:10502000B9F1010908F57A78DFD1BDE8F88F01F010
:10503000A7FA0449D9E700BFE02A0120DC2A0120B1
:10504000D82A0120001000E0D42A0120362816D8E2
:105050000201104B03EB00109B5810B4C2685C684F
:10506000144205D061B95DF8044BC3F8882070473D
:10507000836851B1084A5DF8044B1A607047704765
:105080005DF8044BC3F884207047044A5DF8044B74
:105090001A607047CCDF002038F001003830010082
:1050A00008B5FDF7ABFAFDF719FC01F069FAFAE76C
:1050B000844641EA000313F003036DD1403A41D323
:1050C00051F8043B40F8043B51F8043B40F8043BE2
:1050D00051F8043B40F8043B51F8043B40F8043BD2
:1050E00051F8043B40F8043B51F8043B40F8043BC2
:1050F00051F8043B40F8043B51F8043B40F8043BB2
:1051000051F8043B40F8043B51F8043B40F8043BA1
:1051100051F8043B40F8043B51F8043B40F8043B91
:1051200051F8043B40F8043B51F8043B40F8043B81
:1051300051F8043B40F8043B51F8043B40F8043B71
:10514000403ABDD2303211D351F8043B40F8043B11
:1051500051F8043B40F8043B51F8043B40F8043B51
:1051600051F8043B40F8043B103AEDD20C3205D321
:1051700051F8043B40F8043B043AF9D2043208D019
:10518000D2071CBF11F8013B00F8013B01D30B888B
:1051900003806046704700BF082A13D38B078DD069
:1051A00010F003038AD0C3F10403D21ADB071CBF3B
:1051B00011F8013B00F8013B80D331F8023B20F8A5
:1051C000023B7BE7043AD9D3013A11F8013B00F8DE
:1051D000013BF9D20B7803704B7843708B78837066
:1051E0006046704734F0BABA34F0B8BA34F0BEBA98
:1051F00034F0BCBA34F0BABA01F1FF3C70B566467F
:10520000002400E00134B0FBF2F502FB1503092B8A
:1052100003F1370E03F130035FFA8EFE98BF5FFA99
:1052200083FE9042284606F801EFEBD2631C002271
:10523000C818CA547CB162461CF8015F10F8016DB1
:10524000A1EB0C0302328CF80060013B521A05708E
:1052500023449A42EFDB084670BD00BF72B6EFF3FD
:105260000583524CC4F884301EF0040F0CBFEFF3DA
:105270000882EFF309824FF0E0234D4E4D4DD3F8F5
:10528000280DD3F82C1DC4E92201D3F8341DD3F81E
:10529000383DC4E924139369C4F89830D369C4F83D
:1052A0009C3000F0DDF884ED280A01F00FFB0B21A3
:1052B0004FF0FF32C4F8A4000B46C4F880103E49FA
:1052C000301D5A40202402F00103013C01FB03F38E
:1052D00083EA5202F7D1A84202D073680646EFE78C
:1052E000324BC3F8A820BFF34F8F4FF0E023304973
:1052F000324AC3F8701FC3F8702FBFF34F8FBFF34C
:105300006F8F2F4A02252F48D36E2F4943F4405305
:10531000D3660560D3692D4823F07F0343F0400333
:10532000D3610B6883423DD8264D00214FF0E02326
:105330004FF0FF3229600126C5F808112449C5F84D
:105340000011C5F80861C3F88021C3F88421C3F8AF
:105350008821C3F88C21C3F8902101E000F072F994
:10536000D5F80C31002BF9D00134C5F80C614F2C65
:10537000F4D9184B022018494FF00042C1F84001FF
:105380005A63D5F80C313BB9144815490D4A0163ED
:10539000D2F80C31002BFAD04FF0E023114AC3F8B9
:1053A0000C2DFEE7FFF786FCBEE700BF00FF2720BD
:1053B00080FF2720A8FF27202083B8EDA0FF27200B
:1053C00000C00F400040084034F20020803DCD0B6B
:1053D000009F240000900D4000002E4000800F40F0
:1053E000F100AD0B0400FA050A490A6838B108B5A6
:1053F00013180948834204D810460B6008BD1046B4
:1054000070473AF043FB0C234FF0FF320360104625
:1054100008BD00BFECF600200000282000207047E7
:105420004FF0FF30704700BF4FF4005300204B6037
:10543000704700BF012070474FF0FF30704700BF3A
:1054400030BFFDE70078B0FA80F04009704700BF38
:1054500001230370704700BF30BFFDE7FFF7FEBEBA
:10546000124AD2F880305B07FBD5D2F88030104862
:10547000C3F30B230F4990ED007A07EE903A91EDBC
:10548000006AB8EE477A0C4AF8EEE77A0B4BD2ED99
:10549000006A77EEC77A93ED007AB8EE477A67EE46
:1054A000867A87EEA60A37EE400A704700810D40E3
:1054B000E4290120EC290120F0290120E82901201C
:1054C000836BF0B41BB1536843F40043536072B66E
:1054D000446B3CB31A4B2260D3F8B0410C421DD14F
:1054E000184E776804E07468E41BB4F5166F0BD2AD
:1054F000D3F8404144F48044C3F84041D3F8B85154
:10550000D3F840416404EED50D4007D10C4CC0E9FE
:105510000225D4F8B0310B43C4F8B031426362B60F
:10552000F0BC7047064DC0E90224D5F8B0310B43FA
:10553000C5F8B0310263426362B6F0BC704700BF89
:1055400000002E40001000E070B5056B9DB10646CE
:105550002A46002403E012680134012A0CD0536863
:1055600013F08003F7D032632CB12846B36B2D685B
:105570009847013CF9D170BDC6E90C33F4E700BF90
:1055800030B4D9B91F4C204B0021204A01254FF0DF
:10559000011099601D60C4E9023180245C60C2F88A
:1055A000BC01D2F8B0311A482B43C2F8B0310160C7
:1055B000D2F8B031002BFBD130BC70470904154B39
:1055C000104C012541F080019860104A596000F5A7
:1055D00080511D60D96000F50051A364196100F588
:1055E000405100F58040596100219861E164D2F892
:1055F000B03143F48033C2F8B031D2F8B031002B6F
:10560000FBD1C0E700000020C00A012000002E40AE
:10561000A8270120E00A0120084901220B7802FA9C
:1056200000F023EA0000087030B9054AD2F848318A
:1056300023F08003C2F84831704700BF062B0120D9
:1056400000002E402DE9F04F974C83B0D4F8447100
:10565000FB07C4F8447153D5D4F8AC21002A4AD0D2
:10566000924EDFF860A2DFF87492DFF874B2DFF8D0
:105670007482C4F8AC21D6E90A20D4F8403143F44E
:105680000053C4F84031D4F840319D04F5D5D4F826
:10569000403123F40053C4F840314FF00113C4F8F3
:1056A000B431D4F8B45115F00115FAD193B284464F
:1056B000CAF80050B3F5086F00F0CF8100F2DB802C
:1056C00040F202318B4200F0E78100F29A80822B97
:1056D00000F0CB81B3F5817F40F08A8010F0780F25
:1056E00083B200F003824FF00113C4F8C031D4F844
:1056F000AC21002ABDD16C4AD2F8BC31002B42D17A
:105700007E0616D5684BD3F8AC21C3F8AC21D3F88C
:10571000BC21C3F8BC21D3F8B041002CFBD14FF021
:10572000FF32C3F8B421D3F8843100F02DFD604B73
:105730001C60FC0103D55F4B1B6803B19847B8019F
:1057400003D55D4B1B6803B19847790708D5564BC5
:10575000D3F8843113F4007347D0584B01221A70E8
:10576000514BD3F848311A060AD53B0608D5544A9E
:1057700013782BB1013BDBB21370002B00F0728267
:1057800003B0BDE8F08F4F49C2F8BC31086803424E
:1057900040F0D181464A14681C40B1D05FEA1448F9
:1057A00010D0424E4FF0010998FAA8F5B5FA85F5E8
:1057B00006EBC51009FA05F54030FFF7C5FE38EADB
:1057C0000508F1D1A4B2002C9AD0384E4FF0010850
:1057D00094FAA4F5B5FA85F506EBC51008FA05F5B7
:1057E000FFF7B2FEAC43F3D18AE7344A1370B7E750
:1057F000802B7FF478AF344802210580FFF7C0FE8C
:1058000075E7B3F5A06F00F00B81A3F5D063012B12
:105810003FF669AF2D4B5D68002D3FF464AF1FFA72
:105820008CFC4FEA124E04E01D690C33002D3FF44E
:105830005AAF1A887245F7D15A886245F4D14FEAB7
:105840001E22032A00F0A5811A89000C824228BF7B
:105850000246BEF5007F40F0A181184B1C49187824
:105860001C4B0192002818BF19461B48FFF720FC6B
:10587000194D019AE1E142F221218B427CD033D9CA
:1058800042F221318B4200F081804FF6C0018B4201
:105890007FF429AF10F47F4F83B27FF424AF43F439
:1058A0006E4363F30F0CB5E700002E4000000020AC
:1058B000AC270120F02A0120F42A01200C2B012022
:1058C0000D2B0120A8270120AC2901203CEF00204E
:1058D0004C210060B021006000002020A0270120A2
:1058E0005DCFC6B8C0012E40B3F5106F66D042F24E
:1058F00021018B427FF4F7AE030C072B7FF4F3AE4C
:10590000B24BB349F560D960B249B360C3F80890AF
:10591000C1E9002001221A60AF4A5A60AF4A1A61F9
:10592000D4F8B01141F00101C4F8B01102F5805172
:1059300002F5005259619A61D4F8B031002BFBD1C5
:10594000A74AF36493600123B264136048F28003B2
:1059500053604FF00113C4F8BC31D4F8B03143F4B4
:105960008033C4F8B0314FF48033CAF80030D4F833
:10597000B031002BFBD1BAE680B238B9994BC2F3F3
:1059800007421968984B1960984B1A70944B002283
:105990009A60F2640122B3641A6080225A604FF068
:1059A0000113C4F8BC31D4F8B03143F48033C4F8E7
:1059B000B031D4F8B031002BFBD198E6C2F30742E6
:1059C0008B4B1A708B4BC4F8C8318B4BC4F8CC315D
:1059D0008A4BC4F8D03100F0D9FB80222946884890
:1059E00036F0EEFF874B8022C6F8A0B0C6F8E03054
:1059F0007B4BF5645A600122B3649D601A604FF0DE
:105A00000113C4F8BC31D4F8B03143F48033C4F886
:105A1000B031CAF80050D4F8B031002BFBD166E6A3
:105A20006F4B0121F564196080219D60B36459605A
:105A30004FF00113C4F8BC31D4F8B03143F48033D3
:105A4000C4F8B031D4F8B031002BFBD1130C5B0695
:105A500043F08073C4F8543149E6654B01216A482C
:105A60001B780370FFF78CFD41E683B210F07800DD
:105A70007FF439AE03F07F0258F82210624A10809A
:105A8000180600F19E80CB0701D501231370022177
:105A90005D48FFF775FD2AE610F0780F83B27FF4BA
:105AA00022AE03F07F0213F0800F58F8223014BFAB
:105AB00043F4803343F0010348F822300022484B7E
:105AC000F2649A600122B3641A6080225A604FF037
:105AD0000113C4F8BC31D4F8B03143F48033C4F8B6
:105AE000B031D4F8B031002BFBD100E603F07F02D7
:105AF00013F0800F58F8223014BF23F4803323F0C2
:105B0000010348F822300022354BF2649A600122EA
:105B1000B3641A6080225A604FF00113C4F8BC319C
:105B2000D4F8B03143F48033C4F8B031D4F8B03194
:105B3000002BFBD1DBE50020086026490C88486873
:105B400042F221018C427FF425AE80B200287FF41E
:105B500021AE2E492E4C03C9A18086284FEA11415F
:105B60002060A1717FF416AE72B62A48017841F028
:105B700008010170D2F848110D0605D480200143B8
:105B8000C2F84401C2F8481162B6234A502111708C
:105B900000E6000C2A78824228BF0246BEF5E06F7C
:105BA00044D11E4B1E4D18781E491F4B01920028F0
:105BB00018BF19462846FFF77BFA07236B70019A36
:105BC0003BE0C9033FF561AF61E700BFE00A012098
:105BD000A0370120800C012080000700A047012091
:105BE000C00A0120DC2A0120EC2A01200A2B012016
:105BF0000B2B01200200CC00C80002000200C800EC
:105C0000800000201993D574AC290120A027012021
:105C1000E42A0120062B01200D2B01200C2B012052
:105C200000002020B02100604C2100602946104D6A
:105C300001922846FFF73CFA019A25F01F0315440C
:105C4000BFF34F8F4FF0E021C1F8703F20339D42EA
:105C5000FAD8BFF34F8FBFF36F8F05481146FFF798
:105C60008FFC44E50320FFF7D7FC47F0C1F900BFE4
:105C7000000020202DE9F0471F46831E022B01D98A
:105C8000BDE8F087DFF84C9015460C463C2209EB46
:105C9000C01806464FEAC01A002108F10400240487
:105CA00036F08EFEB5FA85F20123520944EA4274B9
:105CB00049F80A40C8F83870C8F80830002FDFD01B
:105CC000034AB34011680B431360BDE8F08700BF7F
:105CD000AC270120000000202DE9F0470D46811E71
:105CE000022901D9BDE8F087C701DFF84C90924640
:105CF000044640373C2200211E4609EB07082D04CC
:105D000008F1040036F05CFEBAFA8AF2520945EA5C
:105D1000427249F807200122C8F83860C8F8082004
:105D2000002EDFD0034B10341968A2400A431A60DA
:105D3000BDE8F087AC27012000000020120481603C
:105D4000C36101F5405342F0800210B40124426067
:105D500001F50052046001F5805401F58041C460F2
:105D600081615DF8044BC0E904237047831E0A4635
:105D7000022B00D97047064B00F110014FF0010CC7
:105D800003EBC0100CFA01F14030FFF799BB00BFE4
:105D900000000020831E0A46022B00D97047012113
:105DA000024B814003EBC010FFF78ABB00000020CC
:105DB00040687047124A134BD2F8200220F07F400F
:105DC000984210B584B002D200EB800040000E4C27
:105DD00001A90A22FFF710FA01A90023204611F8B1
:105DE000012B01333AB10A2B20F8022FF7D11623E9
:105DF000237004B010BD5B00DBB2237004B010BD93
:105E000000441F4080969800AC04012000F0DCBAEA
:105E100000F0ACBA00F010BB00F0CABA00F066BBEC
:105E200000F03CBB0846114600F02CBBF8B5144C02
:105E30004FF0E025134E4FF4003204EB4024124F94
:105E400006EB40160346C5F88C2121463A883046B9
:105E5000FFF774FF3B882344BFF34F8FC5F85C4FB7
:105E60002034A342FAD8BFF34F8FBFF36F8F0320C4
:105E70003146FFF78FFF4FF40033C5F80C31F8BD02
:105E800080002020000B0120F82A0120244B2DE95E
:105E9000F0411C884368C569C3F30E43E41A002C23
:105EA00024DD204920480A780078D3B21F4E824270
:105EB0001F4807D010F8038036F81870C7F5007235
:105EC000944218D90133002226F81540082B194EA8
:105ED00088BF134626F8152098BFDAB2C554164B72
:105EE0000A701A6814441C60BDE8F0812846BDE8B9
:105EF000F041FFF79BBF07EB48201049224627449B
:105F0000084401EB4521FFF7D3F80B4A284626F851
:105F1000187013682344BDE8F0411360FFF786BF93
:105F2000F82A0120042B0120052B0120B82901208B
:105F3000D8290120C8290120B4290120800020206F
:105F40001D4B1A78002A36D102F0FF031B4A127843
:105F50008AB32DE9F0411A4D2A8852B3194EC2F581
:105F60000068194F3278194C07EB421704EBC22432
:105F7000424638462146FFF7E1FE04EB0802BFF334
:105F80004F8F4FF0E023C3F8704F2034A242FAD86D
:105F9000BFF34F8FBFF36F8F04203946FFF7E6FE44
:105FA00033780133DBB2032B88BF00233370002327
:105FB0002B80BDE8F0817047092B01200B2B0120BD
:105FC000FA2A0120082B0120000C0120801020203B
:105FD0002DE9F04F85B0CDE90110002900F0BF8018
:105FE0000023604CDFF89881DFF898A15E4F0093A2
:105FF00001235E4A23705E4B1978B8F8003002EB3B
:106000004119002B40F0A7801E461D469B4648467E
:10601000FFF7CEFE10F0800000F08C80BFF34F8FB2
:106020009AF8003084F800B005B93E68002B7DD1A5
:106030003B689B1B782B00F287804E4B1B78002B14
:1060400074D000F09DFA0122B8F800301546227095
:10605000002BDCD0464AC3F5006011781A4600EBED
:10606000C120454DC9022844019D954217D2039392
:10607000DDE901512A46FFF71BF8039B4FF0404230
:106080005B1BA8F800303D4BC3F88420BFF34F8F53
:10609000009800232844237005B0BDE8F08F364BEC
:1060A000CD180299FFF704F800234FF40062294647
:1060B0004846FFF743FEBFF34F8F05F1200205F579
:1060C0000063934234BF012340234FF0E02205EBED
:1060D0004313C2F8705F2035AB42FAD1BFF34F8F44
:1060E000BFF36F8F04204946FFF740FE204A137824
:1060F0000133DBB2032B84BF00231D4A1370B8F8B1
:106100000030019AD11A009A1A4401910092029A21
:106110001A4400230292194AA8F80030C2F88430C9
:10612000BFF34F8F237000297FF462AF009805B052
:10613000BDE8F08F4FF400620D4B8AF8000019782B
:106140001346A8F800208AE7012300988AF8003057
:1061500005B0BDE8F08F1A46C3F500607FE70198EF
:10616000E5E700BF092B0120DC2A0120000C0120FB
:10617000082B01200B2B01208010202000002E4036
:10618000FA2A0120072B0120704700BF2D4B002168
:1061900080222D4870B51B7800242C4D8B422C4E4C
:1061A0000CBF40234FF400732B80338036F008FC83
:1061B000284A2146284B14704FF4807227481C80CF
:1061C00036F0FEFB264A1021264B0220C2E900448D
:1061D000C2E90244244AC3E900441470234AC3E9D3
:1061E0000244234B1C70234614602246FFF774FDC3
:1061F0002246318803201F4BFFF73CFD2346012236
:1062000029880420FFF768FD20460134FFF70EFEC1
:10621000082CF9D1184B00214A221848184C046068
:10622000C3F88410C3F88020D3F84821154942F000
:106230008072C3F8482121B1134A137843F0010357
:10624000137070BD0C2B0120000C0120FC2A0120D2
:10625000F82A0120082B0120FA2A0120000B012036
:10626000B8290120C8290120042B0120B4290120CC
:10627000052B01206D3C000000002E40F02A01207B
:10628000213D0000000000000E2B01202DE9F04F01
:106290004FF0E0234FF40032DFF8C8A083B0C3F81A
:1062A0008C218B469AF8004000294FD08046E4B2FA
:1062B0000027DFF8B490264BABEB070225491B788B
:1062C000A34204F101043FD0092C234B404628BFD0
:1062D00000241E5D39F816C00CEB462319441F4BF1
:1062E00033F81650A5EB0C05AA421CD20CEB462C39
:1062F00018491B4C61440192FEF7DAFE216839F817
:1063000016505846019AA1EB0B012A44394429F84A
:10631000162021604FF0E0234FF40032C3F80C2127
:1063200003B0BDE8F08F2A462F44FEF7C1FE0C49AA
:10633000E3B230460A68A844521B0A608AF800306B
:10634000FFF774FDBB45B6D83846E3E70846E1E7FA
:10635000042B012080002020D8290120B829012009
:10636000B4290120052B0120C82901200B4B0C4A20
:1063700012781978D3B28A420DD0013309480A4AFB
:10638000092B0A4928BF0023C35C31F8131002EB24
:106390004323585C70474FF0FF307047042B0120B7
:1063A000052B0120D829012080002020C8290120A8
:1063B000044B10B51C680CB1204610BD00F0E0F88D
:1063C000204610BDB42901202DE9F84F144E154D7B
:1063D00033782A78934221D0DCB2DFF85090DFF88E
:1063E00050B0DFF85080104F0134082C5FFA84FA67
:1063F00001D90024A24619F80400DBF8003038F86F
:10640000102037F81010521A9B1ACBF80030FFF703
:106410000DFD86F800A02B78A342E5D1BDE8F88FEA
:10642000052B0120042B0120C8290120D829012097
:10643000B4290120B829012000B583B001210DF154
:106440000700FFF723FF20B19DF8070003B05DF8B8
:1064500004FB4FF0FF30F9E7094B00B583B01B7820
:106460008DF807003BB101210DF10700FFF7B0FDEA
:1064700003B05DF804FB03F0FF0003B05DF804FB1C
:106480000B2B0120044B1B7803F0FF020BB1FFF72D
:106490009FBD1046704700BF0B2B01202DE9F04136
:1064A0000024DFF8448001230D4D27460D4E88F867
:1064B0000030337828462035A34204F1010405D08A
:1064C000FFF776FC030658BF07F50067042CF0D1F0
:1064D000BFF34F8F0023384688F80030BDE8F081C5
:1064E000000C0120082B0120092B01202DE9F84385
:1064F0001D4B1B7813B11D4D2A880AB9BDE8F883DE
:106500001B4EC2F500691B4933784A461A4C01EB11
:1065100043181A4F04EBC324012340463B70214625
:106520000023FFF70BFC04EB0902BFF34F8F4FF082
:10653000E023C3F8704F2034A242FAD8BFF34F8F44
:10654000BFF36F8F04204146FFF710FC337801330F
:10655000DBB2032B88BF0023337000232B80BFF3F3
:106560004F8F3B70BDE8F8830B2B0120FA2A0120E6
:10657000082B0120000C012080102020092B012075
:106580002DE9F8432D4B1E7866B12D4F3B784BB962
:106590000123F1073B7043D4B20726D400233B709C
:1065A000730701D4BDE8F883264B1A68002AF9D096
:1065B000EFF30582002AF5D1EFF3108572B6186863
:1065C000002834D0204C2178002930D101222270BB
:1065D00042691A60002A2ED0916105B962B6002581
:1065E0008368457798472570DCE7DFF8648098F882
:1065F0000030002BD2D00025DFF858902B4659F8F8
:1066000023400135236820461B69984710B1636910
:106610009B68984798F80020EBB29A42EFD8BDE704
:10662000FFF7C6FE0028B7D0AFF30080B4E7002D17
:10663000B8D162B6B6E7054B1A60CEE70E2B012043
:10664000002B0120401C0120FE2A01204C1C0120AF
:10665000FF2A0120401D0120EFF3108272B6437F14
:106660005BB9017F012930B40BD0032913D001237A
:10667000437702B962B630BC70470AB962B6704758
:106680007047124C2168B1B1114943610B68086031
:1066900083615861EBE70F4D0F492C688CB1436162
:1066A0000B68836158614FF0E0234FF0805408601D
:1066B000C3F8044DDBE7064B20601860C0E9051104
:1066C000D5E7C0E905442860EDE700BF401C012084
:1066D0004C1C0120481C0120441C012090F81CC0C7
:1066E0004160BCF1020FC26001D183681847FFF717
:1066F000B3BF00BF70B5EFF3108272B60C4C2068C8
:1067000080B10C4E00254369236073B19D6102B9CD
:1067100062B6836845779847EFF3108272B62068B7
:106720000028F0D102B962B670BD3360EFE700BF58
:10673000481C0120441C0120FFF7DCBF0449054A26
:106740004968054B1960136801331360704700BF37
:10675000001000E0DC2A0120D82A012000230F22AB
:1067600048F2B82C194610B54FF470444FF4806EBF
:10677000A0F88C414FF46044A0F88E210A46A0F89E
:106780009031B0F888319BB243F0F003A0F8883123
:1067900001EB4103013100EB431304299C80A3F872
:1067A00006E05A841A865A805A81A3F80EC05A828B
:1067B000DA825A83DA83EBD1B0F888319BB243F0A6
:1067C0000F03A0F88831B0F888319BB243F47063AE
:1067D000A0F8883110BD00BF374B384A996F384850
:1067E00041F47F0170B5996741F20106D3F880103A
:1067F00045F6C05543F226040A43C3F88020FFF74C
:10680000ADFF00F58040FFF7A9FF00F58040FFF7DE
:10681000A5FF00F58040FFF7A1FF0022A0F50310BF
:106820004FF00F0E114600EB42134FEA421C0132AB
:106830009981042A5981A3F80EE09E82DD8020F818
:106840000C1019829C81EED100221E484FF00F0ED1
:1068500041F20106114645F6C05543F2260400EB0D
:1068600042134FEA421C01329981042A5981A3F84C
:106870000EE09E82DD8020F80C1019829C81EED102
:10688000002211480F2641F20105114645F6C05479
:1068900043F2260E00EB42134FEA421C013299816B
:1068A000042A5981DE819D82DC8020F80C10198237
:1068B000A3F80CE0EED170BD00C00F40000003FC57
:1068C00000C03D4000001E4000401E40074A506A84
:1068D000936A19468446506A936A9942F9D184456D
:1068E000F7D1DB0B43EA4040704700BF00400D404A
:1068F00008B5D0E900325BB1BAB10F4BA3FB02136C
:10690000DB0803EB4303B2EB83030AD1012008BD8C
:10691000094BA3FB0213DB0803EB4303B2EB830336
:1069200001D0D21A4260F02AF0D839F0AFF81C2218
:10693000034600201A6008BDABAAAAAA70B5044697
:1069400038B319B1B2FA82F67609A2B9206800B359
:106950006268F2B1184B194902FB03F3B1EBB30FB4
:1069600017D3A368E3B90022012322606260A2600A
:10697000E260184670BD1D46049BC0E90012C3606A
:10698000FFF7B6FF03460028F3D06DB90123184680
:1069900070BD39F07BF8162200230260184670BDE6
:1069A000002136F00DF8DEE7626831462068A56008
:1069B00036F006F80123DCE7ABAAAAAA555555150F
:1069C00003460846194639F01DB800BF2DE9F04FBF
:1069D000D04FD14D3968DFF89093D04B8E68DFF8F7
:1069E0004C83DFF888B3002483B00122C5E900940A
:1069F000C5E90244C5E90444AC6105F11C001A7004
:106A000001F094F83B682E624FF0FF3A5B68C8F8DB
:106A10000090C8E90144C8E90344C8E90544C5F841
:106A200024A008F11C00C5F800B0019301F07EF825
:106A3000019BBB4EC8F820303B68C6F80090C6E901
:106A40000144DB68C8F824A0C6E90344C6E905444C
:106A500006F11C00C8F800B0DFF8FC92019301F0C9
:106A600065F8019BDFF80883C6F800B0C6E9083A6C
:106A7000A9F10406484608F1140A12F053FBC6E9CE
:106A80001F44C6E9214429467467A6F8784049F8AE
:106A9000048C4846C6F804A012F0DEFAA14C204649
:106AA00012F040FBA04B44F8083C14332360002351
:106AB000C4E91E33C4E920332367A4F8743044F8D2
:106AC000043C20469949083C12F0C6FA984DA5F1BD
:106AD0000409284612F026FB0023C9E91F33C9E93F
:106AE00021338F4945F8048C2846C9F804A0C9F819
:106AF0007430A9F8783012F0AFFADFF868B2ABF171
:106B00000405584612F00EFB0023C5E91F33C5E902
:106B1000213383494BF8048CC5F804A058466B67B1
:106B2000A5F8783012F098FAD9F81030814DDFF8D6
:106B300044B2A66743F40053C9F810303B68C9F863
:106B4000746000249E68AC61C5E900B4C5E90244E4
:106B5000C5E9044405F11C0000F0E8FFDFF8E88116
:106B60003B682E624FF0FF39DFF80CA25B68C5F876
:106B700000A0C5F82490C8F800B0C8E90144C8E9ED
:106B80000344C8E9054408F11C00019300F0CEFF5E
:106B9000019B694EC8F820303B68C6F800B0674FCB
:106BA000D3F80CB0C8F82490C8F800A0C6E9014496
:106BB000C6E90344C6E9054406F11C0000F0B6FF2F
:106BC000DFF8B881C6F800A0C6E908B9384612F067
:106BD000A9FA294608F114093D1FC5E91D44C5E974
:106BE0002044C5E9224447F8048C384685F87C40A7
:106BF000C5F8049012F080FA514C204612F092FA37
:106C0000504B44F8083CA4F108061433B360002349
:106C1000C6E91E33C6E92133C6E923334A4986F85B
:106C200080302046736012F067FA484F3C1F3846A8
:106C300012F078FA0023C4E91D33C4E92033C4E913
