:0200000460009A
:100000004643464200000156000000000103030081
:1000100000000000000000000000000000000000E0
:1000200000000000000000000000000000000000D0
:1000300000000000000000000000000000000000C0
:1000400000000000010408000000000000000000A3
:100050000000800000000000000000000000000020
:100060000000000000000000000000000000000090
:100070000000000000000000000000000000000080
:10008000EB04180A063204260000000000000000FD
:10009000050404240000000000000000000000002F
:1000A0000000000000000000000000000000000050
:1000B0000604000000000000000000000000000036
:1000C0000000000000000000000000000000000030
:1000D00020041808000000000000000000000000DC
:1000E0000000000000000000000000000000000010
:1000F0000000000000000000000000000000000000
:10010000D8041808000000000000000000000000F3
:100110000204180804200000000000000000000095
:1001200000000000000000000000000000000000CF
:10013000600400000000000000000000000000005B
:1001400000000000000000000000000000000000AF
:10015000000000000000000000000000000000009F
:10016000000000000000000000000000000000008F
:10017000000000000000000000000000000000007F
:10018000000000000000000000000000000000006F
:10019000000000000000000000000000000000005F
:1001A000000000000000000000000000000000004F
:1001B000000000000000000000000000000000003F
:1001C000000100000010000001000000000000001D
:1001D000000001000000000000000000000000001E
:1001E000000000000000000000000000000000000F
:1001F00000000000000000000000000000000000FF
:10020000FFFFFFFFFFFFFFFFFFFFFFFFFFFFFFFFFE
:10021000FFFFFFFFFFFFFFFFFFFFFFFFFFFFFFFFEE
:10100000D10020434D1600600000000000000000E9
:10101000201000600010006000A8056000000000C3
:101020000000006000B4050000000000FFFFFFFFAB
:10103000FFFFFFFFFFFFFFFFFFFFFFFFFFFFFFFFC0
:10104000FFFFFFFFFFFFFFFFFFFFFFFFFFFFFFFFB0
:10105000FFFFFFFFFFFFFFFFFFFFFFFFFFFFFFFFA0
:10106000FFFFFFFFFFFFFFFFFFFFFFFFFFFFFFFF90
:10140000814205D051F8043B40F8043B8242F9D8B0
:10141000704700BF044A05494FF0000342F8043BFF
:101420009142FBD8704700BFC0E60020E0050120D4
:101430002DE98848BFF34F8F00BF00BF00BF00BF3A
:1014400000F018F9684B0822C3F8542100BF00BF10
:1014500000BF00BF00BF00BF00BF00BF00BF00BF94
:1014600000BF00BF00BF00BF00BF00BF5F4A6049B0
:101470006048FFF7C5FF604A60496148FFF7C0FF59
:10148000604CFFF7C7FF4FF470004FF0E0210023DE
:101490005D4AC1F8880D44F823200133B02BFAD1FE
:1014A0005A4B80215A4A03F8011B9342FBD14FF05B
:1014B000E0254D4E4FF08039DFF884B1DFF884A18C
:1014C0004FF0FF31C5F8084D0027C6F80491C6F863
:1014D00000B1C6F8F490C6F8F0A0D5F8243DDFF8C6
:1014E000688143F4E0234B4AC5F8243DD8F81C300A
:1014F00023F07F0343F04003C8F81C30D8F82430B1
:1015000023F07F0343F04003C8F824309166D1668E
:101510001167516700F0B6F83F4B4049A363404B59
:10152000E36363236B610323AF612B613D4BC5F81C
:10153000203DD5F8FC3D43F08073C5F8FC3D3A4BA7
:101540001A6842F001021A605B680B6000F0E4FA6E
:10155000C6F804913548C6F800B1C6F8F490C6F84C
:10156000F0A000F06DFCD8F86C10314B314A41F41A
:101570004051C8F86C101F60C3F80871C3F81871A7
:10158000C3F82871C3F83871936BDB0708D442F6AF
:101590001563294951651365936B43F00103936308
:1015A000244A264C936843F00113936000F0F2F84C
:1015B00000F016FC00F05CFC00F0DCFA00F05CF8D7
:1015C0002368132BFCD900F06DFB2368B3F5967FDD
:1015D000FBD300F055F800F051F800F04DFC00F09E
:1015E00033FC30BFFDE700BF00800D40E8A00400E1
:1015F000AC1F006000000000C0E6002098C004603E
:101600000000002000E400200D04000000E400E0E1
:10161000A0E400E000C00A404D180000840501204D
:101620005118000000002020001000E00046C323F5
:101630000040084000400D400000C05688050120D1
:101640001B1018200C0D111300C00F40054B4FF458
:101650002A01054A05485A641864054A9963954663
:10166000FFF7E6FE00C00A40FFFFAFAA0700200018
:1016700000000320704700BF704700BF704700BFE5
:1016800000BF704710B44FF0E02300211024314810
:10169000C3F8941DC3F89C4D1124C3F8A00D2E4827
:1016A000C3F89C4D1224C3F8A00D2C48C3F89C4DE0
:1016B0002B4AC3F8A00D2B4C42F015022A48C3F860
:1016C0009C4DC3F8A00D294C2948C3F89C4DC3F884
:1016D000A00D284CC3F89C2D2748284AC3F8A04DDC
:1016E000C3F89C0DC3F8A02D02F5A022244C0C32A7
:1016F0002448C3F89C4DC3F8A02D234AC3F89C0D81
:10170000224CC3F8A02D02F14062C3F89C4D204842
:10171000C3F8A02D0C32C3F89C0DC3F8A02D00BF58
:1017200000BF00BF00BF00BF0122C3F8942DBFF36C
:101730004F8FBFF36F8FC3F8501FBFF34F8FBFF3AF
:101740006F8FD3F8142D5DF8044B42F44032C3F888
:10175000142D70473F0000102500080709001000F5
:10176000E0050120130020002100020714000020E2
:1017700025000813090000101600202027000B1375
:1017800017000040180000602F000B0719000070C0
:101790001A000080F0B5B84B1822B84E0120B84F9F
:1017A00083B0C3F85C62B749C3F86072B64DC3F842
:1017B0006462A6F53046B54CC3F86862C3F86C5253
:1017C000C3F87052C3F87452C3F8785248F20C75DB
:1017D000DA661A675A679A67DA67C3F88020C3F82F
:1017E0008420C3F88820C1F82C03A94AC1F830032B
:1017F000C1F83403C1F83803C1F83C03C1F8500301
:10180000A169A44B0A40A448A4491343A44AA36174
:10181000D4F8843043F00C03C4F884304FF0FF3424
:10182000036843F00203036003682B404FF4005544
:101830001A439C4B026044608A689B4C13409B4A4D
:1018400043F000538360C36823F07803C360036AE6
:10185000134023430362036A1340954A2343954C84
:1018600043628262C2620022D1F8B83023F03F03A3
:1018700043F00103C0F8B830D1F8BC308E4923F0F2
:101880003F0343F00103C0F8BC3040F2056302613E
:1018900005660467C0F88030456644670224C0F8D6
:1018A0008430036823F0020303608161834B844921
:1018B000C46143F8042B8B42FBD1774A136843F091
:1018C00001031360136813F00103FBD17A4802216E
:1018D00040F2F564906140F29940D16140F2664176
:1018E000C2F8004242F20144C2F810127549C2F82F
:1018F0002002C2F8301240F235417348C2F8344237
:10190000C2F84012714CC2F8500242F201207049F4
:10191000C2F854120121C2F86042C2F864025E4863
:10192000C2F8A030C2F8A430C2F8B0104369DA0798
:10193000FCD5012300244FF4803257494361C0F89D
:10194000A040C0F8A420C0F8B0304B69DB07FCD53C
:10195000012300244FF400304F4A4B61C1F8A040EE
:10196000C1F8A400C1F8B0305369DF07FCD50123EA
:101970000024584848495361C2F8A040C2F8A40066
:10198000C2F8B0304B69DE07FCD5D1F8003145F61E
:101990000D5221209BB24861934265D100244FF43F
:1019A000802201233C48C1F8A040C1F8A420C1F81E
:1019B000B0304369DD07FCD501234FF4000400215A
:1019C000354A4361C0F8A040C0F8A410C0F8B03058
:1019D0005369DC07FCD501234FF400044FF4803039
:1019E0002D495361C2F8A040C2F8A400C2F8B0303B
:1019F0004B69D807FCD501234FF400044FF40030A5
:101A0000254A4B61C1F8A040C1F8A400C1F8B0302C
:101A10005369D907FCD501234FF400042D481E4912
:101A20005361C2F8A040C2F8A400C2F8B0304B69BC
:101A3000DA07FCD5D1F8003145F60D5221209BB2D2
:101A40004861934250D008254FF4000422490020F9
:101A5000224B234A009015705A1A01232148224430
:101A600000F0F6F903B0F0BD1E4B0022C3E90022DE
:101A7000C3E9022203B0F0BD00801F40F9B00100AD
:101A8000F910010000841F40F970010000C00F40F0
:101A9000FFFCFF1F000300A000402A4000802A40F6
:101AA0001200FFFFFF37F7004000008000FFF07CCE
:101AB000FF000F8363000200F05AF05A00422A40F0
:101AC00000432A409F041830EB06180A3806180A0B
:101AD00006320126040003000000007000000070C0
:101AE000AF050120600201204FF400044FF4802272
:101AF00001230848C1F8A040C1F8A420C1F8B030C3
:101B00004369DB07FCD5012310254FF08074436146
:101B10009CE700BF00402A40F0B4154A40274FF42C
:101B200080314FF480564FF400554FF4404443F257
:101B30004200136913F0020F0ED113F4005F0FD0AF
:101B400013F4805F0ED0002BF3DA13F4803F0BD137
:101B50005B060BD5F0BC7047946151619061E8E77A
:101B60005561E6E75661E4E79161E2E75761E0E736
:101B700000800D403F4A03203F49F3EE095AD2F856
:101B800080304FF0000C9FED3D6A23F001039FED84
:101B90003C5A30B4C2F88030C2F89000D1F8E0105E
:101BA000384DCBB2384C39482B6007EE903A0B0DCC
:101BB000C1F30B21F8EEE77A06EE903A07EE101A21
:101BC000334BB8EEC77A2160F8EEE66A314937EE5A
:101BD000C66A37EEC55A76EEC76A77EEE57A26EE24
:101BE000266AC3ED006A25EE265AD2F8803067EEE9
:101BF000A64AC0ED007AC6EE275A274885EE276A26
:101C0000C4EEA76A75EE875AFCEEE55A36EE076A0F
:101C100015EE904ABCEEC66A43EA045376EE877A24
:101C2000C2F8803016EE103AD2F89041FCEEE77A16
:101C300001EA0341214317EE903AC2F89011C3F331
:101C40000B03D2F890110B431449C2F89031D2F82B
:101C5000803043F00203C2F88030114B80F840C05E
:101C6000C1F840314FF0E023012230BCC3F8082115
:101C7000704700BF00810D4000441F400000AA4291
:101C80000000B44294040120900401209804012033
:101C90009C0401200000FF0F00E400E000E40020AD
:101CA0000D060000314B40F6617210B5C3F82021DB
:101CB00040F2044400F0D0F82D4A2E49D2F880308A
:101CC0002D4843F00303C2F880302C4BC1F860412B
:101CD00002681A4203D1D1F8A8319A071BD0254ACD
:101CE0004FF00041244B5963D2F8403143F00203D6
:101CF000C2F84031D2F840319B07FBD44FF400309A
:101D00004FF0E0211C4B4FF00042C1F88C0219202B
:101D10009A6300F0A9F8184A4FF08040154C002152
:101D200090630A20164B11604FF42072C4F8A8018A
:101D3000184600F095F84FF4800203464FF48100F6
:101D400040F243111860C4F858311A640D4B0E4A22
:101D5000C4F84811C3F804224FF0E0224FF40031D8
:101D60000123C2F80C11C4F8403110BD00800D40B1
:101D700000C00F4000002E4000900D40001C1E00CF
:101D80000000002000E40020F507000008B50E4B1D
:101D90001B6E9B0700D4FBBE72B60C4B00200C4A96
:101DA000C3F8400103F160430A49A3F55F231164BE
:101DB0009D46BFF34F8F4FF400130748074ADB6976
:101DC00002609B68984700BF00441F4000002E40FF
:101DD00000C00A400300200000802020000012EB19
:101DE000104BA020104AD96E41F4403110B4D9668E
:101DF00040F23764D96E41F44071D96654649064FE
:101E0000936C1B06FCD4094A40F23761A02351644D
:101E10009364936C13F08003FBD1054A13705DF853
:101E2000044B704700C00F4000400C4000800C4045
:101E3000AE050120F8B500BFF8BC08BC9E4670474F
:101E40005FF800F0711800005FF800F06502000014
:101E50005FF800F0411D00005FF800F0650F000022
:101E60005FF800F0416203005FF800F069010000D4
:101E70005FF800F0DD1B00005FF800F0B99603008A
:101E80004500000005010000A5D40000353E01001A
:101E900081DF0100A18402001D8E0200B5B702009F
:041EA00075BA02000D
:101EA40016035500530042002000530065007200E1
:101EB400690061006C0000001803540065006500AF
:101EC4006E00730079006400750069006E006F0095
:101ED4000403090409026200030100C032080B0074
:101EE40002020201000904000001020201000524AB
:101EF4000010010524010101042402060524060042
:101F0400010705820310001009040100020A000001
:101F14000007050302400000070584024000000991
:101F240004020002FF6AFF00070581024000010766
:101F3400050102400001000009026200030100C023
:101F440032080B000202020100090400000102022F
:101F540001000524001001052401010104240206E6
:101F64000524060001070582031000050904010089
:101F7400020A0000000705030200020007058402AC
:101F84000002000904020002FF6AC700070581027B
:101F94000002010705010200020100000A06000216
:081FA400EF0201400100000002
:101FAC000000000000000000000000000000000025
:101FBC000000000000000000000000000000000015
:101FCC000548064B1B1AD90F01EBA301491002D08F
:101FDC00034B03B118477047C0E60020C0E6002051
:101FEC000000000008B5054B1BB105490548AFF3CF
:101FFC000080BDE80840FFF7E3BF00BF0000000011
:10200C003C04012000B405602DE9F843124D40F268
:10201C00EE28124C124FDFF84C902E6801F058FB52
:10202C00237853B13B78DB0707D52B68D9F8002010
:10203C009B1A0E2B01D9BDE8F8832B6822789B1BC9
:10204C002AB1B3F5FA6FF6D801F042FBE6E7434547
:10205C00FAD9BDE8F88300BF88050120B705012037
:10206C00B60501209805012008B504210B4801F0A4
:10207C00B1FA0B4800F02CF801210D2000F098F873
:10208C004FF47A7000F040F80D20002100F090F829
:10209C004FF47A70BDE8084000F036B8BCC8002098
:1020AC0088D3002010B5054C204602F03BF82046A2
:1020BC00034A0449BDE8104001F054BE10FF002053
:1020CC0050D40020A9210000084601F06DBA00BFD1
:1020DC0000B5036883B040F60D2C022201A95B68A1
:1020EC00ADF804C0984703B05DF804FB054B02281B
:1020FC0088BF034610B41C68184663685DF8044B2F
:10210C00184700BF88D3002000B970472DE9F84F5D
:10211C0001218146214C224D224E54E8003F2A6871
:10212C00306844E80013002BF7D11F494B684FF47B
:10213C007A7BDFF878A01B1A01270BFB02F8DAF880
:10214C000020A3FB02325A4594BF9044D84454E873
:10215C00003F2A68306844E80073002BF7D14B68C5
:10216C00DAF800C01B1A0BFB02F2A3FB0C3CBCF50B
:10217C007A7F94BF624402F57A72A2EB0802B2F540
:10218C007A7F06D3B9F1010908F57A78DFD1BDE879
:10219C00F88F01F09DFA0449D9E700BF8C050120A6
:1021AC008805012084050120001000E08005012035
:1021BC00362816D80201104B03EB00109B5810B4B4
:1021CC00C2685C68144205D061B95DF8044BC3F871
:1021DC0088207047836851B1084A5DF8044B1A6037
:1021EC00704770475DF8044BC3F884207047044A6D
:1021FC005DF8044B1A60704724C5002038F00100CC
:10220C003830010008B5FFF7FFFEFFF72DFF01F096
:10221C005FFAFAE7844641EA000313F003036DD139
:10222C00403A41D351F8043B40F8043B51F8043B8D
:10223C0040F8043B51F8043B40F8043B51F8043B94
:10224C0040F8043B51F8043B40F8043B51F8043B84
:10225C0040F8043B51F8043B40F8043B51F8043B74
:10226C0040F8043B51F8043B40F8043B51F8043B64
:10227C0040F8043B51F8043B40F8043B51F8043B54
:10228C0040F8043B51F8043B40F8043B51F8043B44
:10229C0040F8043B51F8043B40F8043B51F8043B34
:1022AC0040F8043B403ABDD2303211D351F8043BD4
:1022BC0040F8043B51F8043B40F8043B51F8043B14
:1022CC0040F8043B51F8043B40F8043B103AEDD283
:1022DC000C3205D351F8043B40F8043B043AF9D2D4
:1022EC00043208D0D2071CBF11F8013B00F8013BA7
:1022FC0001D30B8803806046704700BF082A13D3B4
:10230C008B078DD010F003038AD0C3F10403D21ACB
:10231C00DB071CBF11F8013B00F8013B80D331F8FF
:10232C00023B20F8023B7BE7043AD9D3013A11F87F
:10233C00013B00F8013BF9D20B7803704B784370EA
:10234C008B7883706046704701F1FF3C70B5664630
:10235C00002400E00134B0FBF2F502FB1503092B5D
:10236C0003F1370E03F130035FFA8EFE98BF5FFA6C
:10237C0083FE9042284606F801EFEBD2631C002244
:10238C00C818CA547CB162461CF8015F10F8016D84
:10239C00A1EB0C0302328CF80060013B521A057061
:1023AC0023449A42EFDB084670BD00BF72B6EFF3D0
:1023BC000583524CC4F884301EF0040F0CBFEFF3AD
:1023CC000882EFF309824FF0E0234D4E4D4DD3F8C8
:1023DC00280DD3F82C1DC4E92201D3F8341DD3F8F1
:1023EC00383DC4E924139369C4F89830D369C4F810
:1023FC009C3000F0DDF884ED280A01F039FC0B214B
:10240C004FF0FF32C4F8A4000B46C4F880103E49CC
:10241C00301D5A40202402F00103013C01FB03F360
:10242C0083EA5202F7D1A84202D073680646EFE75E
:10243C00324BC3F8A820BFF34F8F4FF0E023304945
:10244C00324AC3F8701FC3F8702FBFF34F8FBFF31E
:10245C006F8F2F4A02252F48D36E2F4943F44053D8
:10246C00D3660560D3692D4823F07F0343F0400306
:10247C00D3610B6883423DD8264D00214FF0E023F9
:10248C004FF0FF3229600126C5F808112449C5F820
:10249C000011C5F80861C3F88021C3F88421C3F882
:1024AC008821C3F88C21C3F8902101E000F072F967
:1024BC00D5F80C31002BF9D00134C5F80C614F2C38
:1024CC00F4D9184B022018494FF00042C1F84001D2
:1024DC005A63D5F80C313BB9144815490D4A0163C0
:1024EC00D2F80C31002BFAD04FF0E023114AC3F88C
:1024FC000C2DFEE701F08CF9BEE700BF00FF272092
:10250C0080FF2720A8FF27202083B8EDA0FF2720DD
:10251C0000C00F400040084084D30020803DCD0B0C
:10252C00009F240000900D4000002E4000800F40C2
:10253C00F100AD0B0400FA050A490A6838B108B578
:10254C0013180948834204D810460B6008BD104686
:10255C00704738F0ABFE0C234FF0FF32036010468F
:10256C0008BD00BF2CD4002000002820002070479C
:10257C004FF0FF30704700BF4FF4005300204B600A
:10258C00704700BF012070474FF0FF30704700BF0D
:10259C0030BFFDE70078B0FA80F04009704700BF0B
:1025AC0001230370704700BF30BFFDE7FFF7FEBE8D
:1025BC00124AD2F880305B07FBD5D2F88030104835
:1025CC00C3F30B230F4990ED007A07EE903A91ED8F
:1025DC00006AB8EE477A0C4AF8EEE77A0B4BD2ED6C
:1025EC00006A77EEC77A93ED007AB8EE477A67EE19
:1025FC00867A87EEA60A37EE400A704700810D40B6
:10260C0090040120980401209C04012094040120D2
:10261C00836BF0B41BB1536843F40043536072B640
:10262C00446B3CB31A4B2260D3F8B0410C421DD121
:10263C00184E776804E07468E41BB4F5166F0BD27F
:10264C00D3F8404144F48044C3F84041D3F8B85126
:10265C00D3F840416404EED50D4007D10C4CC0E9D1
:10266C000225D4F8B0310B43C4F8B031426362B6E2
:10267C00F0BC7047064DC0E90224D5F8B0310B43CD
:10268C00C5F8B0310263426362B6F0BC704700BF5C
:10269C0000002E40001000E070B5056B9DB10646A1
:1026AC002A46002403E012680134012A0CD0536836
:1026BC0013F08003F7D032632CB12846B36B2D682E
:1026CC009847013CF9D170BDC6E90C33F4E700BF63
:1026DC0030B4D9B91F4C204B0021204A01254FF0B2
:1026EC00011099601D60C4E9023180245C60C2F85D
:1026FC00BC01D2F8B0311A482B43C2F8B03101609A
:10270C00D2F8B031002BFBD130BC70470904154B0B
:10271C00104C012541F080019860104A596000F579
:10272C0080511D60D96000F50051A364196100F55A
:10273C00405100F58040596100219861E164D2F864
:10274C00B03143F48033C2F8B031D2F8B031002B41
:10275C00FBD1C0E700000020C0E6002000002E40A6
:10276C0054020120E0E60020084901220B7802FA0D
:10277C0000F023EA0000087030B9054AD2F848315D
:10278C0023F08003C2F84831704700BFB205012026
:10279C0000002E402DE9F04F974C83B0D4F84471D3
:1027AC00FB07C4F8447153D5D4F8AC21002A4AD0A5
:1027BC00924EDFF860A2DFF87492DFF874B2DFF8A3
:1027CC007482C4F8AC21D6E90A20D4F8403143F421
:1027DC000053C4F84031D4F840319D04F5D5D4F8F9
:1027EC00403123F40053C4F840314FF00113C4F8C6
:1027FC00B431D4F8B45115F00115FAD193B2844622
:10280C00CAF80050B3F5086F00F0CF8100F2DB80FE
:10281C0040F202318B4200F0E78100F29A80822B69
:10282C0000F0CB81B3F5817F40F08A8010F0780FF7
:10283C0083B200F003824FF00113C4F8C031D4F816
:10284C00AC21002ABDD16C4AD2F8BC31002B42D14C
:10285C007E0616D5684BD3F8AC21C3F8AC21D3F85F
:10286C00BC21C3F8BC21D3F8B041002CFBD14FF0F4
:10287C00FF32C3F8B421D3F8843100F02DFD604B46
:10288C001C60FC0103D55F4B1B6803B19847B80172
:10289C0003D55D4B1B6803B19847790708D5564B98
:1028AC00D3F8843113F4007347D0584B01221A70BB
:1028BC00514BD3F848311A060AD53B0608D5544A71
:1028CC0013782BB1013BDBB21370002B00F072823A
:1028DC0003B0BDE8F08F4F49C2F8BC310868034221
:1028EC0040F0D181464A14681C40B1D05FEA1448CC
:1028FC0010D0424E4FF0010998FAA8F5B5FA85F5BB
:10290C0006EBC51009FA05F54030FFF7C5FE38EAAD
:10291C000508F1D1A4B2002C9AD0384E4FF0010822
:10292C0094FAA4F5B5FA85F506EBC51008FA05F589
:10293C00FFF7B2FEAC43F3D18AE7344A1370B7E722
:10294C00802B7FF478AF344802210580FFF7C0FE5E
:10295C0075E7B3F5A06F00F00B81A3F5D063012BE5
:10296C003FF669AF2D4B5D68002D3FF464AF1FFA45
:10297C008CFC4FEA124E04E01D690C33002D3FF421
:10298C005AAF1A887245F7D15A886245F4D14FEA8A
:10299C001E22032A00F0A5811A89000C824228BF4E
:1029AC000246BEF5007F40F0A181184B1C491878F7
:1029BC001C4B0192002818BF19461B48FFF72AFC34
:1029CC00194D019AE1E142F221218B427CD033D99D
:1029DC0042F221318B4200F081804FF6C0018B42D4
:1029EC007FF429AF10F47F4F83B27FF424AF43F40C
:1029FC006E4363F30F0CB5E700002E40000000207F
:102A0C00580201209C050120A0050120B8050120D9
:102A1C00B905012054020120580401208CD000205B
:102A2C00D81E00603C1F0060000020204C020120DA
:102A3C005DCFC6B8C0012E40B3F5106F66D042F220
:102A4C0021018B427FF4F7AE030C072B7FF4F3AE1E
:102A5C00B24BB349F560D960B249B360C3F8089082
:102A6C00C1E9002001221A60AF4A5A60AF4A1A61CC
:102A7C00D4F8B01141F00101C4F8B01102F5805145
:102A8C0002F5005259619A61D4F8B031002BFBD198
:102A9C00A74AF36493600123B264136048F2800385
:102AAC0053604FF00113C4F8BC31D4F8B03143F487
:102ABC008033C4F8B0314FF48033CAF80030D4F806
:102ACC00B031002BFBD1BAE680B238B9994BC2F3C6
:102ADC0007421968984B1960984B1A70944B002256
:102AEC009A60F2640122B3641A6080225A604FF03B
:102AFC000113C4F8BC31D4F8B03143F48033C4F8BA
:102B0C00B031D4F8B031002BFBD198E6C2F30742B8
:102B1C008B4B1A708B4BC4F8C8318B4BC4F8CC312F
:102B2C008A4BC4F8D03100F0D9FB80222946884862
:102B3C0035F056FB874B8022C6F8A0B0C6F8E030C3
:102B4C007B4BF5645A600122B3649D601A604FF0B0
:102B5C000113C4F8BC31D4F8B03143F48033C4F859
:102B6C00B031CAF80050D4F8B031002BFBD166E676
:102B7C006F4B0121F564196080219D60B36459602D
:102B8C004FF00113C4F8BC31D4F8B03143F48033A6
:102B9C00C4F8B031D4F8B031002BFBD1130C5B0668
:102BAC0043F08073C4F8543149E6654B01216A48FF
:102BBC001B780370FFF78CFD41E683B210F07800B0
:102BCC007FF439AE03F07F0258F82210624A10806D
:102BDC00180600F19E80CB0701D50123137002214A
:102BEC005D48FFF775FD2AE610F0780F83B27FF48D
:102BFC0022AE03F07F0213F0800F58F8223014BF7E
:102C0C0043F4803343F0010348F822300022484B50
:102C1C00F2649A600122B3641A6080225A604FF009
:102C2C000113C4F8BC31D4F8B03143F48033C4F888
:102C3C00B031D4F8B031002BFBD100E603F07F02A9
:102C4C0013F0800F58F8223014BF23F4803323F094
:102C5C00010348F822300022354BF2649A600122BD
:102C6C00B3641A6080225A604FF00113C4F8BC316F
:102C7C00D4F8B03143F48033C4F8B031D4F8B03167
:102C8C00002BFBD1DBE50020086026490C88486846
:102C9C0042F221018C427FF425AE80B200287FF4F1
:102CAC0021AE2E492E4C03C9A18086284FEA114132
:102CBC002060A1717FF416AE72B62A48017841F0FB
:102CCC0008010170D2F848110D0605D4802001438B
:102CDC00C2F84401C2F8481162B6234A502111705F
:102CEC0000E6000C2A78824228BF0246BEF5E06F4F
:102CFC0044D11E4B1E4D18781E491F4B01920028C3
:102D0C0018BF19462846FFF785FA07236B70019AFE
:102D1C003BE0C9033FF561AF61E700BFE0E600208F
:102D2C004C12012080E80020800007004C2201207A
:102D3C00C0E600208805012098050120B605012079
:102D4C00B70501200200CC00C80002000200C80038
:102D5C00800000201993D574580401204C020120E6
:102D6C0090050120B2050120B9050120B80501200C
:102D7C00000020203C1F0060D81E00602946104D2A
:102D8C0001922846FFF746FA019A25F01F031544D5
:102D9C00BFF34F8F4FF0E021C1F8703F20339D42BD
:102DAC00FAD8BFF34F8FBFF36F8F05481146FFF76B
:102DBC008FFC44E50320FFF7D7FC45F015FD00BF61
:102DCC00000020202DE9F0471F46831E022B01D95D
:102DDC00BDE8F087DFF84C9015460C463C2209EB19
:102DEC00C01806464FEAC01A002108F1040024045A
:102DFC0035F0F6F9B5FA85F20123520944EA42742A
:102E0C0049F80A40C8F83870C8F80830002FDFD0ED
:102E1C00034AB34011680B431360BDE8F08700BF51
:102E2C0058020120000000202DE9F0470D46811EBC
:102E3C00022901D9BDE8F087C701DFF84C90924612
:102E4C00044640373C2200211E4609EB07082D049E
:102E5C0008F1040035F0C4F9BAFA8AF2520945EACD
:102E6C00427249F807200122C8F83860C8F80820D7
:102E7C00002EDFD0034B10341968A2400A431A60AD
:102E8C00BDE8F08758020120000000201204816088
:102E9C00C36101F5405342F0800210B4012442603A
:102EAC0001F50052046001F5805401F58041C460C5
:102EBC0081615DF8044BC0E904237047831E0A4608
:102ECC00022B00D97047064B00F110014FF0010C9A
:102EDC0003EBC0100CFA01F14030FFF799BB00BFB7
:102EEC0000000020831E0A46022B00D970470121E6
:102EFC00024B814003EBC010FFF78ABB000000209F
:102F0C0040687047124A134BD2F8200220F07F40E1
:102F1C00984210B584B002D200EB800040000E4CF9
:102F2C0001A90A22FFF710FA01A90023204611F883
:102F3C00012B01333AB10A2B20F8022FF7D11623BB
:102F4C00237004B010BD5B00DBB2237004B010BD65
:102F5C0000441F4080969800ECE1002000F0DCBAA1
:102F6C0000F0ACBA00F010BB00F0CABA00F066BBBF
:102F7C0000F03CBB0846114600F02CBBF8B5144CD5
:102F8C004FF0E025134E4FF4003204EB4024124F67
:102F9C0006EB40160346C5F88C2121463A8830468C
:102FAC00FFF774FF3B882344BFF34F8FC5F85C4F8A
:102FBC002034A342FAD8BFF34F8FBFF36F8F032097
:102FCC003146FFF78FFF4FF40033C5F80C31F8BDD5
:102FDC008000202000E70020A4050120244B2DE9CF
:102FEC00F0411C884368C569C3F30E43E41A002CF6
:102FFC0024DD204920480A780078D3B21F4E824243
:10300C001F4807D010F8038036F81870C7F5007207
:10301C00944218D90133002226F81540082B194E7A
:10302C0088BF134626F8152098BFDAB2C554164B44
:10303C000A701A6814441C60BDE8F0812846BDE88B
:10304C00F041FFF79BBF07EB48201049224627446D
:10305C00084401EB4521FFF7DDF80B4A284626F81A
:10306C00187013682344BDE8F0411360FFF786BF66
:10307C00A4050120B0050120B10501206404012044
:10308C0084040120740401206004012080002020AD
:10309C001D4B1A78002A36D102F0FF031B4A127816
:1030AC008AB32DE9F0411A4D2A8852B3194EC2F554
:1030BC000068194F3278194C07EB421704EBC22405
:1030CC00424638462146FFF7E1FE04EB0802BFF307
:1030DC004F8F4FF0E023C3F8704F2034A242FAD840
:1030EC00BFF34F8FBFF36F8F04203946FFF7E6FE17
:1030FC0033780133DBB2032B88BF002333700023FA
:10310C002B80BDE8F0817047B5050120B705012083
:10311C00A6050120B405012000E800208010202025
:10312C002DE9F04F85B0CDE90110002900F0BF80EA
:10313C000023604CDFF89881DFF898A15E4F009374
:10314C0001235E4A23705E4B1978B8F8003002EB0D
:10315C004119002B40F0A7801E461D469B46484651
:10316C00FFF7CEFE10F0800000F08C80BFF34F8F85
:10317C009AF8003084F800B005B93E68002B7DD178
:10318C003B689B1B782B00F287804E4B1B78002BE7
:10319C0074D000F09DFA0122B8F800301546227068
:1031AC00002BDCD0464AC3F5006011781A4600EBC0
:1031BC00C120454DC9022844019D954217D2039365
:1031CC00DDE901512A46FFF725F8039B4FF04042F9
:1031DC005B1BA8F800303D4BC3F88420BFF34F8F26
:1031EC00009800232844237005B0BDE8F08F364BBF
:1031FC00CD180299FFF70EF800234FF40062294610
:10320C004846FFF743FEBFF34F8F05F1200205F54B
:10321C000063934234BF012340234FF0E02205EBBF
:10322C004313C2F8705F2035AB42FAD1BFF34F8F16
:10323C00BFF36F8F04204946FFF740FE204A1378F6
:10324C000133DBB2032B84BF00231D4A1370B8F883
:10325C000030019AD11A009A1A4401910092029AF4
:10326C001A4400230292194AA8F80030C2F884309C
:10327C00BFF34F8F237000297FF462AF009805B025
:10328C00BDE8F08F4FF400620D4B8AF800001978FE
:10329C001346A8F800208AE7012300988AF800302A
:1032AC0005B0BDE8F08F1A46C3F500607FE70198C2
:1032BC00E5E700BFB50501208805012000E80020E6
:1032CC00B4050120B70501208010202000002E40FD
:1032DC00A6050120B3050120704700BF2D4B00212E
:1032EC0080222D4870B51B7800242C4D8B422C4E1F
:1032FC000CBF40234FF400732B80338034F070FFED
:10330C00284A2146284B14704FF4807227481C80A1
:10331C0034F066FF264A1021264B0220C2E90044F5
:10332C00C2E90244244AC3E900441470234AC3E9A5
:10333C000244234B1C70234614602246FFF774FD95
:10334C002246318803201F4BFFF73CFD2346012208
:10335C0029880420FFF768FD20460134FFF70EFE94
:10336C00082CF9D1184B00214A221848184C04603B
:10337C00C3F88410C3F88020D3F84821154942F0D3
:10338C008072C3F8482121B1134A137843F001032A
:10339C00137070BDB805012000E80020A8050120BD
:1033AC00A4050120B4050120A605012000E700209A
:1033BC006404012074040120B00501206004012084
:1033CC00B10501203D10000000002E409C0501209D
:1033DC00F110000000000000BA0501202DE9F04FAB
:1033EC004FF0E0234FF40032DFF8C8A083B0C3F8ED
:1033FC008C218B469AF8004000294FD08046E4B2CD
:10340C000027DFF8B490264BABEB070225491B785D
:10341C00A34204F101043FD0092C234B404628BFA2
:10342C0000241E5D39F816C00CEB462319441F4BC3
:10343C0033F81650A5EB0C05AA421CD20CEB462C0B
:10344C0018491B4C61440192FEF7E4FE216839F8DF
:10345C0016505846019AA1EB0B012A44394429F81D
:10346C00162021604FF0E0234FF40032C3F80C21FA
:10347C0003B0BDE8F08F2A462F44FEF7CBFE0C4973
:10348C00E3B230460A68A844521B0A608AF800303E
:10349C00FFF774FDBB45B6D83846E3E70846E1E7CD
:1034AC00B005012080002020840401206404012048
:1034BC0060040120B1050120740401200B4B0C4A5F
:1034CC0012781978D3B28A420DD0013309480A4ACE
:1034DC00092B0A4928BF0023C35C31F8131002EBF7
:1034EC004323585C70474FF0FF307047B005012004
:1034FC00B1050120840401208000202074040120E7
:10350C00044B10B51C680CB1204610BD00F0E0F85F
:10351C00204610BD600401202DE9F84F144E154DC6
:10352C0033782A78934221D0DCB2DFF85090DFF860
:10353C0050B0DFF85080104F0134082C5FFA84FA39
:10354C0001D90024A24619F80400DBF8003038F841
:10355C00102037F81010521A9B1ACBF80030FFF7D6
:10356C000DFD86F800A02B78A342E5D1BDE8F88FBD
:10357C00B1050120B0050120740401208404012050
:10358C00600401206404012000B583B001210DF119
:10359C000700FFF723FF20B19DF8070003B05DF88B
:1035AC0004FB4FF0FF30F9E7094B00B583B01B78F3
:1035BC008DF807003BB101210DF10700FFF7B0FDBD
:1035CC0003B05DF804FB03F0FF0003B05DF804FBEF
:1035DC00B7050120044B1B7803F0FF020BB1FFF77A
:1035EC009FBD1046704700BFB70501202DE9F04183
:1035FC000024DFF8448001230D4D27460D4E88F83A
:10360C000030337828462035A34204F1010405D05C
:10361C00FFF776FC030658BF07F50067042CF0D1C2
:10362C00BFF34F8F0023384688F80030BDE8F08197
:10363C0000E80020B4050120B50501202DE9F84370
:10364C001D4B1B7813B11D4D2A880AB9BDE8F883B0
:10365C001B4EC2F500691B4933784A461A4C01EBE4
:10366C0043181A4F04EBC324012340463B702146F8
:10367C000023FFF70BFC04EB0902BFF34F8F4FF055
:10368C00E023C3F8704F2034A242FAD8BFF34F8F17
:10369C00BFF36F8F04204146FFF710FC33780133E2
:1036AC00DBB2032B88BF0023337000232B80BFF3C6
:1036BC004F8F3B70BDE8F883B7050120A6050120AC
:1036CC00B405012000E8002080102020B505012061
:1036DC002DE9F8432D4B1E7866B12D4F3B784BB935
:1036EC000123F1073B7043D4B20726D400233B706F
:1036FC00730701D4BDE8F883264B1A68002AF9D069
:10370C00EFF30582002AF5D1EFF3108572B6186835
:10371C00002834D0204C2178002930D1012222708D
:10372C0042691A60002A2ED0916105B962B6002553
:10373C008368457798472570DCE7DFF8648098F854
:10374C000030002BD2D00025DFF858902B4659F8CA
:10375C0023400135236820461B69984710B16369E3
:10376C009B68984798F80020EBB29A42EFD8BDE7D7
:10377C00FFF7C6FE0028B7D0AFF30080B4E7002DEA
:10378C00B8D162B6B6E7054B1A60CEE7BA05012090
:10379C00AC050120D4F70020AA050120E0F7002099
:1037AC00AB050120D4F8002070B5EFF3108272B68F
:1037BC000C4C206880B10C4E00254369236073B11A
:1037CC009D6102B962B6836845779847EFF3108222
:1037DC0072B620680028F0D102B962B670BD3360B1
:1037EC00EFE700BFDCF70020D8F70020FFF7DCBFC5
:1037FC000449054A4968054B196013680133136085
:10380C00704700BF001000E08805012084050120EE
:10381C00A249A34B88422DE9F047A24C5E699A69F4
:10382C00D4F80C801BD9A04B984240F20281C31AE9
:10383C009E491B0AA1FB031340F22761DB0903EB32
:10384C00830303EB830303F2E2438B4228BF0B4653
:10385C00A3F54877964BA3FB0737FF0804E0954F79
:10386C00B8428CBF0E2706278D4908F01F09D1F8E6
:10387C008030B94543F0C003C1F880300CD228F039
:10388C001F08A1F5F82148EA0708C1F80C800B685D
:10389C00002BFCDA08F01F0916F0007324D18649BE
:1038AC000C698649A14300F0EA8082F480513446C9
:1038BC004FF4805514F0605F04D026F060561E4320
:1038CC00774B5E6111F4405F07D022F4405274498B
:1038DC002A438A618B6C1A07FCD446F00076704A36
:1038EC005661936C9B06FCD4754CA04200F2CE80C2
:1038FC004FF0010C0146634603FB011203F1010E6C
:10390C000CF10105A24218D8BEF1080F4FF00103CB
:10391C0040F08D80BCF1040F00F291800A18A24295
:10392C0000F2A48005FB00F1AC4603F1010E03FB91
:10393C0001120CF10105A242E6D90CF1FF318C0207
:10394C0086EA81215F4810445F4A90427FD9DFF8B4
:10395C00A4A16C225D48584DB0FBFEF0D5F800E0F8
:10396C00B0FBFCF0DFF890C10EEA0C0CD44509D08A
:10397C0042F400524FF4805CC5F800C02A602A68FB
:10398C00002AFCDA464A156905F007059D4203D06A
:10399C001361936CDD03FCD411F4E05F09D026F4C1
:1039AC00E05604F4E0543E4A26435661936C990762
:1039BC00FCD44749474A014491423CD8464BC9097B
:1039CC00A3FB0131090B4B1E1B0286EA030212F406
:1039DC00407F06D026F4407603F44073304A3343DC
:1039EC0053612F4A536923F000735361936C9B0608
:1039FC00FCD43A4B4F45A3FB00234FF0FF324FEA68
:103A0C009343B0FBF1F1B2FBF3F3354A1060354A46
:103A1C001160354A136008D228F01F08214A48EA81
:103A2C000707D7601368002BFCDABDE8F0877346F4
:103A3C0062E7122718E74FF440730421C5E70CF135
:103A4C00FF31204807238C02104486EA8121274A43
:103A5C00DFF8A8A0A2FB0020020D2548362A38BFAB
:103A6C00362202FB00F042EA0A0A74E74FEA8C2481
:103A7C00002386EA8C214FF0010EAC4662E71D460E
:103A8C0086F0C05411464FF0C05313E700244FF09A
:103A9C00010C024631462346E64653E700A4781F44
:103AAC0000C00F40000008400046C32323B24C0066
:103ABC001F85EB5100366E0100800D4040300080B8
:103ACC00FFB19F26808D5B00FF7EF64D00643F4D5D
:103ADC007FD1F0087F17B42C9F10E50083DE1B43C9
:103AEC0084D3002080D3002080050120819F5E16A6
:103AFC00001BB7006C2000807F300180002000800C
:103B0C0000230F2248F2B82C194610B54FF470441C
:103B1C004FF4806EA0F88C414FF46044A0F88E21D5
:103B2C000A46A0F89031B0F888319BB243F0F0030C
:103B3C00A0F8883101EB4103013100EB4313042958
:103B4C009C80A3F806E05A841A865A805A81A3F8FE
:103B5C000EC05A82DA825A83DA83EBD1B0F88831FC
:103B6C009BB243F00F03A0F88831B0F888319BB2B8
:103B7C0043F47063A0F8883110BD00BF374B384A4E
:103B8C00996F384841F47F0170B5996741F201068D
:103B9C00D3F8801045F6C05543F226040A43C3F807
:103BAC008020FFF7ADFF00F58040FFF7A9FF00F57F
:103BBC008040FFF7A5FF00F58040FFF7A1FF002232
:103BCC00A0F503104FF00F0E114600EB42134FEA15
:103BDC00421C01329981042A5981A3F80EE09E827D
:103BEC00DD8020F80C1019829C81EED100221E4839
:103BFC004FF00F0E41F20106114645F6C05543F247
:103C0C00260400EB42134FEA421C01329981042A2C
:103C1C005981A3F80EE09E82DD8020F80C101982E9
:103C2C009C81EED1002211480F2641F2010511466C
:103C3C0045F6C05443F2260E00EB42134FEA421CE9
:103C4C0001329981042A5981DE819D82DC8020F821
:103C5C000C101982A3F80CE0EED170BD00C00F401F
:103C6C00000003FC00C03D4000001E4000401E4010
:103C7C00074A506A936A19468446506A936A994275
:103C8C00F9D18445F7D1DB0B43EA4040704700BFC4
:103C9C0000400D4008B5D0E900325BB1BAB10F4B12
:103CAC00A3FB0213DB0803EB4303B2EB83030AD140
:103CBC00012008BD094BA3FB0213DB0803EB4303F4
:103CCC00B2EB830301D0D21A4260F02AF0D837F05D
:103CDC00EDFA1C22034600201A6008BDABAAAAAA62
:103CEC0070B5044638B319B1B2FA82F67609A2B9A6
:103CFC00206800B36268F2B1184B194902FB03F358
:103D0C00B1EBB30F17D3A368E3B9002201232260F0
:103D1C006260A260E260184670BD1D46049BC0E95B
:103D2C000012C360FFF7B6FF03460028F3D06DB94D
:103D3C000123184670BD37F0B9FA16220023026031
:103D4C00184670BD002134F04BFADEE7626831464C
:103D5C002068A56034F044FA0123DCE7ABAAAAAAD8
:103D6C005555551503460846194637F05BBA00BF42
:103D7C002DE9F04FD04FD14D3968DFF89093D04BEF
:103D8C008E68DFF84C83DFF888B3002483B00122FF
:103D9C00C5E90094C5E90244C5E90444AC6105F1E8
:103DAC001C001A7001F094F83B682E624FF0FF3A39
:103DBC005B68C8F80090C8E90144C8E90344C8E945
:103DCC000544C5F824A008F11C00C5F800B0019307
:103DDC0001F07EF8019BBB4EC8F820303B68C6F85A
:103DEC000090C6E90144DB68C8F824A0C6E9034486
:103DFC00C6E9054406F11C00C8F800B0DFF8FC92D7
:103E0C00019301F065F8019BDFF80883C6F800B058
:103E1C00C6E9083AA9F10406484608F1140A12F05A
:103E2C0045FBC6E91F44C6E9214429467467A6F838
:103E3C00784049F8048C4846C6F804A012F0D0FA31
:103E4C00A14C204612F032FBA04B44F8083C143332
:103E5C0023600023C4E91E33C4E920332367A4F88C
:103E6C00743044F8043C20469949083C12F0B8FAE6
:103E7C00984DA5F10409284612F018FB0023C9E956
:103E8C001F33C9E921338F4945F8048C2846C9F8FA
:103E9C0004A0C9F87430A9F8783012F0A1FADFF850
:103EAC0068B2ABF10405584612F000FB0023C5E9DB
:103EBC001F33C5E9213383494BF8048CC5F804A0A2
:103ECC0058466B67A5F8783012F08AFAD9F810309A
:103EDC00814DDFF844B2A66743F40053C9F81030A3
:103EEC003B68C9F8746000249E68AC61C5E900B4F5
:103EFC00C5E90244C5E9044405F11C0000F0E8FFE3
:103F0C00DFF8E8813B682E624FF0FF39DFF80CA236
:103F1C005B68C5F800A0C5F82490C8F800B0C8E9E3
:103F2C000144C8E90344C8E9054408F11C000193A5
:103F3C0000F0CEFF019B694EC8F820303B68C6F8F4
:103F4C0000B0674FD3F80CB0C8F82490C8F800A0A4
:103F5C00C6E90144C6E90344C6E9054406F11C0060
:103F6C0000F0B6FFDFF8B881C6F800A0C6E908B9C2
:103F7C00384612F09BFA294608F114093D1FC5E991
:103F8C001D44C5E92044C5E9224447F8048C384651
:103F9C0085F87C40C5F8049012F072FA514C20461A
:103FAC0012F084FA504B44F8083CA4F10806143380
:103FBC00B3600023C6E91E33C6E92133C6E92333B7
:103FCC004A4986F880302046736012F059FA484FFF
:103FDC003C1F384612F06AFA0023C4E91D33C4E9C9
:103FEC002033C4E922333D4947F8048C3846C4F8E1
:103FFC00049084F87C3012F043FADFF808A1AAF19F
:10400C000407504612F052FA0023C7E91D33C7E9E2
:10401C002033C7E9223331494AF8048CC7F804909D
:10402C00504687F87C3012F02BFA324922690B6823
:10403C00B56742F400520133226165670B6003B02F
:10404C00BDE8F08F2C4B73602C4812F06BFA26F005
:10405C00C9FE2B4B7B602B4812F064FA26F0C2FE93
:10406C00274B6360224812F05DFA26F0BBFE244B0E
:10407C00B3601C4812F056FA26F0B4FE204B6B606D
:10408C00174812F04FFA26F0ADFE1B4B6B601E4822
:10409C0012F048FA26F0A6FE174BC9F804300D486A
:1040AC0012F040FA26F09EFE134BA360064812F065
:1040BC0039FA26F097FE00BFDCD9002034F8002036
:1040CC0002E200200CF80020A0FA0020103800209A
:1040DC00E4F700202CFB0020ACF8002084F8002032
:1040EC0084FE0020D4FC0020C83900205CF800209D
:1040FC0064FD002064FA00206840002044FC00208D
:10410C0078400020F4FD0020B8FB0020283A002065
:10411C00AC30002038380020683A0020EC30002009
:10412C00F0390020074A1368591C116003B170471D
:10413C0000B583B00190FFF71BFE019803B05DF84A
:10414C0004FB00BF64FA0020114A1368591E022BAD
:10415C0010B50446116001D0204610BD0D481BF06F
:10416C00D9FF0D481BF0D6FF0C481BF0D3FF0C48B1
:10417C001CF00CF80B481CF009F80B481CF006F866
:10418C00204610BD26F0B6FF26F0F2FFE4E700BF94
:10419C0064FA002040FC002028FB0020B4FB002027
:1041AC0080FE002060FD0020F0FD0020704700BF65
:1041BC0010B5044626F00CFD204610BD044A0B68D1
:1041CC0012680360934202D01A6801321A60704779
:1041DC00E4F900200160704710B5054C206800B16F
:1041EC0010BD02460349204628F05AF9206810BD3C
:1041FC00ECF90020000F002000487047000F002051
:10420C0070B505464068E8B1AB68CBB1304E0024C0
:10421C0003E0AB680134A34211D950F82420002AE2
:10422C00F8D05368591E012B5160F2D113685B68AA
:10423C00B342104637D126F0CBFC6868E9E708B1E9
:10424C0026F0CAFCE868E8B1AB68CBB1204E00247C
:10425C0003E0AB680134A34211D950F82420002AA2
:10426C00F8D05368591E012B5160F2D113685B686A
:10427C00B342104619D126F0ABFCE868E9E708B167
:10428C0026F0AAFC2B6963B10024185910B126F052
:10429C00A3FC2B690434182CF7D113B1184626F063
:1042AC009BFC284670BD9847C7E79847E5E726F082
:1042BC0021FF26F05DFFC0E726F01CFF26F058FF1B
:1042CC00DBE7013102D126F0A3FEFAE726F08AFDE6
:1042DC001122000038B50A4B05681B689D42044644
:1042EC0004D02B685A1E012B2A6001D0204638BD01
:1042FC002846FFF785FF284626F06AFC204638BD85
:10430C00E4F900200F4B1A680B68934270B50E4607
:10431C00044602D01868013018602568AA4204D0FF
:10432C002A68501E012A286002D02360204670BDE6
:10433C002846FFF765FF284626F04AFC33682360C1
:10434C00204670BDE4F90020002A00F0E5802DE93C
:10435C00F04F0C6883B00546164624B9A94B1C686F
:10436C0001341C600C60AB68671E013BBB425CD225
:10437C0004F103086FF06043984534BF4FEA880A94
:10438C004FF0FF3A5046D5F804B027F061FB814658
:10439C00A86868B16B6803EB800CA9F10402043BBC
:1043AC00ACF1040C53F8041F42F8041F9C45F9D1DE
:1043BC00804507D9A8EB0002920009EB8000002190
:1043CC0033F00EFF5046D5F80CA027F041FBD5F882
:1043DC0008C00346BCF1000F0CD0EA6802EB8C0E4F
:1043EC00011F043AAEF1040E52F8040F41F8040F09
:1043FC007245F9D1E04509D9A8EB0C0203EB8C000E
:10440C0092000021019333F0EBFE019BEB60C5E9B8
:10441C000198BBF1000F02D0584626F0DDFBBAF133
:10442C00000F02D0504626F0D7FBD5F804807368F5
:10443C0058F827C001337360BCF1000F43D0724AA7
:10444C001168002938D06F480EE0D2F804E0DEF88D
:10445C00003023B9036801330360CEF800309C426E
:10446C0069D052F8081F39B30B681BB903680133C4
:10447C0003600B609C42E8D151680B6823B9614A18
:10448C001368013313600B605C1E58F824309BB129
:10449C0030460DF0DBF9814658F82400D9F8043089
:1044AC000133C9F8043043685A1E012B426068D0AE
:1044BC0048F8249058F827C0DCF804305A1E012B19
:1044CC00CCF804202DD0AA6848F827600AB3002441
:1044DC00EB68DFF83881274604E0AA680F600134E6
:1044EC00A24216D953F82400A60003EB840100283D
:1044FC00F5D0426802F1FF3C012AC0F804C0ECD1AF
:10450C0003685B68434508D126F062FBEB68991998
:10451C00E3E703B0BDE8F08F70479847EB68991953
:10452C00DBE7DCF80030394A5B689342604626D101
:10453C0026F04EFBC7E70B6823B9324A13680133E8
:10454C0013600B605C1E58F82430002BB4D030463E
:10455C0004F0B8FE814658F82400D9F80430013331
:10456C00C9F8043043685A1E012B4260A0D103687D
:10457C00264A5B6893420BD126F02AFB98E79847B2
:10458C00A1E70368214A5B689342F5D098478FE70F
:10459C0098478DE726F0AEFD26F0EAFDBEE726F043
:1045AC00A9FD26F0E5FD8EE726F0A4FD484626F091
:1045BC0013FB27F0EFF926F09DFD26F0D9FD77E7E8
:1045CC0026F098FD26F0D4FD72E7013115D126F0C6
:1045DC001FFD013105D126F01BFD013103D126F061
:1045EC0017FD26F0FFFB26F0FDFB26F0C1FD26F0A3
:1045FC00F9FB013103D126F00BFD26F0F3FB26F07D
:10460C00F1FB00BFE8F90020440E0020112200004D
:10461C002DE9F041374C2368BFF35B8FDB0707466E
:10462C000E4615464AD5344B1C68002C3AD03348FC
:10463C009C460BE023B90168013101600B46116007
:10464C00013B9D4243D05CF8084F5CB3236823B90F
:10465C0002680132026013462260013BDCF8042040
:10466C009D421368E6D1002B3BD0013BFA6852F80F
:10467C00251051B1A6B13368214A5B68934230468C
:10468C0035D1BDE8F04126F0A3BA7168481C7060C2
:10469C00581C42F8256003D00231716042F8236047
:1046AC00BDE8F081FB6853F82520002AE2D172683E
:1046BC000132726043F82560BDE8F0812046FDF7B9
:1046CC0069FF0028AFD02046FDF76AFFABE72268F0
:1046DC0022B90A4B1A6801321A6022602B46551E09
:1046EC00C4E706490B6801330B601360BDE7BDE8F6
:1046FC00F04118472CE90020440E0020E8F9002076
:10470C001122000003682BB903490A6801320A60C0
:10471C0013460260581E7047E8F900202DE9F04F4F
:10472C00C54C0160302389B006468360C02200214D
:10473C00204633F055FDC14B746000211846C02251
:10474C0033F04EFDBE4DBF4A0024C6E90302C2E958
:10475C000054C2E90244C2E90444FFF74DFD02884B
:10476C002A80B94801232246214605F08FFFB64A1C
:10477C00B6493046FFF7E8FDB548012127F030FF78
:10478C00B34AB4493046FFF7DFFDB34CB348B44AE3
:10479C00846001230021C4E900234360B14B2174E0
:1047AC00C4E90211C4E90511C4E90711A18484F814
:1047BC006410036001F07EF8A84AAB493046FFF75D
:1047CC00C3FDAA4AAA4B1360012151603046A94986
:1047DC00FFF7BAFDA84AA94B13600121516030467E
:1047EC00A749FFF7B1FDA74CA74B0122C4E9003242
:1047FC00FFF7F2FCA060A54922463046FFF7A4FD66
:10480C00DFF840A3A24AA3480123CAE90023C0E968
:10481C00013A0022A04BAAF81020CAE90222CAE9E8
:10482C000522CAE90722CAE90922CAE90B228AF839
:10483C001220CAF834208AF843200360114600F095
:10484C00CDFB944A95493046FFF77EFDDFF8F89290
:10485C0093480123C0E90139C9F80430914BC9F8D8
:10486C0000300022904BA9F81020C9E90222C9E9B6
:10487C000522C9E90722C9E90922C9E90B2289F8ED
:10488C001220C9F8342089F843200360114600F047
:10489C0059FB834A85493046FFF756FD844A854BC0
:1048AC0013600123844953603046FFF74DFD834A62
:1048BC00834B13600123834953603046FFF744FD5B
:1048CC00814D8249296000230122C5E90123C5E9F4
:1048DC000333C5E90533C5E90733C5E90933C5E930
:1048EC000B33C5E90D33C5E90F33C5E91133C5E900
:1048FC001333C5E91533C5E91733C5E91933C5E9D0
:10490C001B33C5E91D33EB677148C5E920332946D4
:10491C00C5E92233C5E92433C5E92633C5E9283373
:10492C00C5E92A33C5E92C33C5E92E33C5F8C030A7
:10493C0085F8C43012F0DEFB654A66493046FFF755
:10494C0003FD654A654B136001236549536030468E
:10495C00FFF7FAFC634A644B13600123634953600D
:10496C003046FFF7F1FC624801210AF057FD604A1E
:10497C0060493046FFF7E8FC5F48012105F056FE20
:10498C005D4A5E493046FFF7DFFC5D48012127F0A8
:10499C003FFE5B4A5B493046FFF7D6FCDFF8ACB113
:1049AC0059480123CBF804304360584BCBF8003006
:1049BC00574BC0F808B000210360CBE90211CBE9DA
:1049CC000511CBE90711CBE909118BF810108BF805
:1049DC00241100F0FBFF4C4A4E493046FFF7B4FC63
:1049EC004D4A4E4B136001234D4953603046FFF73F
:1049FC00ABFC4C4A4C4B136001234C495360304682
:104A0C00FFF7A2FC4A4C4B4B236001236360FFF77A
:104A1C00E3FBA060484922463046FFF795FCDFF8DF
:104A2C00308146480123C8F804304360444BC8F831
:104A3C00003000228EE000BFF4F6002004F60020C7
:104A4C00DCEE0020ECF50020E8EE0020DCF9002084
:104A5C00C4F6002044FA002054EA00205CE900204F
:104A6C00A83A0020E436002014FA0020B4F7002005
:104A7C00603E002054FA0020C4F70020D83E0020ED
:104A8C005CFA0020DCF600207436002004FA0020CA
:104A9C00E83A002004EA0020A4350020F4F90020B4
:104AAC0010EA0020F83A0020D8350020F8F9002050
:104ABC00A4E900208437002024FA0020B4E9002067
:104ACC00B43700202CFA0020E4EB0020C83A002078
:104ADC00C4E9002024F9002074E900202C370020C0
:104AEC001CFA002084E900202C40002080FA0020D1
:104AFC003CE900200CFA002008F10020E0F900202D
:104B0C00D0F6002048FA002068E90020B83A0020CE
:104B1C000837002018FA0020BCF700209C3E00202B
:104B2C0058FA0020CCF70020083F002060FA002043
:104B3C00E8F600209036002008FA00201CEA00203D
:104B4C00083B002074ED0020B8ED0020BCEA0020EA
:104B5C00FCED0020AC4BC0F8088003601146C8E99E
:104B6C000222C8E90522C8E90722C8E90922C8E9D6
:104B7C000B22C8E90D2288F81020C8F83C2088F8D0
:104B8C006C2000F027FBA14AA1493046FFF7DCFB63
:104B9C00A04FA14801237B604360A04B3B600022E7
:104BAC009F4B876003601146C7E90222C7E90522C3
:104BBC00C7E90722C7E90922C7E90B22C7E90D2279
:104BCC003A74FA6387F86C2000F0B8FA924A954967
:104BDC003046FFF7B9FB944A944B13600123944978
:104BEC0053603046FFF7B0FB924A934B136001239E
:104BFC00924953603046FFF7A7FB914C91492160D5
:104C0C0000230122C4E90123C4E90333C4E90533B9
:104C1C00C4E90733C4E90933C4E90B33C4E90D33E0
:104C2C00C4E90F33C4E91133C4E91333C4E91533B0
:104C3C00C4E91733C4E91933C4E91B33C4E91D3380
:104C4C00E3678148C4E920332146C4E92233C4E92F
:104C5C002433C4E92633C4E92833C4E92A33C4E92C
:104C6C002C33C4E92E33C4F8C03084F8C4301CF0A3
:104C7C002BFE754A75493046FFF766FB744A754B37
:104C8C0013600123744953603046FFF75DFB734A90
:104C9C00734B13600123734953603046FFF754FB89
:104CAC007148012111F082F86F4A70493046FFF7C4
:104CBC004BFB6F4A6F4B136001236F4953603046B7
:104CCC00FFF742FB6D4A6E4B136001236D49536035
:104CDC003046FFF739FB6C4A6C4B136001236C496F
:104CEC0053603046FFF730FB6A4A6B4B136001236D
:104CFC006A4953603046FFF727FB694A02A93046E0
:104D0C00CDE9022ACDE9049BCDE9068701F064FDCB
:104D1C00F36864480193FFF7F5FC019B604A43F884
:104D2C002020F36860480193FFF7ECFC019B43F8EB
:104D3C0020A05E48D6F80CA0FFF7E4FC4AF82090BF
:104D4C005B48D6F80C90FFF7DDFC49F82050594829
:104D5C00F568FFF7D7FC45F820B02D48F568FFF74C
:104D6C00D1FC45F820802F48F568FFF7CBFC45F8BF
:104D7C0020703648F568FFF7C5FC45F820403046F2
:104D8C0009B0BDE8F08F044601313AD1204626F037
:104D9C003FF90D4604462048FFF708FA2946F3E789
:104DAC000D4604464448FFF701FA2946ECE70D4648
:104DBC0004464248FFF7FAF92946E5E70D46044652
:104DCC003F48FFF7F3F92946DEE70D4604463D4818
:104DDC00FFF7ECF92946D7E70D4604463A48FFF7AA
:104DEC00E5F92946D0E70D4604463848FFF7DEF9C9
:104DFC002946C9E70D4604460448FFF7D7F929466A
:104E0C00C2E725F0EFFF00BF0C3600201CEA0020A3
:104E1C00FCF900206CEE002028EA0020183B002052
:104E2C004036002000FA0020ACE900209C3700201E
:104E3C0028FA0020BCE90020CC37002030FA0020F2
:104E4C00ACEC0020D83A0020D8E9002028F900204A
:104E5C007CE900205837002020FA00208CE9002043
:104E6C004040002084FA00204CE9002010FA002079
:104E7C0094E90020A43D002040FA00209CE9002089
:104E8C004C3D002038FA002034EA0020783D002008
:104E9C003CFA00203CEA0020203D002034FA00209F
:104EAC0054EA002014FA0020F4F90020F8F900204C
:104EBC0024F9002018FA002010EA002004EA00204F
:104ECC00DCF600205CE90020E8F6002068E9002010
:104EDC00F8B5174E3368002204460260D3B1154D65
:104EEC002A6822609A420AD0134E3368BFF35B8F54
:104EFC00DB0706D52B6823601A6801321A6020463E
:104F0C00F8BD3046FDF746FB0028F3D03046FDF7E0
:104F1C0047FBEFE7094F074D02213846FFF7FEFB31
:104F2C000748376039462F60FFF754F93368D7E7E5
:104F3C00E4F90020F0F9002028E90020F0E9002035
:104F4C00E8F5002010B50446806830B32E23437476
:104F5C00A3681E492C229A741D4AA3681068186312
:104F6C000022C3E90212C3E90512C3E90712C3E91F
:104F7C000912DA62174AA3681268586302F10A0C24
:104F8C00531EC2F10100A268C1180A4413F8011F94
:104F9C0082F838106345F6D110BD442026F03AFD56
:104FAC000D4AA0600023C0E90023C0E90233C0E928
:104FBC000533C0E90733C0E90933C0E90B33038279
:104FCC008374436380F84330C0E700BF5806002069
:104FDC0080090020B4D30020F83A002010B5044614
:104FEC00806830B32E234374A3681E492C229A7414
:104FFC001D4AA368106818630022C3E90212C3E9B2
:10500C000512C3E90712C3E90912DA62174AA36849
:10501C001268586302F10A0C531EC2F10100A26817
:10502C00C1180A4413F8011F82F838106345F6D1F1
:10503C0010BD442026F0EEFC0D4AA0600023C0E910
:10504C000023C0E90233C0E90533C0E90733C0E9E6
:10505C000933C0E90B3303828374436380F8433014
:10506C00C0E700BF5806002080090020B4D3002000
:10507C00E83A002010B504468068084B236010B154
:10508C0003685B6898472046FFF790F8204610BDF0
:10509C002046FFF78BF825F0A5FE00BFD835002081
:1050AC0010B5044680680B4B236010B103685B6835
:1050BC0098472046FFF77AF8204625F089FD2046D0
:1050CC0010BD2046FFF772F8204625F081FD25F033
:1050DC0089FEF9E7D835002010B504468068084BE6
:1050EC00236010B103685B6898472046FFF75EF8B1
:1050FC00204610BD2046FFF759F825F073FE00BF7F
:10510C00A435002010B5044680680B4B236010B109
:10511C0003685B6898472046FFF748F8204625F05F
:10512C0057FD204610BD2046FFF740F8204625F0DD
:10513C004FFD25F057FEF9E7A435002038B58368FC
:10514C00044613B31E491F4D08681F49986300227B
:10515C00C3E90712C3E90912C3E90B129D60DA60B7
:10516C005A632E25A2685D6118492C259D61D06378
:10517C000968A2684B1E3C3201F10A0013F8011FAA
:10518C0042F8041F8342F9D138BD702026F042FC4E
:10519C000F49A0600022C0E90012C0E90222C0E958
:1051AC000522C0E90722C0E90922C0E90B22C0E9A7
:1051BC000D2203460274C26380F86C20C2E700BF64
:1051CC0080090020580600202C4F0020B4D300206A
:1051DC00183B002038B58368044613B31E491F4D95
:1051EC0008681F4998630022C3E90712C3E9091232
:1051FC00C3E90B129D60DA605A632E25A2685D61CB
:10520C0018492C259D61D0630968A2684B1E3C325D
:10521C0001F10A0013F8011F42F8041F8342F9D16F
:10522C0038BD702026F0F6FB0F49A0600022C0E9C3
:10523C000012C0E90222C0E90522C0E90722C0E938
:10524C000922C0E90B22C0E90D2203460274C26395
:10525C0080F86C20C2E700BF8009002058060020AF
:10526C002C4F0020B4D30020083B002010B504467E
:10527C008068084B236010B103685B689847204630
:10528C00FEF794FF204610BD2046FEF78FFF25F059
:10529C00A9FD00BF4036002010B5044680680B4BBA
:1052AC00236010B103685B6898472046FEF77EFFC9
:1052BC00204625F08DFC204610BD2046FEF776FFDB
:1052CC00204625F085FC25F08DFDF9E740360020C1
:1052DC0010B504468068084B236010B103685B6806
:1052EC0098472046FEF762FF204610BD2046FEF789
:1052FC005DFF25F077FD00BF0C36002010B504468D
:10530C0080680B4B236010B103685B68984720469C
:10531C00FEF74CFF204625F05BFC204610BD2046D6
:10532C00FEF744FF204625F053FC25F05BFDF9E722
:10533C000C36002090F843300C4A10B5044602603D
:10534C007BB1806808B125F047FC606908B125F095
:10535C0043FCE06908B125F03FFC606A08B125F018
:10536C003BFC2046FEF722FF204610BDF83A0020F9
:10537C0010B50446FFF7DEFF204625F029FC204639
:10538C0010BD204625F024FC25F02CFD90F8433070
:10539C000C4A10B5044602607BB1806808B125F058
:1053AC001BFC606908B125F017FCE06908B125F019
:1053BC0013FC606A08B125F00FFC2046FEF7F6FEE0
:1053CC00204610BDE83A002010B50446FFF7DEFF7A
:1053DC00204625F0FDFB204610BD204625F0F8FBAD
:1053EC0025F000FD90F86C300C4A10B504460260B4
:1053FC007BB1806808B125F0EFFBE06908B125F0BE
:10540C00EBFB606A08B125F0E7FBE06A08B125F018
:10541C00E3FB2046FEF7CAFE204610BD183B0020D9
:10542C0010B50446FFF7DEFF204625F0D1FB2046E1
:10543C0010BD204625F0CCFB25F0D4FC90F86C3048
:10544C000C4A10B5044602607BB1806808B125F0A7
:10545C00C3FBE06908B125F0BFFB606A08B125F019
:10546C00BBFBE06A08B125F0B7FB2046FEF79EFEB9
:10547C00204610BD083B002010B50446FFF7DEFFA8
:10548C00204625F0A5FB204610BD204625F0A0FBAC
:10549C0025F0A8FC10B50446806830B32E23437465
:1054AC00A3681E492C229A741D4AA36810681863BD
:1054BC000022C3E90212C3E90512C3E90712C3E9CA
:1054CC000912DA62174AA3681268586302F10A0CCF
:1054DC00531EC2F10100A268C1180A4413F8011F3F
:1054EC0082F838106345F6D110BD442026F092FAAC
:1054FC000D4AA0600023C0E90023C0E90233C0E9D3
:10550C000533C0E90733C0E90933C0E90B33038223
:10551C008374436380F84330C0E700BF5806002013
:10552C0080090020B4D30020F83A002010B50446BE
:10553C00806830B32E234374A3681E492C229A74BE
:10554C001D4AA368106818630022C3E90212C3E95C
:10555C000512C3E90712C3E90912DA62174AA368F4
:10556C001268586302F10A0C531EC2F10100A268C2
:10557C00C1180A4413F8011F82F838106345F6D19C
:10558C0010BD442026F046FA0D4AA0600023C0E965
:10559C000023C0E90233C0E90533C0E90733C0E991
:1055AC000933C0E90B3303828374436380F84330BF
:1055BC00C0E700BF5806002080090020B4D30020AB
:1055CC00E83A002038B58568114B0360044655B1A4
:1055DC002B68104A5B689342284609D1FFF7AAFE54
:1055EC00284625F0F5FA2046FEF7E0FD204638BDAA
:1055FC0098472046FEF7DAFD204638BD02E02846E3
:10560C0025F0E6FA2046FEF7D1FD25F0EBFB00BFB6
:10561C0090380020D133000010B50446FFF7D2FFBC
:10562C00204625F0D5FA204610BD204625F0D0FAAC
:10563C0025F0D8FB38B58568114B0360044655B18D
:10564C002B68104A5B689342284609D1FFF79EFEEF
:10565C00284625F0BDFA2046FEF7A8FD204638BDA9
:10566C0098472046FEF7A2FD204638BD02E02846AA
:10567C0025F0AEFA2046FEF799FD25F0B3FB00BFEE
:10568C005C3800202934000010B50446FFF7D2FF27
:10569C00204625F09DFA204610BD204625F098FAAC
:1056AC0025F0A0FB38B58368044613B31E491F4D83
:1056BC0008681F4998630022C3E90712C3E909125D
:1056CC00C3E90B129D60DA605A632E25A2685D61F6
:1056DC0018492C259D61D0630968A2684B1E3C3289
:1056EC0001F10A0013F8011F42F8041F8342F9D19B
:1056FC0038BD702026F08EF90F49A0600022C0E959
:10570C000012C0E90222C0E90522C0E90722C0E963
:10571C000922C0E90B22C0E90D2203460274C263C0
:10572C0080F86C20C2E700BF8009002058060020DA
:10573C002C4F0020B4D30020183B002038B58368D0
:10574C00044613B31E491F4D08681F499863002275
:10575C00C3E90712C3E90912C3E90B129D60DA60B1
:10576C005A632E25A2685D6118492C259D61D06372
:10577C000968A2684B1E3C3201F10A0013F8011FA4
:10578C0042F8041F8342F9D138BD702026F042F94B
:10579C000F49A0600022C0E90012C0E90222C0E952
:1057AC000522C0E90722C0E90922C0E90B22C0E9A1
:1057BC000D2203460274C26380F86C20C2E700BF5E
:1057CC0080090020580600202C4F0020B4D3002064
:1057DC00083B002038B58568114B0360044655B171
:1057EC002B68104A5B689342284609D1FFF7FAFDF3
:1057FC00284625F0EDF92046FEF7D8FC204638BDAA
:10580C0098472046FEF7D2FC204638BD02E02846D9
:10581C0025F0DEF92046FEF7C9FC25F0E3FA00BFBF
:10582C00F83800208134000010B50446FFF7D2FF91
:10583C00204625F0CDF9204610BD204625F0C8F9AC
:10584C0025F0D0FA38B58568114B0360044655B184
:10585C002B68104A5B689342284609D1FFF7EEFD8E
:10586C00284625F0B5F92046FEF7A0FC204638BDA9
:10587C0098472046FEF79AFC204638BD02E02846A1
:10588C0025F0A6F92046FEF791FC25F0ABFA00BFF7
:10589C00C4380020D934000010B50446FFF7D2FFFD
:1058AC00204625F095F9204610BD204625F090F9AC
:1058BC0025F098FA38B504468068002835D0244B7A
:1058CC00244D2E2280F82420A1681A680023C0E9F8
:1058DC00025303742C2381F8253002F1230C531E40
:1058EC00C2F10100A268C1180A4413F8011F82F822
:1058FC0026106345F6D1184B1868431E00F1190C9D
:10590C00C0F10100A268C1180A4413F8011F82F803
:10591C004A106345F6D1A3681049114C04200522A6
:10592C00C3E90540C3E9071238BD682026F072F8B8
:10593C000C4AA0600023C0E90023C0E90233C0E98F
:10594C000533C0E907330374838480F86430B6E709
:10595C00B0D3002058060020ACD30020400F00200C
:10596C00380F0020A83A002010B504468068084B78
:10597C00236010B103685B6898472046FEF716FC5D
:10598C00204610BD2046FEF711FC25F02BFA00BF77
:10599C00E436002010B5044680680B4B236010B130
:1059AC0003685B6898472046FEF700FC204625F00C
:1059BC000FF9204610BD2046FEF7F8FB204625F0D7
:1059CC0007F925F00FFAF9E7E436002038B58468BA
:1059DC005CB3214B21481968A06000232246E36088
:1059EC0023742E202C23606201F1230C42F8283FF3
:1059FC004B1E13F8011F42F8041F6345F9D1184BD5
:105A0C00196804F1B8024B1E01F1190C13F8011FAF
:105A1C0042F8041F6345F9D11248134A04210523A7
:105A2C00C4E90501C4E9072338BD05464FF4947059
:105A3C0025F0F0FF0D4AA8600023C0E90023C0E95F
:105A4C000233C0E90533C0E90733C0E90933044622
:105A5C00037480F82431BCE7B0D300205806002032
:105A6C00ACD30020480F00205C0F0020B83A002077
:105A7C0010B504468068084B236010B103685B685E
:105A8C0098472046FEF792FB204610BD2046FEF7B5
:105A9C008DFB25F0A7F900BF0837002010B5044690
:105AAC0080680B4B236010B103685B6898472046F5
:105ABC00FEF77CFB204625F08BF8204610BD2046D7
:105ACC00FEF774FB204625F083F825F08BF9F9E7F7
:105ADC000837002090F864300A4A10B5044602607A
:105AEC005BB1806808B125F077F8606908B125F0E2
:105AFC0073F8E06908B125F06FF82046FEF756FB05
:105B0C00204610BDA83A002010B50446FFF7E2FF6E
:105B1C00204625F05DF8204610BD204625F058F8AB
:105B2C0025F060F990F824310A4A10B50446026059
:105B3C005BB1806808B125F04FF8606908B125F0B9
:105B4C004BF8E06908B125F047F82046FEF72EFB2C
:105B5C00204610BDB83A002010B50446FFF7E2FF0E
:105B6C00204625F035F8204610BD204625F030F8AB
:105B7C0025F038F938B504468068002835D0244B18
:105B8C00244D2E2280F82420A1681A680023C0E935
:105B9C00025303742C2381F8253002F1230C531E7D
:105BAC00C2F10100A268C1180A4413F8011F82F85F
:105BBC0026106345F6D1184B1868431E00F1190CDA
:105BCC00C0F10100A268C1180A4413F8011F82F841
:105BDC004A106345F6D1A3681049114C04200522E4
:105BEC00C3E90540C3E9071238BD682025F012FF50
:105BFC000C4AA0600023C0E90023C0E90233C0E9CD
:105C0C000533C0E907330374838480F86430B6E746
:105C1C00B0D3002058060020ACD30020400F002049
:105C2C00380F0020A83A002038B58568114B036066
:105C3C00044655B12B68104A5B689342284609D13B
:105C4C00FFF748FF284624F0C3FF2046FEF7AEFAC4
:105C5C00204638BD98472046FEF7A8FA204638BDA6
:105C6C0002E0284624F0B4FF2046FEF79FFA25F008
:105C7C00B9F800BF943F0020693B000010B5044602
:105C8C00FFF7D2FF204624F0A3FF204610BD20468C
:105C9C0024F09EFF25F0A6F838B584685CB3214B40
:105CAC0021481968A06000232246E36023742E204B
:105CBC002C23606201F1230C42F8283F4B1E13F891
:105CCC00011F42F8041F6345F9D1184B196804F100
:105CDC00B8024B1E01F1190C13F8011F42F8041FF6
:105CEC006345F9D11248134A04210523C4E905017F
:105CFC00C4E9072338BD05464FF4947025F08AFE9D
:105D0C000D4AA8600023C0E90023C0E90233C0E9B2
:105D1C000533C0E90733C0E909330446037480F83E
:105D2C002431BCE7B0D3002058060020ACD30020AF
:105D3C00480F00205C0F0020B83A002038B5856869
:105D4C00114B0360044655B12B68104A5B689342B3
:105D5C00284609D1FFF7E6FE284624F039FF2046F5
:105D6C00FEF724FA204638BD98472046FEF71EFA67
:105D7C00204638BD02E0284624F02AFF2046FEF7D4
:105D8C0015FA25F02FF800BFB83F0020B93B0000F2
:105D9C0010B50446FFF7D2FF204624F019FF204629
:105DAC0010BD204624F014FF25F01CF8009B0320A6
:105DBC001A6070470020704700207047042070471D
:105DCC00009B03201A607047D0E90032B2EB030C41
:105DDC0031D030B593F900E01A78BEF1000F16DA25
:105DEC00C12A24D9DF2A16D8BCF1010F56D093F85A
:105DFC0001C00CF0C00EBEF1800F18D10CEB821C50
:105E0C00ACF54252914204D30233036001E00133FA
:105E1C000360104630BDEF2A11D8BCF1020F3DD9FA
:105E2C0093F801C00CF0C00EBEF1800F39D04FF0CA
:105E3C00FF32104630BD6FF0010210467047F42A55
:105E4C00F5D8BCF1030F29D993F801C00CF0C00EA2
:105E5C00BEF1800FEBD1F02A3CD0F42A02D1BCF178
:105E6C008F0FE4D89C7804F0C00EBEF1800FDED109
:105E7C0093F803E00EF0C005802DD8D14FEA0C3C0E
:105E8C000CEB824202EB84127244A2F17272A2F504
:105E9C0002528A42BDD804330360BAE76FF00102A4
:105EAC00B7E7E02A12D093F802E00EF0C004802C81
:105EBC00BDD14FEA8C1C0CEB02327244A2F562226B
:105ECC00803A9142A5D303330360A2E7BCF19F0F44
:105EDC00E9D8ACE7BCF18F0FC4D8A8E7D0E9003201
:105EEC00B2EB030C31D030B593F900E01A78BEF167
:105EFC00000F16DAC12A24D9DF2A16D8BCF1010FFB
:105F0C0056D093F801C00CF0C00EBEF1800F18D122
:105F1C000CEB821CACF54252914204D30233036069
:105F2C0001E001330360104630BDEF2A11D8BCF1FB
:105F3C00020F3DD993F801C00CF0C00EBEF1800FDA
:105F4C0039D04FF0FF32104630BD6FF001021046D1
:105F5C007047F42AF5D8BCF1030F29D993F801C086
:105F6C000CF0C00EBEF1800FEBD1F02A3CD0F42A1D
:105F7C0002D1BCF18F0FE4D89C7804F0C00EBEF1B6
:105F8C00800FDED193F803E00EF0C005802DD8D140
:105F9C004FEA0C3C0CEB824202EB84127244A2F1ED
:105FAC007272A2F502528A42BDD804330360BAE77A
:105FBC006FF00102B7E7E02A12D093F802E00EF07E
:105FCC00C004802CBDD14FEA8C1C0CEB0232724405
:105FDC00A2F56222803A9142A5D303330360A2E773
:105FEC00BCF19F0FE9D8ACE7BCF18F0FC4D8A8E780
:105FFC0010B5034B03600446FEF7D8F8204610BDDD
:10600C002C3C002010B5034B03600446FEF7CEF881
:10601C00204610BDD43B002010B5034B0360044652
:10602C00FEF7C4F8204610BD003C002010B5034B11
:10603C0003600446FEF7BAF8204610BDA83B0020CA
:10604C0010B5054B03600446FEF7B0F8204624F06B
:10605C00BFFD204610BD00BF2C3C002010B5054BE9
:10606C0003600446FEF7A2F8204624F0B1FD20465A
:10607C0010BD00BFD43B002010B5054B0360044697
:10608C00FEF794F8204624F0A3FD204610BD00BF77
:10609C00003C002010B5054B03600446FEF786F863
:1060AC00204624F095FD204610BD00BFA83B0020E3
:1060BC007F2908D8D0E900329A4243D05A1C02609A
:1060CC00012019707047B1F5006F10B414D2D0E9EB
:1060DC0000239B1A012B37D98B09541C403B0460BD
:1060EC001370036801F03F015A1C8039026019706B
:1060FC0001205DF8044B7047B1F5803F19D3B1F521
:10610C00881F21D2D0E900239B1A032B1CD98B0C9E
:10611C00541C103B046013700268C1F30533541C0B
:10612C00803B046013700268C1F38513541C803BE0
:10613C00D5E7D0E900239B1A022B05D90B0B541C75
:10614C00203BEEE70020704700205DF8044B7047C1
:10615C00B1F5006F12D2D0E900239B1A012B48D95C
:10616C0013464FEA911CACF1400C03F802CB01F042
:10617C003F0180390360012051707047B1F5803FB9
:10618C0016D2D0E90032D21A022A32D9C1F38512C2
:10619C004FEA113C803A01F03F015A70ACF1200CEF
:1061AC008039DA1C83F800C00260012099707047B6
:1061BC00B1F5881F1DD2D0E90032D21A032A18D9A2
:1061CC00C1F30532803A10B44FEA914C5A70C1F3C6
:1061DC00851201F03F011C1DACF1100C803A803986
:1061EC0083F800C09A70046001205DF8044BD970EC
:1061FC0070470020704700BF2DE9F8430546406802
:10620C002C6884421646A0EB040237D00F46984601
:10621C001FE0B8F1010F2ED04A452FD96488A4F5A0
:10622C005C43B3F5806FA4F15774A4F5773422D294
:10623C0004EB8121B14238461DD8FFF739FF00B37A
:10624C00D5E9004304EB49049C422C60A3EB040207
:10625C0014D02188A1F55843B3F5806F4FF0020993
:10626C00A1F55C40D5D3B0F5806F04D3B1424FF0AB
:10627C0001093846E1D90220BDE8F8830020BDE8C9
:10628C00F8830120BDE8F88300B585B0184607995E
:10629C0002910899009201900391074A02A90023E8
:1062AC006846FFF7A9FF0699009A0A60029B099AB3
:1062BC00136005B05DF804FBFFFF100030B583B030
:1062CC00CDE90023069868B107491546441E02E043
:1062DC00B0F5881F04D26846FFF700FE013CF7D2E8
:1062EC000098401B03B030BDFFFF1000F0B59A4280
:1062FC0083B0CDE90023DDE909461AD00F4F1D46C6
:10630C000BE0FFF7EBFD831C0BD0B0F5881F009A58
:10631C0011D2954244F8040B0BD0A642394668467C
:10632C00EFD1009A0120089B1A600B9B1C6003B0F4
:10633C00F0BD0020F7E70220F5E700BFFFFF1000DB
:10634C00F0B583B0CDE90023089E012E17464FF01F
:10635C00010414D90F49002507E0B0F5803F38BF80
:10636C002C46651C0234A64209D96846FFF7B6FDD7
:10637C00B0F5881FF1D30098C01B03B0F0BDA64246
:10638C00F9D14FF6FF716846FFF7A8FD0098C01BC6
:10639C0003B0F0BDFFFF1000F0B583B0DDE9096577
:1063AC0014469C42CDE90065A3EB020245D01F4682
:1063BC0018E0022A31D96288A2F55C43B3F5806FEC
:1063CC0035D2A2F15772A2F5773202EB8121022667
:1063DC006846FFF7BDFE68B372001444A742A7EBF2
:1063EC0004021AD02188A1F55843B3F5806FE0D38D
:1063FC00A1F55C43B3F5806F19D37F2988BF0126C3
:10640C00E6D8009EB5420BD002221444731CA7425E
:10641C0000933170A7EB0402E4D1009E002000E051
:10642C000120089B1C600B9B1E6003B0F0BD009EFE
:10643C000220F6E7009E0120F3E70020F1E700BF01
:10644C00F0B583B0DDE909169A42CDE900162BD0E0
:10645C001F46144609E000998E4201F1010316D043
:10646C0000930A70A74225461BD02268B2F5881FFC
:10647C0025461146684604F104040FD27F2AEAD956
:10648C00FFF766FE0028EDD10099012000E0012005
:10649C00089B1D600B9B196003B0F0BD0099022096
:1064AC00F6E700990020F3E715460020F0E700BF5F
:1064BC002DE9F0419A4282B0CDE90023DDE909745F
:1064CC00904635D0214E1D4606E0DDF8008023F8BD
:1064DC00020B45451F462BD0BC423146684629D09D
:1064EC00FFF7FCFC811C3B46A4EB070226D0B0F561
:1064FC00881F27D2B0F5803FE7D3022A08D80120A5
:10650C00089BC3F800800B9B1F6002B0BDE8F081B4
:10651C003B46820ADDF80080A2F5215223F8042BB9
:10652C00C0F30900A0F51050454578801F46D3D123
:10653C000020E5E7DDF800800020E1E7DDF80080D1
:10654C000120DDE7DDF800800220D9E7FFFF100015
:10655C0070B582B0DDE907109A42CDE900101ED06B
:10656C001E46144605E0FFF7A3FD90B1A642254652
:10657C0012D02168B1F5881F2546684604F1040441
:10658C00F1D300990220069B1D60099B196002B093
:10659C0070BD00990120F6E700990020F3E715463D
:1065AC000020F0E730B583B0CDE90023069868B140
:1065BC0007491546441E02E0B0F5881F04D2684610
:1065CC00FFF702FC013CF7D20098401B03B030BD32
:1065DC00FFFF1000F0B59A4283B0CDE90023DDE94E
:1065EC0009461AD00F4F1D460BE0FFF7EDFB831C3D
:1065FC000BD0B0F5881F009A11D2954244F8040BC9
:10660C000BD0A64239466846EFD1009A0120089B70
:10661C001A600B9B1C6003B0F0BD0020F7E7022052
:10662C00F5E700BFFFFF100070B582B0CDE90001A7
:10663C009DF818500C4619466B07164624D4012EAB
:10664C0012D90025012407E0B0F5803F38BF2C4655
:10665C00651C0234B44208D26846FFF7B5FB884289
:10666C00F2D9009802B070BD0124A642F9D14FF6C0
:10667C00FE724FF6FF73914288BF19466846FFF7CA
:10668C00A3FB009802B070BD241A022CD7D9037852
:10669C00EF2BD4D14378BB2BD1D18378BF2B04BF44
:1066AC0003300090CBE700BF10B582B01446002039
:1066BC0019460090034B049A2046FFF7B5FF001BC8
:1066CC0002B010BDFFFF10002DE9F0470C4611463B
:1066DC005A07D0E900A6814644D4B2453FD065683C
:1066EC0003F001070CE083B20FB958BA83B2D9F8A2
:1066FC0000A008F1020256452260A8F800302ED006
:10670C00D4F80080A8452AD04846FFF75DFB831CCF
:10671C003DD0814240D3B0F5803FE4D3A5EB0803D4
:10672C00022B04D8C9E900A60120BDE8F087820A33
:10673C00C0F30903A2F52152A3F5105392B29BB2F8
:10674C001FB952BA5BBA92B29BB24046D9F800A0BC
:10675C0020F8042B56452060A8F80230D0D1002038
:10676C00BDE8F087A6EB0A02022AB6D99AF80020F7
:10677C00EF2AB2D19AF80120BB2AAED19AF80220A6
:10678C00BF2AAAD10AF1030AC0F800A0A5E7089B0A
:10679C00581CC0B2BDE8F0870220BDE8F08700BFEE
:1067AC0010B586B018460999049100240A990292F2
:1067BC0003900591074A009404A9012302A8FFF74E
:1067CC0083FF0899029A0A60049B0B9A136006B027
:1067DC0010BD00BFFFFF10002DE9F04FD1E900BA4A
:1067EC00AE4DAF4B2B600123D1F808906B600E4679
:1067FC00044685B0C5F808B000212846FFF7BAF961
:10680C006B686768A74801336B60FDF77BFF47F83F
:10681C002050A54DA54B2B6001236B60FDF7DCFCD4
:10682C006B68D4F80480A86001336B60A048A14F5A
:10683C00FDF768FFA04B48F8205000223B60012375
:10684C00C7F808A07B6011463846FEF76FFE7B68E0
:10685C00D4F8048099489A4D01337B60FDF752FFC0
:10686C00984B48F8207000222B600123C5F8089043
:10687C006B6011462846FEF70DFE6B686768924800
:10688C0001336B60FDF73EFF47F820508F4D904B66
:10689C0067682B604FF00208C5F804808D48FDF73F
:1068AC0031FF47F820508C4D8C4B67682B60C5F836
:1068BC0004808B48FDF726FF47F82050894F8A4B00
:1068CC003B608A486368C7F804800193FDF71AFFA0
:1068DC00874D019B012143F82070284610F024FCC1
:1068EC006B686768834801336B60FDF70BFF47F8F3
:1068FC002050814D814B2B600123D6F80C806B60AE
:10690C0033690193C5F80880736902930021284606
:10691C00FFF7C2F96B686668794801336B60FDF765
:10692C00F1FE46F82050774D774B2B6001236B60BE
:10693C00FDF752FC6B686768A86001336B607348A5
:10694C00734EFDF7DFFE019B47F82050B360714B8F
:10695C00336000220123736011463046FEF7EEFED1
:10696C00736867686C486D4D01337360FDF7CAFE40
:10697C00029B47F82060AB60694B2B60002201231F
:10698C006B6011462846FEF78DFE6B68666865489D
:10699C0001336B60FDF7B6FE46F82050624D634A3A
:1069AC0066682A6002276F606148FDF7ABFE46F807
:1069BC002050604D604A66682A606F605F48FDF742
:1069CC00A1FE46F820505E4E5E4A32605E48626818
:1069DC0077600392FDF796FE5C4D039A012142F815
:1069EC00206028461AF08AFF6B68666858480133A5
:1069FC006B60FDF787FE46F820502A48E568FDF7E6
:106A0C0081FE45F820B02D48E568FDF77BFE45F882
:106A1C0020A02D48E568FDF775FE45F82090384814
:106A2C00E568FDF76FFE45F820803B48E568FDF70B
:106A3C0069FE019BE46845F820303A48FDF762FE98
:106A4C00029B44F8203005B0BDE8F08F1348FDF7E9
:106A5C00ADFB24F0C7F93148FDF7A8FB24F0C2F9CF
:106A6C002B48FDF7A3FB24F0BDF92648FDF79EFB50
:106A7C0024F0B8F92048FDF799FB24F0B3F910483D
:106A8C00FDF794FB24F0AEF90A48FDF78FFB24F0D8
:106A9C00A9F90548FDF78AFB24F0A4F94CF900206C
:106AAC00943F002070FA0020C4F90020283E0020FA
:106ABC004CFA002094F900205C38002014F90020D6
:106ACC00A0F900209038002018F9002074F900205B
:106ADC008840002088FA002084F90020B84000206B
:106AEC0090FA002064F90020DC3F002078FA0020A6
:106AFC002CF9002068FA002058F90020B83F00203B
:106B0C0074FA0020D0F90020443E002050FA0020F6
:106B1C00ACF90020C43800201CF90020B8F9002082
:106B2C00F838002020F900207CF90020A04000203B
:106B3C008CFA00208CF90020D040002094FA002020
:106B4C006CF90020044000207CFA00203CF9002065
:106B5C006CFA002000B583B08C46C1680498CDE96E
:106B6C00003013464FF00000624609F061FE03B09E
:106B7C005DF804FB30B58BB00AAC04E90C00109B3B
:106B8C008A6803930EAB044693E80300129D119B95
:106B9C000493059501AB7925069583E80300DDE99F
:106BAC000831204600914FF000010AF00FFB2046FF
:106BBC000BB030BD30B58BB00AAC04E90C00109BA7
:106BCC008A6803930EAB044693E80300129D119B55
:106BDC000493059501AB6D25069583E80300DDE96B
:106BEC000831204600914FF000010AF0EFFA2046E0
:106BFC000BB030BD30B58BB00AAC04E90C00109B67
:106C0C008A6803930EAB044693E80300129D119B14
:106C1C000493059501AB7725069583E80300DDE920
:106C2C000831204600914FF000010AF0CFFA2046BF
:106C3C000BB030BD30B58BB00AAC04E90C00109B26
