:0200000460009A
:100000004643464200000156000000000103030081
:1000100000000000000000000000000000000000E0
:1000200000000000000000000000000000000000D0
:1000300000000000000000000000000000000000C0
:1000400000000000010408000000000000000000A3
:100050000000800000000000000000000000000020
:100060000000000000000000000000000000000090
:100070000000000000000000000000000000000080
:10008000EB04180A063204260000000000000000FD
:10009000050404240000000000000000000000002F
:1000A0000000000000000000000000000000000050
:1000B0000604000000000000000000000000000036
:1000C0000000000000000000000000000000000030
:1000D00020041808000000000000000000000000DC
:1000E0000000000000000000000000000000000010
:1000F0000000000000000000000000000000000000
:10010000D8041808000000000000000000000000F3
:100110000204180804200000000000000000000095
:1001200000000000000000000000000000000000CF
:10013000600400000000000000000000000000005B
:1001400000000000000000000000000000000000AF
:10015000000000000000000000000000000000009F
:10016000000000000000000000000000000000008F
:10017000000000000000000000000000000000007F
:10018000000000000000000000000000000000006F
:10019000000000000000000000000000000000005F
:1001A000000000000000000000000000000000004F
:1001B000000000000000000000000000000000003F
:1001C000000100000010000001000000000000001D
:1001D000000001000000000000000000000000001E
:1001E000000000000000000000000000000000000F
:1001F00000000000000000000000000000000000FF
:10020000FFFFFFFFFFFFFFFFFFFFFFFFFFFFFFFFFE
:10021000FFFFFFFFFFFFFFFFFFFFFFFFFFFFFFFFEE
:10100000D10020434D1600600000000000000000E9
:101010002010006000100060000406600000000066
:10102000000000600010060000000000FFFFFFFF4E
:10103000FFFFFFFFFFFFFFFFFFFFFFFFFFFFFFFFC0
:10104000FFFFFFFFFFFFFFFFFFFFFFFFFFFFFFFFB0
:10105000FFFFFFFFFFFFFFFFFFFFFFFFFFFFFFFFA0
:10106000FFFFFFFFFFFFFFFFFFFFFFFFFFFFFFFF90
:10140000814205D051F8043B40F8043B8242F9D8B0
:10141000704700BF044A05494FF0000342F8043BFF
:101420009142FBD8704700BFC00601204027012031
:101430002DE98848BFF34F8F00BF00BF00BF00BF3A
:1014400000F0D6F9684B0822C3F8542100BF00BF52
:1014500000BF00BF00BF00BF00BF00BF00BF00BF94
:1014600000BF00BF00BF00BF00BF00BF5F4A6049B0
:101470006048FFF7C5FF604A60496148FFF7C0FF59
:10148000604CFFF7C7FF4FF470004FF0E0210023DE
:101490005D4AC1F8880D44F823200133B02BFAD1FE
:1014A0005A4B80215A4A03F8011B9342FBD14FF05B
:1014B000E0254D4E4FF08039DFF884B1DFF884A18C
:1014C0004FF0FF31C5F8084D0027C6F80491C6F863
:1014D00000B1C6F8F490C6F8F0A0D5F8243DDFF8C6
:1014E000688143F4E0234B4AC5F8243DD8F81C300A
:1014F00023F07F0343F04003C8F81C30D8F82430B1
:1015000023F07F0343F04003C8F824309166D1668E
:101510001167516700F074F93F4B4049A363404B9A
:10152000E36363236B610323AF612B613D4BC5F81C
:10153000203DD5F8FC3D43F08073C5F8FC3D3A4BA7
:101540001A6842F001021A605B680B6000F0A2FBAF
:10155000C6F804913548C6F800B1C6F8F490C6F84C
:10156000F0A000F039FDD8F86C10314B314A41F44D
:101570004051C8F86C101F60C3F80871C3F81871A7
:10158000C3F82871C3F83871936BDB0708D442F6AF
:101590001563294951651365936B43F00103936308
:1015A000244A264C936843F00113936000F0B0F98D
:1015B00000F0D4FC00F018FD00F09AFB00F01AF9DE
:1015C0002368132BFCD900F02BFC2368B3F5967F1E
:1015D000FBD300F013F900F00FF900F0F1FC00F07C
:1015E000F3FC30BFFDE700BF00800D405CD7040076
:1015F0002022006000000000C006012080F9046085
:1016000000000020000401207D20000000E400E034
:10161000A0E400E000C00A4059350000D8260120AF
:101620005D35000000002020001000E00046C323CC
:101630000040084000400D400000C056DC2601205C
:101640001B1018200C0D111300C00F40054B4FF458
:101650002A01054A05485A641864054A9963954663
:10166000FFF7E6FE00C00A40FFFFAFAA0700200018
:101670000000032043690A4A03EB011010B4037A07
:10168000084C02EB0313D3E901321460C2681A60FC
:1016900003690BB142691A605DF8044B704700BFE3
:1016A00030DF002061F801004369027E03EB021283
:1016B00092F808C08C451CD01A7AFF2A19D09142A2
:1016C00010B5044616D01A7EFF2A06D00121D3E9B0
:1016D000002312681A4201D1217610BD064B052263
:1016E000204603EB0C135B681A60FFF7C3FF2176FB
:1016F000F3E770470021EAE730DF002043690A4A38
:1017000003EB011010B490F82830084C02EB0313DF
:10171000D3E901321460C26A1A60036B0BB1426BE9
:101720001A605DF8044B704730DF002061F801005B
:101730004369427E03EB021292F828C08C451ED00A
:1017400093F82820FF2A1AD0914210B5044617D0EA
:1017500093F83820FF2A06D00121D3E9002312682C
:101760001A4201D1617610BD064B0522204603EBDB
:101770000C135B681A60FFF7C1FF6176F3E77047EF
:101780000021EAE730DF0020164942698B6B23F421
:101790007C0343F4802370B58B630446124DD2E979
:1017A00000130A681A4303690A60022200211A61C1
:1017B0000E4A19619A6401225A629D624FF43035D3
:1017C000DD624FF001159E6C1E6519629D651A6100
:1017D000017EFFF74FFF617E2046BDE87040FFF7B6
:1017E0008DBF00BF00C00F40B80B05053B3728195F
:1017F000704700BF704700BF704700BF00BF704711
:1018000010B44FF0E023002110243148C3F8941D98
:10181000C3F89C4D1124C3F8A00D2E48C3F89C4D6D
:101820001224C3F8A00D2C48C3F89C4D2B4AC3F8D2
:10183000A00D2B4C42F015022A48C3F89C4DC3F86A
:10184000A00D294C2948C3F89C4DC3F8A00D284C85
:10185000C3F89C2D2748284AC3F8A04DC3F89C0D17
:10186000C3F8A02D02F5A022244C0C322448C3F862
:101870009C4DC3F8A02D234AC3F89C0D224CC3F8FD
:10188000A02D02F14062C3F89C4D2048C3F8A02D62
:101890000C32C3F89C0DC3F8A02D00BF00BF00BFE1
:1018A00000BF00BF0122C3F8942DBFF34F8FBFF3D9
:1018B0006F8FC3F8501FBFF34F8FBFF36F8FD3F8F5
:1018C000142D5DF8044B42F44032C3F8142D7047D8
:1018D0003F000010250008070900100040270120E4
:1018E0001300200021000207140000202500081327
:1018F000090000101600202027000B1317000040DD
:10190000180000602F000B07190000701A000080FB
:10191000F0B5B84B1822B84E0120B84F83B0C3F8C9
:101920005C62B749C3F86072B64DC3F86462A6F54D
:101930003046B54CC3F86862C3F86C52C3F87052B5
:10194000C3F87452C3F8785248F20C75DA661A6715
:101950005A679A67DA67C3F88020C3F88420C3F80F
:101960008820C1F82C03A94AC1F83003C1F8340318
:10197000C1F83803C1F83C03C1F85003A169A44B76
:101980000A40A448A4491343A44AA361D4F884306C
:1019900043F00C03C4F884304FF0FF34036843F085
:1019A0000203036003682B404FF400551A439C4B1D
:1019B000026044608A689B4C13409B4A43F000538A
:1019C0008360C36823F07803C360036A1340234332
:1019D0000362036A1340954A2343954C4362826233
:1019E000C2620022D1F8B83023F03F0343F0010374
:1019F000C0F8B830D1F8BC308E4923F03F0343F033
:101A00000103C0F8BC3040F205630261056604675B
:101A1000C0F88030456644670224C0F8843003680B
:101A200023F0020303608161834B8449C46143F85E
:101A3000042B8B42FBD1774A136843F001031360F8
:101A4000136813F00103FBD17A48022140F2F564D8
:101A5000906140F29940D16140F26641C2F8004283
:101A600042F20144C2F810127549C2F82002C2F8CD
:101A7000301240F235417348C2F83442C2F8401285
:101A8000714CC2F8500242F201207049C2F854125F
:101A90000121C2F86042C2F864025E48C2F8A03078
:101AA000C2F8A430C2F8B0104369DA07FCD50123AC
:101AB00000244FF4803257494361C0F8A040C0F879
:101AC000A420C0F8B0304B69DB07FCD5012300240B
:101AD0004FF400304F4A4B61C1F8A040C1F8A40058
:101AE000C1F8B0305369DF07FCD501230024584802
:101AF00048495361C2F8A040C2F8A400C2F8B0300F
:101B00004B69DE07FCD5D1F8003145F60D52212096
:101B10009BB24861934265D100244FF48022012397
:101B20003C48C1F8A040C1F8A420C1F8B0304369D6
:101B3000DD07FCD501234FF400040021354A436141
:101B4000C0F8A040C0F8A410C0F8B0305369DC075A
:101B5000FCD501234FF400044FF480302D4953612C
:101B6000C2F8A040C2F8A400C2F8B0304B69D80750
:101B7000FCD501234FF400044FF40030254A4B619B
:101B8000C1F8A040C1F8A400C1F8B0305369D9072A
:101B9000FCD501234FF400042D481E495361C2F8BF
:101BA000A040C2F8A400C2F8B0304B69DA07FCD5F7
:101BB000D1F8003145F60D5221209BB24861934285
:101BC00050D008254FF4000422490020224B234A1C
:101BD000009015705A1A01232148224400F008FA97
:101BE00003B0F0BD1E4B0022C3E90022C3E902226C
:101BF00003B0F0BD00801F40F9B00100F9100100F2
:101C000000841F40F970010000C00F40FFFCFF1F5F
:101C1000000300A000402A4000802A401200FFFF7D
:101C2000FF37F7004000008000FFF07CFF000F83CB
:101C300063000200F05AF05A00422A4000432A4052
:101C40009F041830EB06180A3806180A06320126D7
:101C50000400030000000070000000700327012052
:101C6000B42301204FF400044FF4802201230848DC
:101C7000C1F8A040C1F8A420C1F8B0304369DB0727
:101C8000FCD5012310254FF0807443619CE700BF11
:101C900000402A40F0B4154A40274FF480314FF4F9
:101CA00080564FF400554FF4404443F2420013690C
:101CB00013F0020F0ED113F4005F0FD013F4805F06
:101CC0000ED0002BF3DA13F4803F0BD15B060BD55B
:101CD000F0BC7047946151619061E8E75561E6E7B7
:101CE0005661E4E79161E2E75761E0E700800D406B
:101CF0003F4A03203F49F3EE095AD2F880304FF0B3
:101D0000000C9FED3D6A23F001039FED3C5A30B477
:101D1000C2F88030C2F89000D1F8E010384DCBB254
:101D2000384C39482B6007EE903A0B0DC1F30B216C
:101D3000F8EEE77A06EE903A07EE101A334BB8EE5B
:101D4000C77A2160F8EEE66A314937EEC66A37EEA7
:101D5000C55A76EEC76A77EEE57A26EE266AC3EDB7
:101D6000006A25EE265AD2F8803067EEA64AC0ED0A
:101D7000007AC6EE275A274885EE276AC4EEA76A7E
:101D800075EE875AFCEEE55A36EE076A15EE904A74
:101D9000BCEEC66A43EA045376EE877AC2F8803016
:101DA00016EE103AD2F89041FCEEE77A01EA0341D0
:101DB000214317EE903AC2F89011C3F30B03D2F807
:101DC00090110B431449C2F89031D2F8803043F09F
:101DD0000203C2F88030114B80F840C0C1F8403196
:101DE0004FF0E023012230BCC3F80821704700BF48
:101DF00000810D4000441F400000AA420000B44290
:101E0000E8250120E4250120EC250120F025012012
:101E10000000FF0F00E400E0000401207D2200002C
:101E2000314B40F6617210B5C3F8202140F20444F2
:101E300000F0D6F82D4A2E49D2F880302D4843F0D4
:101E40000303C2F880302C4BC1F8604102681A428B
:101E500003D1D1F8A8319A071BD0254A4FF0004191
:101E6000244B5963D2F8403143F00203C2F84031A9
:101E7000D2F840319B07FBD44FF400304FF0E02103
:101E80001C4B4FF00042C1F88C0219209A6300F0FD
:101E9000B3F8184A4FF08040154C002190630A2097
:101EA000164B11604FF42072C4F8A801184600F0D8
:101EB0008FF84FF4800203464FF4810040F2431143
:101EC0001860C4F858311A640D4B0E4AC4F8481112
:101ED000C3F804224FF0E0224FF400310123C2F88E
:101EE0000C11C4F8403110BD00800D4000C00F40FF
:101EF00000002E4000900D40001C1E00000000203D
:101F0000000401206524000008B50E4B1B6E9B07E2
:101F100000D4FBBE72B60C4B00200C4AC3F8400143
:101F200003F160430A49A3F55F2311649D46BFF3A3
:101F30004F8F4FF400130748074ADB6902609B6824
:101F4000984700BF00441F4000002E4000C00A40D8
:101F50000300200000802020000012EB104BA02086
:101F6000104AD96E41F4403110B4D96640F237645A
:101F7000D96E41F44071D96654649064936C1B0629
:101F8000FCD4094A40F23761A02351649364936CF6
:101F900013F08003FBD1054A13705DF8044B7047C2
:101FA00000C00F4000400C4000800C400227012080
:101FB000F8B500BFF8BC08BC9E46704700000000A2
:101FC0005FF800F039CC03005FF800F0C11E00009C
:101FD0005FF800F0C19703005FF800F0D51A000029
:101FE0005FF800F0D52B00005FF800F0F935000035
:101FF0005FF800F05D3700005FF800F0C51D0000DD
:102000004500000081020000F1080000B9EE000068
:102010004D58010099F90100E1A3020051AD020001
:08202000ADD602006DD90200EB
:1020280080C00F40000000031900000010000000ED
:10203800E8841F4001000000FF000000FF000000CE
:102048000000000000000000180000001000000060
:10205800E4841F4001000000FF000000FF000000B2
:1020680000000000000000001F000000350E000006
:1020780070C00F40000C00001100000011000000AB
:10208800E0841F40020000002C0000001200000045
:10209800E0841F4001000000100000001100000053
:1020A800DC841F40020000002D0000001200000028
:1020B800DC841F40010000001E000000290E000003
:1020C80070C00F40C00000001200000013000000A4
:1020D800D0841F4001000000FF000000FF00000046
:1020E80000000000000000001300000013000000C2
:1020F800CC841F4001000000FF000000FF0000002A
:1021080000000000000000001C0000001D0E000080
:10211800160355005300420020005300650072006A
:10212800690061006C000000180354006500650038
:102138006E00730079006400750069006E006F001E
:102148000403090409026200030100C032080B00FD
:102158000202020100090400000102020100052434
:1021680000100105240101010424020605240600CB
:10217800010705820310001009040100020A00008B
:10218800000705030240000007058402400000091B
:1021980004020002FF6AFF000705810240000107F0
:1021A800050102400001000009026200030100C0AD
:1021B80032080B00020202010009040000010202B9
:1021C8000100052400100105240101010424020670
:1021D8000524060001070582031000050904010013
:1021E800020A000000070503020002000705840236
:1021F8000002000904020002FF6AC7000705810205
:102208000002010705010200020100000A0600029F
:08221800EF020140010000008B
:1022200000000000000000000000000000000000AE
:10223000000000000000000000000000000000009E
:102240000548064B1B1AD90F01EBA301491002D018
:10225000034B03B118477047C0060120C006012098
:102260000000000008B5054B1BB105490548AFF358
:102270000080BDE80840FFF7E3BF00BF000000009A
:102280009025012000100660704700BF2DE9F8433B
:10229000654D40F2EE28654C654FDFF8E8912E68F9
:1022A00003F08EF92378002B00F0B0803B78DB0739
:1022B00040F1AC802B68D9F800209B1A0E2B40F21D
:1022C000A5800F215B4803F0FDF85B4801F0F6FCA8
:1022D0005A4849F08DFE5A485A4D5B4C564E49F0CB
:1022E00087FE07E003F0EEF8304601F0E7FC6420DB
:1022F00001F078FE0C21284600F0E8FE03463E215E
:102300002046002BEED00E21504803F0DBF84A485F
:102310004F4D504C064601F0D1FC07E003F0D2F8D7
:10232000304601F0CBFC642001F05CFE0C21284615
:1023300000F0CCFE03463E212046002BEED00E21BD
:10234000454803F0BFF83C483C4E444D444C01F036
:10235000B5FC07E003F0B6F8374801F0AFFC6420A5
:1023600001F040FE47213246284601F017FA0346A5
:102370003C212046002BEDD10E213A4803F0A2F873
:102380002D482E4E384D394C01F098FC07E003F0F3
:1023900099F8294801F092FC642001F023FE4721BE
:1023A0003246284601F0FAF903463C212046002B2C
:1023B000EDD10E212E4803F085F81F48204E2D4DFB
:1023C0002D4C01F07BFC07E003F07CF81A4801F08B
:1023D00075FC642001F006FE46213246284601F0D5
:1023E000DDF903463C212046002BEDD10E21234888
:1023F00003F068F8104801F061FC0E21204803F05A
:1024000061F80D48BDE8F84301F058BC2B6822780C
:102410009B1B32B1B3F5FA6F3FF653AF03F0D0F820
:102420003EE74345FAD94CE7DC2601200B27012083
:102430000A27012064E3002028F1002038F1002061
:10244000B8F300207023012074E30020B4E30020DF
:1024500090230120C4E3002004E40020BC220120DA
:1024600014E4002054E40020F822012064E4002059
:10247000A4E4002034230120B4E40020F4E400208C
:1024800004E50020EC260120704700BF10B504468B
:10249000102101F0CFFE204610BD00BF000000005B
:1024A000F0B5454C93B0454D454E204603F088FCB1
:1024B0002A4644492046444C03F0A2FA434F2822BE
:1024C000434B4FF0FF31304600F0E8FD2A462146ED
:1024D000304603F095FA3F4E3D4B29224FF0FF3135
:1024E000384600F0DBFD2A462146384603F088FADC
:1024F000394B29224FF0FF31304600F0CFFD2A46FC
:102500002146304603F07CFA344801F045F934485E
:1025100001F042F9334801F03FF9334C00239FEDBD
:10252000227B23A1D1E900018DED067B8DED047B9B
:102530008DED027B8DED007BB0EE476BA361A36652
:10254000B0EE475BB0EE474BB0EE473BB0EE472BEB
:10255000B0EE471BB0EE470BC4E90201C4E90433F7
:10256000C4E90C33C4E90E33C4E91033C4E91233AF
:10257000C4E91433C4E91633C4E9183320468DED99
:10258000107B8DED0E7B8DED0C7B8DED0A7B8DED43
:10259000087B00F069F92A461449204613B0BDE8CB
:1025A000F04003F02DBA00BF000000000000000062
:1025B00000000000D0BCF8407C1F0120B0F50020D6
:1025C00070230120C53B000069000000802301202A
:1025D00038F1002090230120B8F30020BC22012014
:1025E000F8220120342301208808012089040000FA
:1025F000084670472DE9F0418368551AD0F80080ED
:1026000004460E461746A3EB08039D421AD9244BF5
:102610009D4242D845B3284601F004FE8046B742A9
:1026200004D02A463146404601F062FD206818B1C8
:10263000A168091A01F0FEFD4544C4E90085A560C2
:10264000BDE8F0814368A3EB080295420ED88F42A3
:1026500004D02A46404639F047F9636845449D4214
:10266000EED06560BDE8F081A846D8E78D18A94294
:1026700003D0404639F038F96368AF42A7EB05064E
:1026800009D018462946324639F02EF9034633441C
:102690006360BDE8F0810026F9E7024815F024FCEC
:1026A000F8FFFF7F8C28002010B50446006E18B19B
:1026B000A16E091A01F0BEFD606D18B1E16D091A35
:1026C00001F0B8FDA06C18B1216D091A01F0B2FD3E
:1026D000E06B18B1616C091A01F0ACFD206B18B108
:1026E000A16B091A01F0A6FD206918B1A169091AA8
:1026F00001F0A0FD204610BDF0B517681E46054646
:102700000C4697ED007B9FED446B9FED454B9FED95
:10271000465B27EE066B27EE057B86EE045B2DED10
:10272000088B9FED43BBB0EE408B87B087EE0B9BD1
:1027300085EE0B0B33F0F8FE97ED027B9FED3E5BD1
:102740009FED3F6BD6E9002327EE057BA3EB020C40
:102750005FEADC0327EE000B80EE067B87EE0BAB17
:1027600054D013466244B7EE003B9FED376B9FEDAC
:10277000384BB0EE465BB3EC027BB4EEC47BF1EEBB
:1027800010FA03DD35EE075B36EE036B9A42F2D1A9
:10279000B5EE406BF1EE10FA38D085EE067B94ED85
:1027A000020B9FED2D1B84ED007B87EE000B33F0B9
:1027B000FBFB00231820AB60B7EE006B9FED285B9E
:1027C00036EE400B88EE057BC5E900338DED009BAE
:1027D0008DED02AB27EE007B8DED047B01F022FD39
:1027E000EC4600F1180304462860C5E90133BCE853
:1027F0000F0020606160A260E360BCE8030020611C
:102800002846616107B0BDEC088BF0BD94ED007BFC
:10281000C5E700BFAFF30080182D4454FB210940E9
:10282000000000000080664000000000802DFB409A
:1028300000000000D0126341000000C0F71B83417C
:102840000000000000807640000000000000000052
:102850000000000000408F40D5A45DDE875AC83FCD
:1028600039B4C876BE9F7A3F70B5044618202DED66
:102870000E8B96B0B0EE438BB0EE44BBB0EE45DBB2
:1028800010ADB0EE46CBB0EE41ABB0EE429BB0EE39
:1028900047EB84ED0A0B84ED080B8DED143B8DEDB9
:1028A000101B8DED122B01F0BDFC8646844600F115
:1028B0001806B7EE003B9FED8E6B0FCD9FED8E4B54
:1028C000B0EE465BCEF80000CEF80410CEF808203B
:1028D000CEF80C3003CDCEF81000CEF81410BCECBE
:1028E000027BB4EEC47BF1EE10FA03DD35EE075B3C
:1028F00036EE036B6645F2D1B5EE406BF1EE10FAA1
:1029000000F0E28085EE067B00267046182184EDFB
:10291000007B01F08FFC182003968DED0ADB8DED16
:102920000CCB8DED0EEBCDE9016601F07BFC0DF1DA
:10293000280C00F11803054601900696CDE90233F4
:10294000BCE80F0028606960AA60EB60BCE8030087
:102950008DED10AB2861182069618DED129B8DED16
:10296000148BCDE9046601F05DFC0DF1400C00F123
:10297000180305460490B0EE4B0BCDE90533BCE8D7
:102980000F0028606960AA6001AAEB6004ABBCE894
:102990000300286107A869612146FFF7ADFE079B88
:1029A00020692361089BA1696361099B07960896CA
:1029B0000996A36140B1091A01F03CFC07980999F6
:1029C000091A08B101F036FC049818B10699091AE1
:1029D00001F030FC019818B10399091A01F02AFCA2
:1029E00004F1300016AA10A99FED418B8DED108BDC
:1029F0008DED128B8DED148BFFF7FCFD04F13C0087
:102A000016AA10A98DED108B8DED128B8DED148B08
:102A1000FFF7F0FD04F1480016AA10A98DED108B08
:102A20008DED128B8DED148BFFF7E4FD04F1540056
:102A300016AA10A98DED108B8DED128B8DED148BD8
:102A4000FFF7D8FD04F1600016AA10A98DED108BD8
:102A50008DED128B8DED148BFFF7CCFD14222849E0
:102A600028481FF091FA236B264893ED000B1FF0C6
:102A7000C1FB0122244905461FF086FA236B284634
:102A800093ED020B1FF0B6FB01221F4905461FF014
:102A90007BFA236B284693ED040B1FF0ABFB036816
:102AA000044653F80C3C0344DD6FEDB12B7F73B14A
:102AB00095F8271020461FF0F9F916B0BDEC0E8BE3
:102AC000BDE870401FF072B994ED007B1CE728460A
:102AD00009F0C8FB2B680D4A0A219B699342E9D093
:102AE000284698470146E5E715F0D6F9AFF3008090
:102AF00000000000000000000000000000408F40C7
:102B0000DC1E0020AC1C0120D0DB0020D103000023
:102B100010B5054C204603F053F92046034A0449FA
:102B2000BDE8104002F06CBF801F0120B0F500200E
:102B3000C53B00000020704790F8A32090F8A20049
:102B4000101A704790F8A23090F8A3209A4205D945
:102B50005A1C034480F8A220987E70474FF0FF3043
:102B6000704700BF90F8A23090F8A3209A4202D993
:102B70001844807E70474FF0FF307047704700BFA9
:102B80000346B0F8300178B193F82F21882A03D991
:102B9000012200205A60704702F1010C01201A4402
:102BA00083F82FC182F8A510704700BF38B5B0F880
:102BB00030410CB9204638BD90F82F310546C3F19D
:102BC0008904A2420DD8144605F1A50022461844F6
:102BD00001F08EFA95F82F312046234485F82F31E5
:102BE00038BD01224260EFE72DE9F04FD0F814A084
:102BF0001524017E8146437E83B00AEB0111384AD9
:102C00000AEB0313374F097A93F8283002EB0115CA
:102C10000901E86852F8018002EB0311D5F804B00D
:102C20001B01CE68D558CBF80040C8F88400D8F80E
:102C300004304A6803432C490192C8F804301460F8
:102C4000C5F884606B6833436B60284B4C683A6806
:102C5000A3FB0232920C02EB820252004B681B1B58
:102C60009A42FBD84FF0090C1F4ADFF880E0D8F8F1
:102C70000830034202D0AB6833422FD1C5F88860D8
:102C800054683968AEFB0131890C01EB810153684E
:102C90001B1B9942FBD8C5F8846054683968AEFBA9
:102CA0000131890C01EB810153681B1B9942FBD850
:102CB000BCF1010CDBD1604699F81830019A0AEB9F
:102CC0000313DB68CBF8003099F819300AEB031ACC
:102CD000DAF82C30136003B0BDE8F08F0120EBE789
:102CE00030DF0020D4F00020001000E083DE1B4322
:102CF0000E4A10B51168046905E0DB0107D41368BA
:102D00005B1A102B08D8636913F0007FF5D14FF4DC
:102D1000FE430120636110BDFFF766FF0028FAD073
:102D20004FF4FE4301206361F5E700BFDC2601207C
:102D30002DE9F04790F82FA10569BAF1000F4FD0A7
:102D400081468846FFF7D4FF002849D0374E00243B
:102D5000376818E06B69190551D4DA0455D4580561
:102D600059D4990441D43268D21B322A3DD85445F3
:102D700007D9EA6D520704D19B0555D4B8F1000F6D
:102D800052D002F01DFC5445E4D8EA6D500702F021
:102D90000703DFD413E099F8A5200133022442F49D
:102DA0008062042B2A661ED08A4503F1010309EBD9
:102DB00001020ED992F8A520042B2A66CAD001215F
:102DC000002CE8D02146013301348A4509EB010289
:102DD000F0D8B8F1000FBDD04FF400732B66B9E7FF
:102DE0000420BDE8F0870124B4E72B694FF400729A
:102DF000042043F440732B612A66BDE8F0872B69F9
:102E0000042043F440732B61EBE72B69052043F466
:102E100040732B61E5E72B694FF40072022043F405
:102E200040732B612A66DCE70020DAE7DC2601200C
:102E30002DE9F84F83460C4615461F46D0F810A0E2
:102E4000FFF756FF002800F09E806100012DDFF89B
:102E50003C8140F20146CBB24FF0000138BF012562
:102E6000D8F800900C461E43ABF8A21020E09BF867
:102E7000A330872B3FD9DAF8142010055AD412F466
:102E8000105F70D1D8F80030A3EB0903322B6AD859
:102E90009BF8A330AB4209D3022C07D9DAF85C3097
:102EA000590703D193054BD4002F49D002F088FB7A
:102EB000022CDCD8DAF85C3003F007025B07D6D4CA
:102EC000681E224440F480704CB9CAF86060013436
:102ED000131B032BCBD8022CC9D8002CF5D0012C06
:102EE00037D01FB14FF40073CAF860309BF8A3309D
:102EF0000324872BBFD8DAF85C2012F4E02FC2F34A
:102F0000024CB8D0591C9C441933C9B25FFA8CFCEE
:102F10005BFA83F3DAF870004A1C61458BF8A31062
:102F2000D1B203F8010FA6D08929F3D1DAF8142021
:102F30001005A4D5DAF8103043F44073CAF8103005
:102F4000DAF85C3013F4E02F06D19BF8A300BDE85B
:102F5000F88FCAF86000BAE7DAF8103043F400736B
:102F6000CAF81030F1E7DAF810304FF4007243F489
:102F70004073CAF81030CAF86020DAF85C3013F4F5
:102F8000E02FE2D0E8E70420BDE8F88FDC2601203E
:102F9000F8B506690446D6F8145115F4706301D0EB
:102FA000C6F81431A8070BD5D6F8702111043DD509
:102FB0000023012184F8A230234484F8A3109A76D8
:102FC000EA0710D594F83071F7B194F82E7194F89F
:102FD0002F31BB4226D97B1C274484F82E3197F829
:102FE000A530C6F86031AB050DD594F8A30018B133
:102FF000D4F83C3103B198470023A4F8A230A4F8D8
:103000002E3184F83031F8BDD4F8383103B1984707
:10301000002384F82E31012384F8303194F82F31C5
:10302000BB42D8D80023C6F86031DCE794F8A3305F
:10303000872BC5D8591CC9B2BEE700BF0148FFF7AE
:10304000A7BF00BF38F100200148FFF7A1BF00BFB4
:1030500078F200200148FFF79BBF00BFB8F30020C3
:10306000704700BF38B50C4620220021054604F108
:10307000080038F0B5FC0B220649204638F0A6FFC0
:1030800001230321044AE360AB686161226223618A
:1030900038BD00BFF41E00200AD7233C70B504469B
:1030A0001546094E002282B08160066010206260E1
:1030B000019301F0B7F82946019A054632F0B4FEB3
:1030C0002046656002B070BD444900202DE9F04102
:1030D0000F46064684B000214068552532F0AEFE0A
:1030E00004E000F07FFF013D00F0A2800121706844
:1030F00032F0A4FE04460A20002CF2D003AB4FF0BD
:10310000000801251946CDF8048000952A4670680C
:103110008DF80C8032F01AFF9DF80C30A02B12D0E5
:103120004FF47A7000F05EFF03ABCDF804802A46BE
:103130001946009570688DF80C8032F007FF9DF8F5
:103140000C30A02B74D100253D23022203A9357336
:103150004FF00108ADF80C300123CDE9005570683F
:1031600032F088FE1E2000F03DFF42F23F030222B3
:1031700003A9ADF80C300123CDE90055706832F099
:1031800079FE1E2000F02EFF01E000F02BFF03ABC4
:10319000706801228DF80C501946CDE9008532F097
:1031A000D5FE9DF80C300A20A02BEED1322000F085
:1031B00019FF3E2303A90222ADF80C300123CDE90B
:1031C0000055706832F056FE0A2000F00BFF07230E
:1031D00003A90222ADF80C300123CDE90055706837
:1031E00032F048FE3F2303A90222ADF80C30012340
:1031F000CDE90055706832F03DFE0A2000F0F2FE85
:103200003D2203A90123706837738DF80C20022238
:103210008DF80D70CDE9005532F02CFE1E2000F027
:10322000E1FE142000F0DEFE204604B0BDE8F0818F
:103230000024204604B0BDE8F08100BF000000007B
:1032400030B587B01546002304468DF80C200622C1
:10325000083D036043608360C3600361436104937E
:10326000486803A90193ADF8143004AB0092012221
:1032700032F06CFEBDF91000BDF91210BDF914203A
:10328000262D2FD8DFE805F0142E2E2E2E2E312ECF
:103290002E2E2E2E312E2E2E2E2E312E2E2E2E2E48
:1032A0002E2E2E2E2E2E2E2E142E2E2E2E2E1400A0
:1032B00007EE900AB8EEE75B07EE901AB8EEE76B00
:1032C00007EE902A9FED184BB8EEE77B85EE043BA6
:1032D00086EE045B87EE046B84ED003B84ED025BBD
:1032E00084ED046B204607B030BD07EE900A2046FF
:1032F000B8EEE75B07EE901AB8EEE76B07EE902AA0
:103300009FED0B4BB8EEE77B25EE045B26EE046BDE
:1033100027EE047B84ED005B84ED026B84ED047B7F
:1033200007B030BDAFF3008000000000000059403E
:10333000000000000000B03F70B50C4686B00546A6
:1033400020220021201D38F04BFB2422104B0326A5
:1033500022606846AA6829461B6862601A22A66035
:103360002361FFF76DFF01209DED005B9DED026B7A
:103370009DED047BB7EEC55BB7EEC66BB7EEC77BC2
:1033800084ED055A84ED066A84ED077A06B070BDB7
:10339000DC260120084A094B51681B6810B4084C10
:1033A000A4FB03439B0C03FB00F053685B1A984299
:1033B000FBD85DF8044B7047001000E0D4F000200B
:1033C00083DE1B4330B482B00C4602AB03E9060037
:1033D000C37C002B30D072B6C37CDA0708D54FF01F
:1033E000E0214569D1F880212A408262C1F880211C
:1033F0009D0708D54FF0E0218569D1F884212A4046
:10340000C262C1F88421590708D54FF0E021C5698F
:10341000D1F888212A400263C1F888211A0708D50B
:103420004FF0E021056AD1F88C212A404263C1F8AF
:103430008C21DB062FD462B683689C4235D0224BA8
:1034400084609B69214AC3F30111C3F3826352F87C
:1034500021100133B1FBF3F2CCB1944227D8B2FB77
:10346000F4F3B2FBF3F294422CD3B3F5817F20D373
:10347000174CC460036803220020019918615A6246
:1034800001221C6419661A6102B030BC704799426F
:10349000EFD3531CE9E74FF0E022416AD2F89031B4
:1034A0000B408363C2F89031C5E7C468E2E70024AB
:1034B000DFE7022BFBD9023B5A08140244EA02441C
:1034C0001C43D6E71A46E4E700C00F40DC5A002050
:1034D000FF7F7F00002A00F0BD802DE9F0431F78B8
:1034E00083B004468946012F1D4690460CD0022F1A
:1034F00005D0002F55D0002003B0BDE8F0836FF059
:10350000010003B0BDE8F0835A7801465B685200C1
:1035100083F8307183F8A52083F82F7168680368F9
:103520001B68984739466868FFF702FC0028E6D117
:103530003B465FFA88F2697809F1FF396868FFF75E
:1035400077FC6868454F09EB08060368DFF81481CB
:103550001B69BB4220D190F8A33090F8A220981AA2
:103560000028C8D0686803685B69434516D190F8A5
:10357000A23090F8A3209A4203F10102034467D9D4
:1035800080F8A220987E09F8010F4E45B3D06868F4
:1035900003681B69BB42DED09847E1E79847C0B299
:1035A000F1E7DB682E4E009307233046019302AB10
:1035B00013E90600FFF706FF287A394600F066FD9A
:1035C00044F0800034686066E06D10F4F81FFBD0B2
:1035D00009F1FF33626F002703EB08026766E06DB5
:1035E00010F4F81FFBD0616F03F8011F9A4201D05D
:1035F0003468F3E70121287A00F048FDF37C002BC2
:103600003FF479AFDC0704D5B16A4FF0E022C2F88D
:103610000011980704D5F16A4FF0E022C2F80411B6
:10362000590704D5316B4FF0E022C2F808111A0790
:1036300004D5716B4FF0E022C2F80C11DB067FF568
:103640005AAFB26B4FF0E0230020C3F8102153E7CC
:10365000FF2098E76FF00100704700BF19090000D4
:10366000D8F0002025090000002A00F090802DE904
:10367000F04793F8008082B082460D46B8F1010F02
:103680001F46164609D0B8F1020F24D0B8F1000F3A
:1036900026D0002002B0BDE8F0875A784D1E5B6846
:1036A000014652002E4483F8308183F8A52083F828
:1036B0002F81786803681B689847786815F8011FA0
:1036C00003681B689847AE42F7D101217868FFF77D
:1036D0002FFB0028DDD06FF0010002B0BDE8F087BD
:1036E000DB68DFF8B090009307234846019302ABF4
:1036F00013E90600FFF766FE4146387A00F0C6FC83
:10370000D9F80040C4F864A0E36D13F4F81FFBD0AF
:10371000691E636F0E4411F8013F6366E06D10F49B
:10372000F81FFBD08E42636FF5D10121387A00F08B
:10373000ADFC99F81330002BABD0DC0705D5D9F8D8
:1037400028104FF0E022C2F80011980705D5D9F8EB
:103750002C104FF0E022C2F80411590705D5D9F812
:1037600030104FF0E022C2F808111A0705D5D9F839
:1037700034104FF0E022C2F80C11DB0689D5D9F8DD
:1037800038204FF0E0230020C3F8102182E76FF0CB
:1037900001007047D8F00020704700BFA1F1460338
:1037A000012B2DD8184B70B5C2610026174A012590
:1037B00041760446457505768663C0E90223144ABE
:1037C00000F11803C0E90A66C0E90C6602614360B3
:1037D00000F0E8F800B170BD204600F037F800288E
:1037E000F9D1214604F1280084F82A5000F00CFA9F
:1037F0000028F0D121462846BDE8704000F088B985
:103800006FF00B00704700BF49140000B5120000B4
:1038100075110000BBB138B59D681C4685B1DB68E9
:1038200073B1236963B159B1637D0BB940F0800076
:103830006368A8470028207518BF6FF0010038BDE5
:103840004FF0FF3038BD4FF0FF307047002845D0B3
:10385000836810B5044682B0002B3CD0C368002BAF
:1038600039D00369BBB3437D5BB3012223460DF11D
:1038700005011046FFF7CEFF08BB9DF8053083B366
:10388000234601220DF106012820FFF7C3FFB0B93E
:103890009DF8063003F00603022B25D123460122B2
:1038A0000DF107012720FFF7B5FF40B99DF807305C
:1038B000DB0619D59DF80530502B18D1237002B0C6
:1038C00010BD0122034601A91046FFF7A3FF0028FF
:1038D000CBD002B010BD4FF0FF30F0E74FF0FF301B
:1038E00070476FF00300EAE76FF00400E7E76FF05E
:1038F0000200E4E783B32DE9F8431D469B6843B318
:10390000EE6836B32B6923B30F4611B36C7D804646
:1039100091466CB1013C012C17D995F9140000288F
:1039200018BF6FF00100BDE8F8834C45F7D2EE6890
:1039300004EB0800391901346B680122C0B2B047AA
:103940002875E4B20028F0D0E9E76B68B047287525
:10395000E5E74FF0FF30E6E74FF0FF30704700BF7C
:1039600010B584B00B46012204460DF10F0137203B
:103970000193FFF74FFF019B08B104B010BD9DF804
:103980000F1004F00300012261F07F040DF10F011C
:1039900024F0030420438DF80F003720FFF7AAFF1F
:1039A00004B010BD30B5B62383B0044601228DF8B3
:1039B00007300DF107017E202346FFF79BFF0546E8
:1039C00030B923694FF4FA6061689847637D13B199
:1039D000284603B030BD012223460DF106011046F2
:1039E000FFF718FF0546284603B030BDD8B10B4697
:1039F000022210B582B00446362001A9FFF70AFF63
:103A000078B99DF804309DF8052003F00701C2F352
:103A100084022170C3F3C201C3F38013E2706170AA
:103A2000A37002B010BD4FF0FF307047E8B10B46F5
:103A3000022210B582B00446302001A9FFF7EAFE49
:103A40009DF804309DF80520C3F3C001A170C3F3B5
:103A50004011C3F38003E17002F00701C2F3C20218
:103A600023712170627002B010BD4FF0FF307047BB
:103A7000002845D00B46012230B585B004460D46DE
:103A800037200DF10201FFF7C5FE60B99DF8023045
:103A900003F00302022A08D0032A06D0012A04D028
:103AA000DB0905D0207005B030BD227005B030BDF7
:103AB0002B468DF80C0001220DF10301CDE9010028
:103AC0001820FFF7A7FE9DF8033003F003038DF8DD
:103AD00003300028E7D1294601A8FFF787FF90B1FE
:103AE0009DF80730182BDED99DF803309DF808109B
:103AF0009DF809200B431343D5D104232370D2E74B
:103B00004FF0FF307047294602A8FFF78FFFE7E725
:103B100070B582B006460D460DF10600FFF7A8FF0E
:103B2000044638B99DF80630002B57D1032E04D82F
:103B3000002E60D1204602B070BD042E58D12B4615
:103B400001220DF107013720FFF764FE044600282B
:103B5000F0D19DF807102B460122372001F0030118
:103B600041F070018DF807100DF10701FFF7C2FE5B
:103B700004460028DED12B4601220DF10701312039
:103B8000FFF748FE04460028D4D19DF807102B46C5
:103B90000122312021F03F018DF807100DF10701BE
:103BA000FFF7A8FE04460028C4D12B4601220DF1E0
:103BB00007011820FFF72EFE04460028BAD19DF811
:103BC00007402B4601220DF1070124F003041820C1
:103BD0008DF80740FFF78EFE0446ABE72946FFF756
:103BE000BFFE78B92B6940F6C410696898479DE715
:103BF0006FF006049EE72946304602B0BDE87040EB
:103C0000FFF7AEBE044695E730B5002383B0ADF8AC
:103C1000043000284BD0C3780D460446172B09D832
:103C20000DF10300FFF724FF024658B99DF8033059
:103C3000042B35D002222B46362001A9FFF7EAFDDE
:103C4000024610B1104603B030BD9DF804202B464B
:103C5000207801A902F0C00200F00700024360785A
:103C6000C00000F038000243A078E478800122F020
:103C70004002A40000F0400004F07C0402439DF8E0
:103C8000050020F07C008DF8042002220443362039
:103C90008DF80540FFF72EFE0246104603B030BDFA
:103CA0002946FFF735FF02460028C3D0CAE74FF088
:103CB000FF32C7E7084601F0EFBB00BF00B503685D
:103CC00083B040F60D2C022201A95B68ADF804C058
:103CD000984703B05DF804FB054B022888BF0346F4
:103CE00010B41C68184663685DF8044B184700BFA1
:103CF00028F10020A249A34B88422DE9F047A24CAD
:103D00005E699A69D4F80C801BD9A04B984240F2A6
:103D10000281C31A9E491B0AA1FB031340F22761CB
:103D2000DB0903EB830303EB830303F2E2438B42E0
:103D300028BF0B46A3F54877964BA3FB0737FF0830
:103D400004E0954FB8428CBF0E2706278D4908F036
:103D50001F09D1F88030B94543F0C003C1F8803065
:103D60000CD228F01F08A1F5F82148EA0708C1F88D
:103D70000C800B68002BFCDA08F01F0916F00073AA
:103D800024D186490C698649A14300F0EA8082F477
:103D9000805134464FF4805514F0605F04D026F013
:103DA00060561E43774B5E6111F4405F07D022F4EA
:103DB000405274492A438A618B6C1A07FCD446F03E
:103DC0000076704A5661936C9B06FCD4754CA042F9
:103DD00000F2CE804FF0010C0146634603FB011256
:103DE00003F1010E0CF10105A24218D8BEF1080F33
:103DF0004FF0010340F08D80BCF1040F00F2918080
:103E00000A18A24200F2A48005FB00F1AC4603F1BF
:103E1000010E03FB01120CF10105A242E6D90CF1DF
:103E2000FF318C0286EA81215F4810445F4A90424C
:103E30007FD9DFF8A4A16C225D48584DB0FBFEF09D
:103E4000D5F800E0B0FBFCF0DFF890C10EEA0C0CF6
:103E5000D44509D042F400524FF4805CC5F800C04C
:103E60002A602A68002AFCDA464A156905F0070527
:103E70009D4203D01361936CDD03FCD411F4E05F29
:103E800009D026F4E05604F4E0543E4A2643566135
:103E9000936C9907FCD44749474A014491423CD866
:103EA000464BC909A3FB0131090B4B1E1B0286EAD5
:103EB000030212F4407F06D026F4407603F44073E8
:103EC000304A334353612F4A536923F000735361DF
:103ED000936C9B06FCD43A4B4F45A3FB00234FF059
:103EE000FF324FEA9343B0FBF1F1B2FBF3F3354AF3
:103EF0001060354A1160354A136008D228F01F0857
:103F0000214A48EA0707D7601368002BFCDABDE8AE
:103F1000F087734662E7122718E74FF440730421D5
:103F2000C5E70CF1FF31204807238C02104486EAD4
:103F30008121274ADFF8A8A0A2FB0020020D254816
:103F4000362A38BF362202FB00F042EA0A0A74E73A
:103F50004FEA8C24002386EA8C214FF0010EAC46F8
:103F600062E71D4686F0C05411464FF0C05313E778
:103F700000244FF0010C024631462346E64653E743
:103F800000A4781F00C00F40000008400046C32373
:103F900023B24C001F85EB5100366E0100800D40AE
:103FA00040300080FFB19F26808D5B00FF7EF64D84
:103FB00000643F4D7FD1F0087F17B42C9F10E500BF
:103FC00083DE1B43D4F00020D0F00020D426012053
:103FD000819F5E16001BB7006C2000807F3001803F
:103FE0000020008000B970472DE9F84F012181467B
:103FF000214C224D224E54E8003F2A68306844E8A4
:104000000013002BF7D11F494B684FF47A7BDFF880
:1040100078A01B1A01270BFB02F8DAF80020A3FB9B
:1040200002325A4594BF9044D84454E8003F2A686D
:10403000306844E80073002BF7D14B68DAF800C011
:104040001B1A0BFB02F2A3FB0C3CBCF57A7F94BF5E
:10405000624402F57A72A2EB0802B2F57A7F06D3C7
:10406000B9F1010908F57A78DFD1BDE8F88F01F0E0
:10407000A7FA0449D9E700BFE0260120DC26012089
:10408000D8260120001000E0D4260120362816D8BA
:104090000201104B03EB00109B5810B4C2685C681F
:1040A000144205D061B95DF8044BC3F8882070470D
:1040B000836851B1084A5DF8044B1A607047704735
:1040C0005DF8044BC3F884207047044A5DF8044B44
:1040D0001A60704730DF002038F0010038300100EE
:1040E00008B5FEF7D3F8FEF7CFF901F069FAFAE761
:1040F000844641EA000313F003036DD1403A41D3F3
:1041000051F8043B40F8043B51F8043B40F8043BB1
:1041100051F8043B40F8043B51F8043B40F8043BA1
:1041200051F8043B40F8043B51F8043B40F8043B91
:1041300051F8043B40F8043B51F8043B40F8043B81
:1041400051F8043B40F8043B51F8043B40F8043B71
:1041500051F8043B40F8043B51F8043B40F8043B61
:1041600051F8043B40F8043B51F8043B40F8043B51
:1041700051F8043B40F8043B51F8043B40F8043B41
:10418000403ABDD2303211D351F8043B40F8043BE1
:1041900051F8043B40F8043B51F8043B40F8043B21
:1041A00051F8043B40F8043B103AEDD20C3205D3F1
:1041B00051F8043B40F8043B043AF9D2043208D0E9
:1041C000D2071CBF11F8013B00F8013B01D30B885B
:1041D00003806046704700BF082A13D38B078DD039
:1041E00010F003038AD0C3F10403D21ADB071CBF0B
:1041F00011F8013B00F8013B80D331F8023B20F875
:10420000023B7BE7043AD9D3013A11F8013B00F8AD
:10421000013BF9D20B7803704B7843708B78837035
:104220006046704734F0AABA34F0A8BA34F0AEBA97
:1042300034F0ACBA34F0AABA01F1FF3C70B566466E
:10424000002400E00134B0FBF2F502FB1503092B5A
:1042500003F1370E03F130035FFA8EFE98BF5FFA69
:1042600083FE9042284606F801EFEBD2631C002241
:10427000C818CA547CB162461CF8015F10F8016D81
:10428000A1EB0C0302328CF80060013B521A05705E
:1042900023449A42EFDB084670BD00BF72B6EFF3CD
:1042A0000583524CC4F884301EF0040F0CBFEFF3AA
:1042B0000882EFF309824FF0E0234D4E4D4DD3F8C5
:1042C000280DD3F82C1DC4E92201D3F8341DD3F8EE
:1042D000383DC4E924139369C4F89830D369C4F80D
:1042E0009C3000F0DDF884ED280A01F00FFB0B2173
:1042F0004FF0FF32C4F8A4000B46C4F880103E49CA
:10430000301D5A40202402F00103013C01FB03F35D
:1043100083EA5202F7D1A84202D073680646EFE75B
:10432000324BC3F8A820BFF34F8F4FF0E023304942
:10433000324AC3F8701FC3F8702FBFF34F8FBFF31B
:104340006F8F2F4A02252F48D36E2F4943F44053D5
:10435000D3660560D3692D4823F07F0343F0400303
:10436000D3610B6883423DD8264D00214FF0E023F6
:104370004FF0FF3229600126C5F808112449C5F81D
:104380000011C5F80861C3F88021C3F88421C3F87F
:104390008821C3F88C21C3F8902101E000F072F964
:1043A000D5F80C31002BF9D00134C5F80C614F2C35
:1043B000F4D9184B022018494FF00042C1F84001CF
:1043C0005A63D5F80C313BB9144815490D4A0163BD
:1043D000D2F80C31002BFAD04FF0E023114AC3F889
:1043E0000C2DFEE7FFF786FCBEE700BF00FF27208D
:1043F00080FF2720A8FF27202083B8EDA0FF2720DB
:1044000000C00F4000400840D4F00020803DCD0B9C
:10441000009F240000900D4000002E4000800F40BF
:10442000F100AD0B0400FA050A490A6838B108B575
:1044300013180948834204D810460B6008BD104683
:1044400070473AF033FB0C234FF0FF320360104605
:1044500008BD00BF8CF50020000028200020704718
:104460004FF0FF30704700BF4FF4005300204B6007
:10447000704700BF012070474FF0FF30704700BF0A
:1044800030BFFDE70078B0FA80F04009704700BF08
:1044900001230370704700BF30BFFDE7FFF7FEBE8A
:1044A000124AD2F880305B07FBD5D2F88030104832
:1044B000C3F30B230F4990ED007A07EE903A91ED8C
:1044C000006AB8EE477A0C4AF8EEE77A0B4BD2ED69
:1044D000006A77EEC77A93ED007AB8EE477A67EE16
:1044E000867A87EEA60A37EE400A704700810D40B3
:1044F000E4250120EC250120F0250120E8250120FC
:10450000836BF0B41BB1536843F40043536072B63D
:10451000446B3CB31A4B2260D3F8B0410C421DD11E
:10452000184E776804E07468E41BB4F5166F0BD27C
:10453000D3F8404144F48044C3F84041D3F8B85123
:10454000D3F840416404EED50D4007D10C4CC0E9CE
:104550000225D4F8B0310B43C4F8B031426362B6DF
:10456000F0BC7047064DC0E90224D5F8B0310B43CA
:10457000C5F8B0310263426362B6F0BC704700BF59
:1045800000002E40001000E070B5056B9DB106469E
:104590002A46002403E012680134012A0CD0536833
:1045A00013F08003F7D032632CB12846B36B2D682B
:1045B0009847013CF9D170BDC6E90C33F4E700BF60
:1045C00030B4D9B91F4C204B0021204A01254FF0AF
:1045D000011099601D60C4E9023180245C60C2F85A
:1045E000BC01D2F8B0311A482B43C2F8B031016097
:1045F000D2F8B031002BFBD130BC70470904154B09
:10460000104C012541F080019860104A596000F576
:1046100080511D60D96000F50051A364196100F557
:10462000405100F58040596100219861E164D2F861
:10463000B03143F48033C2F8B031D2F8B031002B3E
:10464000FBD1C0E700000020C006012000002E4082
:10465000A8230120E0060120084901220B7802FA74
:1046600000F023EA0000087030B9054AD2F848315A
:1046700023F08003C2F84831704700BF06270120AD
:1046800000002E402DE9F04F974C83B0D4F84471D0
:10469000FB07C4F8447153D5D4F8AC21002A4AD0A2
:1046A000924EDFF860A2DFF87492DFF874B2DFF8A0
:1046B0007482C4F8AC21D6E90A20D4F8403143F41E
:1046C0000053C4F84031D4F840319D04F5D5D4F8F6
:1046D000403123F40053C4F840314FF00113C4F8C3
:1046E000B431D4F8B45115F00115FAD193B284461F
:1046F000CAF80050B3F5086F00F0CF8100F2DB80FC
:1047000040F202318B4200F0E78100F29A80822B66
:1047100000F0CB81B3F5817F40F08A8010F0780FF4
:1047200083B200F003824FF00113C4F8C031D4F813
:10473000AC21002ABDD16C4AD2F8BC31002B42D149
:104740007E0616D5684BD3F8AC21C3F8AC21D3F85C
:10475000BC21C3F8BC21D3F8B041002CFBD14FF0F1
:10476000FF32C3F8B421D3F8843100F02DFD604B43
:104770001C60FC0103D55F4B1B6803B19847B8016F
:1047800003D55D4B1B6803B19847790708D5564B95
:10479000D3F8843113F4007347D0584B01221A70B8
:1047A000514BD3F848311A060AD53B0608D5544A6E
:1047B00013782BB1013BDBB21370002B00F0728237
:1047C00003B0BDE8F08F4F49C2F8BC31086803421E
:1047D00040F0D181464A14681C40B1D05FEA1448C9
:1047E00010D0424E4FF0010998FAA8F5B5FA85F5B8
:1047F00006EBC51009FA05F54030FFF7C5FE38EAAB
:104800000508F1D1A4B2002C9AD0384E4FF001081F
:1048100094FAA4F5B5FA85F506EBC51008FA05F586
:10482000FFF7B2FEAC43F3D18AE7344A1370B7E71F
:10483000802B7FF478AF344802210580FFF7C0FE5B
:1048400075E7B3F5A06F00F00B81A3F5D063012BE2
:104850003FF669AF2D4B5D68002D3FF464AF1FFA42
:104860008CFC4FEA124E04E01D690C33002D3FF41E
:104870005AAF1A887245F7D15A886245F4D14FEA87
:104880001E22032A00F0A5811A89000C824228BF4B
:104890000246BEF5007F40F0A181184B1C491878F4
:1048A0001C4B0192002818BF19461B48FFF720FC3B
:1048B000194D019AE1E142F221218B427CD033D99A
:1048C00042F221318B4200F081804FF6C0018B42D1
:1048D0007FF429AF10F47F4F83B27FF424AF43F409
:1048E0006E4363F30F0CB5E700002E40000000207C
:1048F000AC230120F0260120F42601200C27012002
:104900000D270120A8230120AC250120D8ED00208F
:104910004C210060B021006000002020A023012075
:104920005DCFC6B8C0012E40B3F5106F66D042F21D
:1049300021018B427FF4F7AE030C072B7FF4F3AE1B
:10494000B24BB349F560D960B249B360C3F808907F
:10495000C1E9002001221A60AF4A5A60AF4A1A61C9
:10496000D4F8B01141F00101C4F8B01102F5805142
:1049700002F5005259619A61D4F8B031002BFBD195
:10498000A74AF36493600123B264136048F2800382
:1049900053604FF00113C4F8BC31D4F8B03143F484
:1049A0008033C4F8B0314FF48033CAF80030D4F803
:1049B000B031002BFBD1BAE680B238B9994BC2F3C3
:1049C00007421968984B1960984B1A70944B002253
:1049D0009A60F2640122B3641A6080225A604FF038
:1049E0000113C4F8BC31D4F8B03143F48033C4F8B7
:1049F000B031D4F8B031002BFBD198E6C2F30742B6
:104A00008B4B1A708B4BC4F8C8318B4BC4F8CC312C
:104A10008A4BC4F8D03100F0D9FB8022294688485F
:104A200036F0DEFF874B8022C6F8A0B0C6F8E03033
:104A30007B4BF5645A600122B3649D601A604FF0AD
:104A40000113C4F8BC31D4F8B03143F48033C4F856
:104A5000B031CAF80050D4F8B031002BFBD166E673
:104A60006F4B0121F564196080219D60B36459602A
:104A70004FF00113C4F8BC31D4F8B03143F48033A3
:104A8000C4F8B031D4F8B031002BFBD1130C5B0665
:104A900043F08073C4F8543149E6654B01216A48FC
:104AA0001B780370FFF78CFD41E683B210F07800AD
:104AB0007FF439AE03F07F0258F82210624A10806A
:104AC000180600F19E80CB0701D501231370022147
:104AD0005D48FFF775FD2AE610F0780F83B27FF48A
:104AE00022AE03F07F0213F0800F58F8223014BF7B
:104AF00043F4803343F0010348F822300022484B4E
:104B0000F2649A600122B3641A6080225A604FF006
:104B10000113C4F8BC31D4F8B03143F48033C4F885
:104B2000B031D4F8B031002BFBD100E603F07F02A6
:104B300013F0800F58F8223014BF23F4803323F091
:104B4000010348F822300022354BF2649A600122BA
:104B5000B3641A6080225A604FF00113C4F8BC316C
:104B6000D4F8B03143F48033C4F8B031D4F8B03164
:104B7000002BFBD1DBE50020086026490C88486843
:104B800042F221018C427FF425AE80B200287FF4EE
:104B900021AE2E492E4C03C9A18086284FEA11412F
:104BA0002060A1717FF416AE72B62A48017841F0F8
:104BB00008010170D2F848110D0605D48020014388
:104BC000C2F84401C2F8481162B6234A502111705C
:104BD00000E6000C2A78824228BF0246BEF5E06F4C
:104BE00044D11E4B1E4D18781E491F4B01920028C0
:104BF00018BF19462846FFF77BFA07236B70019A06
:104C00003BE0C9033FF561AF61E700BFE00601206B
:104C1000A03301208008012080000700A04301206C
:104C2000C0060120DC260120EC2601200A270120F5
:104C30000B2701200200CC00C80002000200C800BF
:104C4000800000201993D574AC250120A0230120F9
:104C5000E4260120062701200D2701200C27012032
:104C600000002020B02100604C2100602946104D3A
:104C700001922846FFF73CFA019A25F01F031544DC
:104C8000BFF34F8F4FF0E021C1F8703F20339D42BA
:104C9000FAD8BFF34F8FBFF36F8F05481146FFF768
:104CA0008FFC44E50320FFF7D7FC47F09DF900BFD8
:104CB000000020202DE9F0471F46831E022B01D95A
:104CC000BDE8F087DFF84C9015460C463C2209EB16
:104CD000C01806464FEAC01A002108F10400240457
:104CE00036F07EFEB5FA85F20123520944EA427499
:104CF00049F80A40C8F83870C8F80830002FDFD0EB
:104D0000034AB34011680B431360BDE8F08700BF4E
:104D1000AC230120000000202DE9F0470D46811E44
:104D2000022901D9BDE8F087C701DFF84C9092460F
:104D3000044640373C2200211E4609EB07082D049B
:104D400008F1040036F04CFEBAFA8AF2520945EA3C
:104D5000427249F807200122C8F83860C8F80820D4
:104D6000002EDFD0034B10341968A2400A431A60AA
:104D7000BDE8F087AC230120000000201204816010
:104D8000C36101F5405342F0800210B40124426037
:104D900001F50052046001F5805401F58041C460C2
:104DA00081615DF8044BC0E904237047831E0A4605
:104DB000022B00D97047064B00F110014FF0010C97
:104DC00003EBC0100CFA01F14030FFF799BB00BFB4
:104DD00000000020831E0A46022B00D970470121E3
:104DE000024B814003EBC010FFF78ABB000000209C
:104DF00040687047124A134BD2F8200220F07F40DF
:104E0000984210B584B002D200EB800040000E4CF6
:104E100001A90A22FFF710FA01A90023204611F880
:104E2000012B01333AB10A2B20F8022FF7D11623B8
:104E3000237004B010BD5B00DBB2237004B010BD62
:104E400000441F40809698004C03012000F0DCBA1B
:104E500000F0ACBA00F010BB00F0CABA00F066BBBC
:104E600000F03CBB0846114600F02CBBF8B5144CD2
:104E70004FF0E025134E4FF4003204EB4024124F64
:104E800006EB40160346C5F88C2121463A88304689
:104E9000FFF774FF3B882344BFF34F8FC5F85C4F87
:104EA0002034A342FAD8BFF34F8FBFF36F8F032094
:104EB0003146FFF78FFF4FF40033C5F80C31F8BDD2
:104EC0008000202000070120F8260120244B2DE936
:104ED000F0411C884368C569C3F30E43E41A002CF3
:104EE00024DD204920480A780078D3B21F4E824240
:104EF0001F4807D010F8038036F81870C7F5007205
:104F0000944218D90133002226F81540082B194E77
:104F100088BF134626F8152098BFDAB2C554164B41
:104F20000A701A6814441C60BDE8F0812846BDE888
:104F3000F041FFF79BBF07EB48201049224627446A
:104F4000084401EB4521FFF7D3F80B4A284626F821
:104F5000187013682344BDE8F0411360FFF786BF63
:104F6000F82601200427012005270120B82501206B
:104F7000D8250120C8250120B4250120800020204B
:104F80001D4B1A78002A36D102F0FF031B4A127813
:104F90008AB32DE9F0411A4D2A8852B3194EC2F551
:104FA0000068194F3278194C07EB421704EBC22402
:104FB000424638462146FFF7E1FE04EB0802BFF304
:104FC0004F8F4FF0E023C3F8704F2034A242FAD83D
:104FD000BFF34F8FBFF36F8F04203946FFF7E6FE14
:104FE00033780133DBB2032B88BF002333700023F7
:104FF0002B80BDE8F0817047092701200B27012095
:10500000FA26012008270120000801208010202016
:105010002DE9F04F85B0CDE90110002900F0BF80E7
:105020000023604CDFF89881DFF898A15E4F009371
:1050300001235E4A23705E4B1978B8F8003002EB0A
:105040004119002B40F0A7801E461D469B4648464E
:10505000FFF7CEFE10F0800000F08C80BFF34F8F82
:105060009AF8003084F800B005B93E68002B7DD175
:105070003B689B1B782B00F287804E4B1B78002BE4
:1050800074D000F09DFA0122B8F800301546227065
:10509000002BDCD0464AC3F5006011781A4600EBBD
:1050A000C120454DC9022844019D954217D2039362
:1050B000DDE901512A46FFF71BF8039B4FF0404200
:1050C0005B1BA8F800303D4BC3F88420BFF34F8F23
:1050D000009800232844237005B0BDE8F08F364BBC
:1050E000CD180299FFF704F800234FF40062294617
:1050F0004846FFF743FEBFF34F8F05F1200205F549
:105100000063934234BF012340234FF0E02205EBBC
:105110004313C2F8705F2035AB42FAD1BFF34F8F13
:10512000BFF36F8F04204946FFF740FE204A1378F3
:105130000133DBB2032B84BF00231D4A1370B8F880
:105140000030019AD11A009A1A4401910092029AF1
:105150001A4400230292194AA8F80030C2F8843099
:10516000BFF34F8F237000297FF462AF009805B022
:10517000BDE8F08F4FF400620D4B8AF800001978FB
:105180001346A8F800208AE7012300988AF8003027
:1051900005B0BDE8F08F1A46C3F500607FE70198BF
:1051A000E5E700BF09270120DC26012000080120D7
:1051B000082701200B2701208010202000002E400E
:1051C000FA26012007270120704700BF2D4B002140
:1051D00080222D4870B51B7800242C4D8B422C4E1C
:1051E0000CBF40234FF400732B80338036F0F8FB64
:1051F000284A2146284B14704FF4807227481C809F
:1052000036F0EEFB264A1021264B0220C2E900446C
:10521000C2E90244244AC3E900441470234AC3E9A2
:105220000244234B1C70234614602246FFF774FD92
:105230002246318803201F4BFFF73CFD2346012205
:1052400029880420FFF768FD20460134FFF70EFE91
:10525000082CF9D1184B00214A221848184C046038
:10526000C3F88410C3F88020D3F84821154942F0D0
:105270008072C3F8482121B1134A137843F0010327
:10528000137070BD0C27012000080120FC260120AE
:10529000F826012008270120FA2601200007012016
:1052A000B8250120C825012004270120B4250120AC
:1052B00005270120AD2C000000002E40F026012023
:1052C000612D0000000000000E2701202DE9F04FA5
:1052D0004FF0E0234FF40032DFF8C8A083B0C3F8EA
:1052E0008C218B469AF8004000294FD08046E4B2CA
:1052F0000027DFF8B490264BABEB070225491B785B
:10530000A34204F101043FD0092C234B404628BF9F
:1053100000241E5D39F816C00CEB462319441F4BC0
:1053200033F81650A5EB0C05AA421CD20CEB462C08
:1053300018491B4C61440192FEF7DAFE216839F8E6
:1053400016505846019AA1EB0B012A44394429F81A
:10535000162021604FF0E0234FF40032C3F80C21F7
:1053600003B0BDE8F08F2A462F44FEF7C1FE0C497A
:10537000E3B230460A68A844521B0A608AF800303B
:10538000FFF774FDBB45B6D83846E3E70846E1E7CA
:105390000427012080002020D8250120B8250120E5
:1053A000B425012005270120C82501200B4B0C4AFC
:1053B00012781978D3B28A420DD0013309480A4ACB
:1053C000092B0A4928BF0023C35C31F8131002EBF4
:1053D0004323585C70474FF0FF307047042701208B
:1053E00005270120D825012080002020C825012084
:1053F000044B10B51C680CB1204610BD00F0E0F85D
:10540000204610BDB42501202DE9F84F144E154D4E
:1054100033782A78934221D0DCB2DFF85090DFF85D
:1054200050B0DFF85080104F0134082C5FFA84FA36
:1054300001D90024A24619F80400DBF8003038F83E
:10544000102037F81010521A9B1ACBF80030FFF7D3
:105450000DFD86F800A02B78A342E5D1BDE8F88FBA
:105460000527012004270120C8250120D825012077
:10547000B4250120B825012000B583B001210DF12C
:105480000700FFF723FF20B19DF8070003B05DF888
:1054900004FB4FF0FF30F9E7094B00B583B01B78F0
:1054A0008DF807003BB101210DF10700FFF7B0FDBA
:1054B00003B05DF804FB03F0FF0003B05DF804FBEC
:1054C0000B270120044B1B7803F0FF020BB1FFF701
:1054D0009FBD1046704700BF0B2701202DE9F0410A
:1054E0000024DFF8448001230D4D27460D4E88F837
:1054F0000030337828462035A34204F1010405D05A
:10550000FFF776FC030658BF07F50067042CF0D1BF
:10551000BFF34F8F0023384688F80030BDE8F08194
:105520000008012008270120092701202DE9F84360
:105530001D4B1B7813B11D4D2A880AB9BDE8F883AD
:105540001B4EC2F500691B4933784A461A4C01EBE1
:1055500043181A4F04EBC324012340463B702146F5
:105560000023FFF70BFC04EB0902BFF34F8F4FF052
:10557000E023C3F8704F2034A242FAD8BFF34F8F14
:10558000BFF36F8F04204146FFF710FC33780133DF
:10559000DBB2032B88BF0023337000232B80BFF3C3
:1055A0004F8F3B70BDE8F8830B270120FA260120BE
:1055B0000827012000080120801020200927012051
:1055C0002DE9F8432D4B1E7866B12D4F3B784BB932
:1055D0000123F1073B7043D4B20726D400233B706C
:1055E000730701D4BDE8F883264B1A68002AF9D066
:1055F000EFF30582002AF5D1EFF3108572B6186833
:10560000002834D0204C2178002930D1012222708A
:1056100042691A60002A2ED0916105B962B6002550
:105620008368457798472570DCE7DFF8648098F851
:105630000030002BD2D00025DFF858902B4659F8C7
:1056400023400135236820461B69984710B16369E0
:105650009B68984798F80020EBB29A42EFD8BDE7D4
:10566000FFF7C6FE0028B7D0AFF30080B4E7002DE7
:10567000B8D162B6B6E7054B1A60CEE70E27012017
:105680000027012040180120FE2601204C1801208F
:10569000FF26012040190120EFF3108272B6437FEC
:1056A0005BB9017F012930B40BD0032913D001234A
:1056B000437702B962B630BC70470AB962B6704728
:1056C0007047124C2168B1B1114943610B68086001
:1056D00083615861EBE70F4D0F492C688CB1436132
:1056E0000B68836158614FF0E0234FF080540860ED
:1056F000C3F8044DDBE7064B20601860C0E90511D4
:10570000D5E7C0E905442860EDE700BF4018012057
:105710004C180120481801204418012090F81CC0A2
:105720004160BCF1020FC26001D183681847FFF7E6
:10573000B3BF00BF70B5EFF3108272B60C4C206897
:1057400080B10C4E00254369236073B19D6102B99D
:1057500062B6836845779847EFF3108272B6206887
:105760000028F0D102B962B670BD3360EFE700BF28
:105770004818012044180120FFF7DCBF0449054AFE
:105780004968054B1960136801331360704700BF07
:10579000001000E0DC260120D826012000230F2283
:1057A00048F2B82C194610B54FF470444FF4806E8F
:1057B000A0F88C414FF46044A0F88E210A46A0F86E
:1057C0009031B0F888319BB243F0F003A0F88831F3
:1057D00001EB4103013100EB431304299C80A3F842
:1057E00006E05A841A865A805A81A3F80EC05A825B
:1057F000DA825A83DA83EBD1B0F888319BB243F076
:105800000F03A0F88831B0F888319BB243F470637D
:10581000A0F8883110BD00BF374B384A996F38481F
:1058200041F47F0170B5996741F20106D3F8801009
:1058300045F6C05543F226040A43C3F88020FFF71B
:10584000ADFF00F58040FFF7A9FF00F58040FFF7AE
:10585000A5FF00F58040FFF7A1FF0022A0F503108F
:105860004FF00F0E114600EB42134FEA421C01327B
:105870009981042A5981A3F80EE09E82DD8020F8E8
:105880000C1019829C81EED100221E484FF00F0EA1
:1058900041F20106114645F6C05543F2260400EBDD
:1058A00042134FEA421C01329981042A5981A3F81C
:1058B0000EE09E82DD8020F80C1019829C81EED1D2
:1058C000002211480F2641F20105114645F6C05449
:1058D00043F2260E00EB42134FEA421C013299813B
:1058E000042A5981DE819D82DC8020F80C10198207
:1058F000A3F80CE0EED170BD00C00F40000003FC27
:1059000000C03D4000001E4000401E40074A506A53
:10591000936A19468446506A936A9942F9D184453C
:10592000F7D1DB0B43EA4040704700BF00400D4019
:1059300008B5D0E900325BB1BAB10F4BA3FB02133B
:10594000DB0803EB4303B2EB83030AD1012008BD5C
:10595000094BA3FB0213DB0803EB4303B2EB830306
:1059600001D0D21A4260F02AF0D839F09FF81C22F8
:10597000034600201A6008BDABAAAAAA70B5044667
:1059800038B319B1B2FA82F67609A2B9206800B329
:105990006268F2B1184B194902FB03F3B1EBB30F84
:1059A00017D3A368E3B90022012322606260A260DA
:1059B000E260184670BD1D46049BC0E90012C3603A
:1059C000FFF7B6FF03460028F3D06DB90123184650
:1059D00070BD39F06BF8162200230260184670BDC6
:1059E000002135F0FDFFDEE7626831462068A560E2
:1059F00035F0F6FF0123DCE7ABAAAAAA55555515E9
:105A000003460846194639F00DB800BF2DE9F04F9E
:105A1000D04FD14D3968DFF89093D04B8E68DFF8C6
:105A20004C83DFF888B3002483B00122C5E90094D9
:105A3000C5E90244C5E90444AC6105F11C001A70D3
:105A400001F094F83B682E624FF0FF3A5B68C8F8AB
:105A50000090C8E90144C8E90344C8E90544C5F811
:105A600024A008F11C00C5F800B0019301F07EF8F5
:105A7000019BBB4EC8F820303B68C6F80090C6E9D1
:105A80000144DB68C8F824A0C6E90344C6E905441C
:105A900006F11C00C8F800B0DFF8FC92019301F099
:105AA00065F8019BDFF80883C6F800B0C6E9083A3C
:105AB000A9F10406484608F1140A12F043FBC6E9AE
:105AC0001F44C6E9214429467467A6F8784049F87E
:105AD000048C4846C6F804A012F0CEFAA14C204629
:105AE00012F030FBA04B44F8083C14332360002331
:105AF000C4E91E33C4E920332367A4F8743044F8A2
:105B0000043C20469949083C12F0B6FA984DA5F19C
:105B10000409284612F016FB0023C9E91F33C9E91E
:105B200021338F4945F8048C2846C9F804A0C9F8E8
:105B30007430A9F8783012F09FFADFF868B2ABF150
:105B40000405584612F0FEFA0023C5E91F33C5E9E3
:105B5000213383494BF8048CC5F804A058466B6781
:105B6000A5F8783012F088FAD9F81030814DDFF8B6
:105B700044B2A66743F40053C9F810303B68C9F833
:105B8000746000249E68AC61C5E900B4C5E90244B4
:105B9000C5E9044405F11C0000F0E8FFDFF8E881E6
:105BA0003B682E624FF0FF39DFF80CA25B68C5F846
:105BB00000A0C5F82490C8F800B0C8E90144C8E9BD
:105BC0000344C8E9054408F11C00019300F0CEFF2E
:105BD000019B694EC8F820303B68C6F800B0674F9B
:105BE000D3F80CB0C8F82490C8F800A0C6E9014466
:105BF000C6E90344C6E9054406F11C0000F0B6FFFF
:105C0000DFF8B881C6F800A0C6E908B9384612F036
:105C100099FA294608F114093D1FC5E91D44C5E953
:105C20002044C5E9224447F8048C384685F87C4076
:105C3000C5F8049012F070FA514C204612F082FA26
:105C4000504B44F8083CA4F108061433B360002319
:105C5000C6E91E33C6E92133C6E923334A4986F82B
:105C600080302046736012F057FA484F3C1F384688
:105C700012F068FA0023C4E91D33C4E92033C4E9F3
:105C800022333D4947F8048C3846C4F8049084F820
:105C90007C3012F041FADFF808A1AAF1040750465F
:105CA00012F050FA0023C7E91D33C7E92033C7E9D2
:105CB000223331494AF8048CC7F80490504687F8DB
:105CC0007C3012F029FA324922690B68B56742F438
:105CD00000520133226165670B6003B0BDE8F08FAD
:105CE0002C4B73602C4812F069FA27F055F92B4BB6
:105CF0007B602B4812F062FA27F04EF9274B636065
:105D0000224812F05BFA27F047F9244BB3601C4895
:105D100012F054FA27F040F9204B6B60174812F04C
:105D20004DFA27F039F91B4B6B601E4812F046FA0A
:105D300027F032F9174BC9F804300D4812F03EFA3B
:105D400027F02AF9134BA360064812F037FA27F020
:105D500023F900BF3CFB0020A018012062030120B2
:105D6000781801200C1B01200C5200205018012033
:105D7000981B012018190120F0180120F01E0120A5
:105D8000401D0120C4530020C8180120D01D01204F
:105D9000D01A0120645A0020B01C0120745A00203F
:105DA000601E0120241C012024540020A84A002049
:105DB0003452002064540020E84A0020EC530020B4
:105DC000074A1368591C116003B1704700B583B0CE
:105DD0000190FFF71BFE019803B05DF804FB00BFC4
:105DE000D01A0120114A1368591E022B10B504461F
:105DF000116001D0204610BD0D481BF0D7FF0D48A3
:105E00001BF0D4FF0C481BF0D1FF0C481CF09EFA8D
:105E10000B481CF09BFA0B481CF098FA204610BD6A
:105E200027F042FA27F07EFAE4E700BFD01A0120FB
:105E3000AC1C0120941B0120201C0120EC1E012021
:105E4000CC1D01205C1E0120704700BF10B5044628
:105E5000FEF7ECF9204610BD044A0B681268036097
:105E6000934202D01A6801321A607047501A01201A
:105E70000160704710B5054C206800B110BD0246A6
:105E80000349204628F0C8FB206810BD581A01209D
:105E900088280020004870478828002070B50546F3
:105EA0004068E8B1AB68CBB1304E002403E0AB688A
:105EB0000134A34211D950F82420002AF8D05368A5
:105EC000591E012B5160F2D113685B68B342104632
:105ED00037D1FEF7ABF96868E9E708B1FEF7A8F932
:105EE000E868E8B1AB68CBB1204E002403E0AB68B2
:105EF0000134A34211D950F82420002AF8D0536865
:105F0000591E012B5160F2D113685B68B3421046F1
:105F100019D1FEF78BF9E868E9E708B1FEF788F9CF
:105F20002B6963B10024185910B1FEF781F92B6970
:105F30000434182CF7D113B11846FEF779F9284626
:105F400070BD9847C7E79847E5E727F0ADF927F018
:105F5000E9F9C0E727F0A8F927F0E4F9DBE7013118
:105F600002D127F02FF9FAE727F016F82D3C0000B0
:105F700038B50A4B05681B689D42044604D02B685F
:105F80005A1E012B2A6001D0204638BD2846FFF753
:105F900085FF2846FEF74AF9204638BD501A0120F1
:105FA0000F4B1A680B68934270B50E46044602D038
:105FB0001868013018602568AA4204D02A68501E6B
:105FC000012A286002D02360204670BD2846FFF7D2
:105FD00065FF2846FEF72AF933682360204670BD26
:105FE000501A0120002A00F0E5802DE9F04F0C68DE
:105FF00083B00546164624B9A94B1C6801341C60C1
:106000000C60AB68671E013BBB425CD204F1030825
:106010006FF06043984534BF4FEA880A4FF0FF3A6B
:106020005046D5F804B0FEF7FFF88146A86868B17D
:106030006B6803EB800CA9F10402043BACF1040C87
:1060400053F8041F42F8041F9C45F9D1804507D935
:10605000A8EB0002920009EB8000002135F0C0FCA3
:106060005046D5F80CA0FEF7DFF8D5F808C0034677
:10607000BCF1000F0CD0EA6802EB8C0E011F043A51
:10608000AEF1040E52F8040F41F8040F7245F9D135
:10609000E04509D9A8EB0C0203EB8C00920000212B
:1060A000019335F09DFC019BEB60C5E90198BBF1C4
:1060B000000F02D05846FEF7BBF8BAF1000F02D02D
:1060C0005046FEF7B5F8D5F80480736858F827C035
:1060D00001337360BCF1000F43D0724A116800298C
:1060E00038D06F480EE0D2F804E0DEF8003023B973
:1060F000036801330360CEF800309C4269D052F847
:10610000081F39B30B681BB90368013303600B60C8
:106110009C42E8D151680B6823B9614A1368013386
:1061200013600B605C1E58F824309BB130460DF0B4
:10613000D9F9814658F82400D9F804300133C9F858
:10614000043043685A1E012B426068D048F82490FE
:1061500058F827C0DCF804305A1E012BCCF8042074
:106160002DD0AA6848F827600AB30024EB68DFF84E
:106170003881274604E0AA680F600134A24216D98C
:1061800053F82400A60003EB84010028F5D04268F0
:1061900002F1FF3C012AC0F804C0ECD103685B683F
:1061A000434508D1FEF742F8EB689919E3E703B0DD
:1061B000BDE8F08F70479847EB689919DBE7DCF88A
:1061C0000030394A5B689342604626D1FEF72EF8CC
:1061D000C7E70B6823B9324A1368013313600B60B9
:1061E0005C1E58F82430002BB4D0304604F0B6FEC4
:1061F000814658F82400D9F804300133C9F8043036
:1062000043685A1E012B4260A0D10368264A5B688E
:1062100093420BD1FEF70AF898E79847A1E7036885
:10622000214A5B689342F5D098478FE798478DE7FE
:1062300027F03AF827F076F8BEE727F035F827F090
:1062400071F88EE727F030F84846FDF7F1FF27F0A8
:1062500083FC27F029F827F065F877E727F024F882
:1062600027F060F872E7013115D126F0ABFF01315C
:1062700005D126F0A7FF013103D126F0A3FF26F0B8
:106280008BFE26F089FE27F04DF826F085FE0131C1
:1062900003D126F097FF26F07FFE26F07DFE00BF9B
:1062A000541A0120CC2700202D3C00002DE9F0419C
:1062B000374C2368BFF35B8FDB0707460E46154656
:1062C0004AD5344B1C68002C3AD033489C460BE02E
:1062D00023B90168013101600B461160013B9D4209
:1062E00043D05CF8084F5CB3236823B902680132DD
:1062F000026013462260013BDCF804209D421368D3
:10630000E6D1002B3BD0013BFA6852F8251051B181
:10631000A6B13368214A5B689342304635D1BDE867
:10632000F041FDF783BF7168481C7060581C42F84B
:10633000256003D00231716042F82360BDE8F0812E
:10634000FB6853F82520002AE2D17268013272609E
:1063500043F82560BDE8F0812046FEF793F8002859
:10636000AFD02046FEF794F8ABE7226822B90A4B7B
:106370001A6801321A6022602B46551EC4E706498E
:106380000B6801330B601360BDE7BDE8F0411847AF
:106390009C090120CC270020541A01202D3C00002C
:1063A00003682BB903490A6801320A601346026088
:1063B000581E7047541A01202DE9F04FC54C01605A
:1063C000302389B006468360C0220021204635F084
:1063D00007FBC14B746000211846C02235F000FB5A
:1063E000BE4DBF4A0024C6E90302C2E90054C2E917
:1063F0000244C2E90444FFF74DFD02882A80B948EF
:1064000001232246214605F08BFFB64AB6493046A5
:10641000FFF7E8FDB548012128F09EF9B34AB449D9
:106420003046FFF7DFFDB34CB348B44A8460012324
:106430000021C4E900234360B14B2174C4E9021177
:10644000C4E90511C4E90711A18484F8641003604C
:1064500001F07EF8A84AAB493046FFF7C3FDAA4ACF
:10646000AA4B1360012151603046A949FFF7BAFDDC
:10647000A84AA94B1360012151603046A749FFF794
:10648000B1FDA74CA74B0122C4E90032FFF7F2FC93
:10649000A060A54922463046FFF7A4FDDFF840A3DF
:1064A000A24AA3480123CAE90023C0E9013A002215
:1064B000A04BAAF81020CAE90222CAE90522CAE9BB
:1064C0000722CAE90922CAE90B228AF81220CAF86F
:1064D00034208AF843200360114600F0CDFB944A33
:1064E00095493046FFF77EFDDFF8F8929348012387
:1064F000C0E90139C9F80430914BC9F800300022D5
:10650000904BA9F81020C9E90222C9E90522C9E97E
:106510000722C9E90922C9E90B2289F81220C9F822
:10652000342089F843200360114600F059FB834A68
:1065300085493046FFF756FD844A854B1360012399
:10654000844953603046FFF74DFD834A834B136007
:106550000123834953603046FFF744FD814D824952
:10656000296000230122C5E90123C5E90333C5E9F8
:106570000533C5E90733C5E90933C5E90B33C5E977
:106580000D33C5E90F33C5E91133C5E91333C5E947
:106590001533C5E91733C5E91933C5E91B33C5E917
:1065A0001D33EB677148C5E920332946C5E922331D
:1065B000C5E92433C5E92633C5E92833C5E92A33BB
:1065C000C5E92C33C5E92E33C5F8C03085F8C43091
:1065D00012F0DCFB654A66493046FFF703FD654A69
:1065E000654B13600123654953603046FFF7FAFCA1
:1065F000634A644B13600123634953603046FFF7DD
:10660000F1FC624801210AF053FD604A60493046BE
:10661000FFF7E8FC5F48012105F052FE5D4A5E4944
:106620003046FFF7DFFC5D48012128F0ADF85B4AFA
:106630005B493046FFF7D6FCDFF8ACB1594801237F
:10664000CBF804304360584BCBF80030574BC0F8C0
:1066500008B000210360CBE90211CBE90511CBE9B9
:106660000711CBE909118BF810108BF8241100F0F9
:10667000FBFF4C4A4E493046FFF7B4FC4D4A4E4BA7
:10668000136001234D4953603046FFF7ABFC4C4A81
:106690004C4B136001234C4953603046FFF7A2FC7A
:1066A0004A4C4B4B236001236360FFF7E3FBA06080
:1066B000484922463046FFF795FCDFF830814648CE
:1066C0000123C8F804304360444BC8F8003000226E
:1066D0008EE000BF6017012070160120480F0120D6
:1066E00058160120540F0120481A012030170120AC
:1066F000B01A0120C00A0120CC090120A4540020B6
:10670000E0500020801A0120201801205C58002051
:10671000C01A012030180120D4580020C81A0120C6
:106720004817012070500020701A0120E454002006
:10673000700A0120A04F0020601A01207C0A01206D
:10674000F4540020D44F0020641A0120140A0120C0
:1067500080510020901A0120240A0120B05100200D
:10676000981A0120500C0120C4540020340A012042
:1067700090190120E409012028510020881A0120E5
:10678000F4090120285A0020EC1A0120AC0901204C
:10679000781A0120741101204C1A01203C170120A5
:1067A000B41A0120D8090120B4540020045100205B
:1067B000841A01202818012098580020C41A0120AA
:1067C0003818012004590020CC1A01205417012048
:1067D0008C500020741A0120880A012004550020E2
:1067E000E00D0120240E0120280B0120680E01205D
:1067F000AC4BC0F8088003601146C8E90222C8E922
:106800000522C8E90722C8E90922C8E90B22C8E91C
:106810000D2288F81020C8F83C2088F86C2000F081
:1068200027FBA14AA1493046FFF7DCFBA04FA14856
:1068300001237B604360A04B3B6000229F4B87603D
:1068400003601146C7E90222C7E90522C7E907220A
:10685000C7E90922C7E90B22C7E90D223A74FA6396
:1068600087F86C2000F0B8FA924A95493046FFF755
:10687000B9FB944A944B136001239449536030460A
:10688000FFF7B0FB924A934B136001239249536088
:106890003046FFF7A7FB914C91492160002301226C
:1068A000C4E90123C4E90333C4E90533C4E9073368
:1068B000C4E90933C4E90B33C4E90D33C4E90F3328
:1068C000C4E91133C4E91333C4E91533C4E91733F8
:1068D000C4E91933C4E91B33C4E91D33E3678148B4
:1068E000C4E920332146C4E92233C4E92433C4E98E
:1068F0002633C4E92833C4E92A33C4E92C33C4E974
:106900002E33C4F8C03084F8C4301DF0BDF8754A89
:1069100075493046FFF766FB744A754B13600123D7
:10692000744953603046FFF75DFB734A734B136045
:106930000123734953603046FFF754FB714801212E
:1069400011F080F86F4A70493046FFF74BFB6F4AF1
:106950006F4B136001236F4953603046FFF742FBD2
:106960006D4A6E4B136001236D4953603046FFF74B
:1069700039FB6C4A6C4B136001236C495360304601
:10698000FFF730FB6A4A6B4B136001236A4953607F
:106990003046FFF727FB694A02A93046CDE9022AB3
:1069A000CDE9049BCDE9068701F064FDF3686448F6
:1069B0000193FFF7F5FC019B604A43F82020F36840
:1069C00060480193FFF7ECFC019B43F820A05E4870
:1069D000D6F80CA0FFF7E4FC4AF820905B48D6F804
:1069E0000C90FFF7DDFC49F820505948F568FFF797
:1069F000D7FC45F820B02D48F568FFF7D1FC45F8E5
:106A000020802F48F568FFF7CBFC45F8207036480A
:106A1000F568FFF7C5FC45F82040304609B0BDE8F1
:106A2000F08F044601313AD1204626F0CBFB0D46CB
:106A300004462048FFF708FA2946F3E70D460446C6
:106A40004448FFF701FA2946ECE70D460446424860
:106A5000FFF7FAF92946E5E70D4604463F48FFF7F8
:106A6000F3F92946DEE70D4604463D48FFF7ECF909
:106A70002946D7E70D4604463A48FFF7E5F9294687
:106A8000D0E70D4604463848FFF7DEF92946C9E746
:106A90000D4604460448FFF7D7F92946C2E726F019
:106AA0007BFA00BF08500020880A0120681A0120E4
:106AB000D80E0120940A0120145500203C500020DB
:106AC0006C1A01201C0A012098510020941A012000
:106AD0002C0A0120C85100209C1A0120180D012009
:106AE000D4540020480A012094190120EC09012007
:106AF000545100208C1A0120FC0901203C5A00202E
:106B0000F01A0120BC0901207C1A0120040A01208E
:106B1000A0570020AC1A01200C0A01204857002081
:106B2000A41A0120A00A012074570020A81A0120ED
:106B3000A80A01201C570020A01A0120C00A012029
:106B4000801A0120601A0120641A01209019012086
:106B5000841A01207C0A0120700A012048170120B4
:106B6000CC09012054170120D8090120F8B5174E8F
:106B70003368002204460260D3B1154D2A682260B2
:106B80009A420AD0134E3368BFF35B8FDB0706D5FA
:106B90002B6823601A6801321A602046F8BD30461F
:106BA000FDF770FC0028F3D03046FDF771FCEFE7ED
:106BB000094F074D02213846FFF7FEFB07483760B3
:106BC00039462F60FFF754F93368D7E7501A012090
:106BD0005C1A0120980901205C0A0120541601204A
:106BE00010B50446806830B32E234374A3681E4951
:106BF0002C229A741D4AA368106818630022C3E906
:106C00000212C3E90512C3E90712C3E90912DA62E5
:106C1000174AA3681268586302F10A0C531EC2F1A6
:106C20000100A268C1180A4413F8011F82F8381045
:106C30006345F6D110BD4420FDF7F4FA0D4AA0607B
